:040000005DEF00F0C0
:100008008505850585058505850585058505850598
:100018008505850585058505850585058505850588
:1000280068052E002E002E008505850585058505A9
:100038008505850585056F0485058505850585057F
:100048008505850585058505850585058505850558
:100058008505850585052E008505360385058505F5
:100068008505850585055F048505850585052E00BB
:10007800910339040E0439052E008505850585058B
:1000880085058505850585052E0085052E008505D0
:100098008505850585058505850585058505850508
:1000A80085052E002E007F048505850585058505B7
:1000B800FF001EEF09F0136E010E126E14EF01F02F
:1000C800000E9BEF01F01350EAEC06F091EF01F0FF
:1000D800135057EC07F091EF01F0000E126E91EFFC
:1000E80001F01350C4EC0AF091EF01F01350C8EC82
:1000F8000AF091EF01F013C523F5246A91EF01F09E
:100108002350246E236A1350231223C50BF524C5EC
:100118000CF5010E0D6E9AEC05F091EF01F02350ED
:10012800246E236A1350231223C50BF524C50CF53E
:10013800020E0D6E9AEC05F091EF01F02350246E3B
:10014800236A1350231223C50BF524C50CF5030E9F
:100158000D6E9AEC05F091EF01F02350246E236A9E
:100168001350231223C50BF524C50CF5040E0D6E90
:100178009AEC05F091EF01F02350246E236A135096
:10018800231223C50BF524C50CF5050E0D6E9AEC4C
:1001980005F091EF01F02350246E236A13502312C7
:1001A80023C50BF524C50CF5060E0D6E9AEC05F06B
:1001B80091EF01F02350246E236A1350231223C5B4
:1001C8000BF524C50CF5B6EC0AF091EF01F02350BD
:1001D800246E236A1350231223C50BF524C50CF58E
:1001E800B1EC0AF091EF01F02350246E236A13500A
:1001F800231223C50BF524C50CF5ACEC0AF091EFDE
:1002080001F013506EEC03F091EF01F0135049EC3C
:1002180008F091EF01F01350CCEC0AF091EF01F0E7
:100228003650106E116A1150000AD8B41EEF01F052
:1002380071EF00F01050000AD8B464EF00F0010A22
:10024800D8B467EF00F0030AD8B46CEF00F0060AE0
:10025800D8B471EF00F0010AD8B471EF00F0030AC6
:10026800D8B475EF00F0010AD8B47AEF00F0170A95
:10027800D8B47FEF00F0010AD8B484EF00F0030A85
:10028800D8B47FEF00F0010AD8B493EF00F0070A62
:10029800D8B47FEF00F0010AD8B4A2EF00F0030A47
:1002A800D8B47FEF00F0010AD8B4B1EF00F00F0A1C
:1002B800D8B47FEF00F0010AD8B4C0EF00F0030A09
:1002C800D8B47FEF00F0010AD8B4CFEF00F03B0AB2
:1002D800D8B47FEF00F0010AD8B4DEEF00F0030ACB
:1002E800D8B47FEF00F0010AD8B4EBEF00F0070AAA
:1002F800D8B47FEF00F0010AD8B4F8EF00F0150A7F
:10030800D8B405EF01F0010AD8B40AEF01F0030AE6
:10031800D8B40FEF01F071EF00F01250D8B497EF96
:1003280001F099EF01F09AEF01F0362A125012000D
:10033800010E076E086848EF02F0DDEC0AF073EC76
:1003480009F0086EEAEC0AF0056ED8900534081238
:10035800FAEC0AF00812C5EF02F073EC09F0086E27
:10036800C5EF02F08CEC07F0086EC5EF02F0F0EC78
:1003780009F0086EC5EF02F0DDEC09F0086EC5EF74
:1003880002F0D7EC0AF0086EC5EF02F0DAEC0AF0DA
:10039800086EC5EF02F0010E29EC06F0086EC5EFF5
:1003A80002F0010EE6EC05F0086EC5EF02F0020E51
:1003B80029EC06F0086EC5EF02F0020EE6EC05F037
:1003C800086EC5EF02F0030E29EC06F0086EC5EFC3
:1003D80002F0030EE6EC05F0086EC5EF02F0040E1D
:1003E80029EC06F0086EC5EF02F0040EE6EC05F005
:1003F800086EC5EF02F0050E29EC06F0086EC5EF91
:1004080002F0050EE6EC05F0086EC5EF02F0060EE8
:1004180029EC06F0086EC5EF02F0060EE6EC05F0D2
:10042800086EC5EF02F0F6EC0AF0086EC5EF02F0B0
:10043800F4EC0AF0086EC5EF02F0F2EC0AF0086E70
:10044800C5EF02F0F0EC0AF0086EC5EF02F0EEEC32
:100458000AF0086EC5EF02F0ECEC0AF0086EC5EF82
:1004680002F0FCEC0AF0086EC5EF02F0F8EC0AF0B6
:10047800086EC5EF02F0E0EC0AF0086EC5EF02F076
:10048800000E076EC5EF02F03650056E066A06507C
:10049800000AD8B452EF02F044EF02F00550000A07
:1004A800D8B4A1EF01F0010AD8B4B1EF01F0030A02
:1004B800D8B4B6EF01F0060AD8B4BBEF01F0010AD0
:1004C800D8B4C0EF01F0030AD8B4C5EF01F0010AAF
:1004D800D8B4CAEF01F0170AD8B4CFEF01F0010A77
:1004E800D8B4D5EF01F0030AD8B4DBEF01F0010A64
:1004F800D8B4E1EF01F0070AD8B4E7EF01F0010A38
:10050800D8B4EDEF01F0030AD8B4F3EF01F0010A13
:10051800D8B4F9EF01F00F0AD8B4FFEF01F0010ADF
:10052800D8B405EF02F0030AD8B40BEF02F0010AC1
:10053800D8B411EF02F03B0AD8B417EF02F0010A61
:10054800D8B41CEF02F0030AD8B421EF02F0010A74
:10055800D8B426EF02F0070AD8B42BEF02F0010A4C
:10056800D8B430EF02F0150AD8B435EF02F0010A1A
:10057800D8B43AEF02F0030AD8B43FEF02F044EFE0
:1005880002F00750D8B4CBEF02F0CDEF02F0CEEF77
:1005980002F0362A085012000501656F65C539F565
:1005A8000301F39F13EF03F0000E0301E76FF80E4A
:1005B800F51736EF03F0020E0301E76FF551F80B5C
:1005C8000309F56FF5518F0B1009F56F36EF03F03E
:1005D800040E0301E76FF551F80B0309F56FF551A8
:1005E8008F0B2009F56F36EF03F0080E0301E76F54
:1005F800F551F80B0309F56FF5518F0B3009F56FBD
:1006080036EF03F0100E0301E76FF551F80B0309FD
:10061800F56FF5518F0B4009F56F36EF03F0395040
:100628000F0B0501636F646B6451000AD8B41FEFA8
:1006380003F036EF03F06351000AD8B4D8EF02F0A4
:10064800010AD8B4DFEF02F0030AD8B4ECEF02F0E5
:10065800010AD8B4F9EF02F0070AD8B406EF03F09C
:1006680036EF03F03938E832E832030B2BEC0AF0A6
:100678004AEF03F0F00E0301F8176BEF03F00301E4
:10068800F851F00B0309F86F6BEF03F03938E832D3
:10069800E832030B0501636F646B6451000AD8B438
:1006A80058EF03F06BEF03F06351000AD8B43EEF44
:1006B80003F0010AD8B443EF03F0030AD8B443EFB8
:1006C80003F0010AD8B443EF03F06BEF03F0030122
:1006D800F38F12000E6E0EC539F50301F39FABEFD1
:1006E80003F0000EE76FF80EF517CDEF03F0020EDA
:1006F800E76FF551F80B0309F56FF5518F0B1009EA
:10070800F56FCDEF03F0040EE76FF551F80B030911
:10071800F56FF5518F0B2009F56FCDEF03F0080E3B
:10072800E76FF551F80B0309F56FF5518F0B300999
:10073800F56FCDEF03F0100EE76FF551F80B0309D5
:10074800F56FF5518F0B4009F56FCDEF03F0395078
:100758000F0B0C6E0D6A0D50000AD8B4B6EF03F0FB
:10076800CDEF03F00C50000AD8B475EF03F0010A7E
:10077800D8B47BEF03F0030AD8B487EF03F0010A7B
:10078800D8B493EF03F0070AD8B49FEF03F0CDEF86
:1007980003F03938E832E832030B69EC0AF0E1EF8C
:1007A80003F0F00E0301F81701EF04F00301F8510C
:1007B800F00B0309F86F01EF04F03938E832E8323A
:1007C800030B0C6E0D6A0D50000AD8B4EEEF03F05F
:1007D80001EF04F00C50000AD8B4D5EF03F0010A79
:1007E800D8B4DAEF03F0030AD8B4DAEF03F0010A59
:1007F800D8B4DAEF03F001EF04F00301F38F12002D
:100808000D6E0FEF04F0010E0E6E8CEF04F0000E6B
:100818000E6E8CEF04F00D500B6E0C6A0C50000A33
:10082800D8B419EF04F00BEF04F00B50000AD8B459
:1008380007EF04F0010AD8B407EF04F0030AD8B4AC
:1008480007EF04F0060AD8B407EF04F0010AD8B499
:1008580007EF04F0030AD8B407EF04F0010AD8B48C
:1008680007EF04F0170AD8B407EF04F0010AD8B468
:1008780007EF04F0030AD8B407EF04F0010AD8B46C
:1008880007EF04F0070AD8B407EF04F0010AD8B458
:1008980007EF04F0030AD8B407EF04F0010AD8B44C
:1008A80007EF04F00F0AD8B407EF04F0010AD8B430
:1008B80007EF04F0030AD8B407EF04F0010AD8B42C
:1008C80007EF04F03B0AD8B407EF04F0010AD8B4E4
:1008D80007EF04F0030AD8B407EF04F0010AD8B40C
:1008E80007EF04F0070AD8B407EF04F0010AD8B4F8
:1008F80007EF04F0150AD8B407EF04F0010AD8B4DA
:1009080007EF04F0030AD8B407EF04F00BEF04F084
:100918000E50D8B492EF04F094EF04F096EF04F080
:100928000DC536F50E5012004DEC05F003EC0AF03B
:10093800400E05016A6FCFB8A4EF04F0A8EF04F0E9
:10094800696B692BAAEF04F00501696BD8906935CA
:100958006A13D0B0B2EF04F0B5EF04F0010EB6EFB1
:1009680004F0000E6A136A5199EC08F0010E0501B3
:10097800626F050E636F030E646F010E5AEC09F087
:1009880007EC0BF0FCEC04F0CAEC09F0240E0501AE
:10099800626F140E636F84EC0AF057EC0AF020ECD7
:1009A8000AF0BFEC07F03CEC09F0B6EC09F0FC0EDD
:1009B8000501626F150E636F7FEC0AF0A2EC09F077
:1009C800000E0501626F160E636F7AEC0AF0AEEC4A
:1009D80006F0040E0501626F160E636F89EC0AF0CB
:1009E800080E0501626F160E636F8EEC0AF0120096
:1009F800000E696E000E786E000E876E000E606E37
:100A0800000E6F6E000E7E6E050E616E050E706E26
:100A1800050E7F6E000E656E000E746E000E836EFE
:100A2800000E626E000E716E000E806E270E646EF0
:100A3800100E636E270E736E100E726E270E826E86
:100A4800100E816E000E6C6EFA0E6B6E000E6E6EDE
:100A5800FA0E6D6E000E7B6EFA0E7A6E000E7D6ECB
:100A6800FA0E7C6E000E8A6EFA0E896E000E8C6E7F
:100A7800FA0E8B6E000E686E000E776E000E866E94
:100A8800000E6A6E000E796E000E886E070E9D6E5F
:100A98001200C880C788040110910899098911813A
:100AA800C79CC892089D1093BF9CC092C690C692DE
:100AB80000910093BE90BE92C6840085C78A089BA9
:100AC800098B0D0E0201616F04011085009B0099CE
:100AD800028B0289C69AC698050E0201706F040E31
:100AE800716F220E066F210E056F0401039B039997
:100AF800048B0489C79EBF9E0F0E0201106FC89E0B
:100B0800C09E0E0E186FC89CC09C0D0E176FC8961D
:100B1800C0960C0E146FC898C0980B0E156FC89A23
:100B2800C09A0A0E166F040110851200C0EF05F076
:100B38000BC56BF40CC56CF4E5EF05F00BC56DF453
:100B48000CC56EF4E5EF05F00BC57AF40CC57BF423
:100B5800E5EF05F00BC57CF40CC57DF4E5EF05F079
:100B68000BC589F40CC58AF4E5EF05F00BC58BF4C9
:100B78000CC58CF4E5EF05F00D500E6E0F6A0F50A2
:100B8800000AD8B4CAEF05F0E5EF05F00E50010AE7
:100B9800D8B49CEF05F0030AD8B4A2EF05F0010A17
:100BA800D8B4A8EF05F0070AD8B4AEEF05F0010AEB
:100BB800D8B4B4EF05F0030AD8B4BAEF05F0E5EFFE
:100BC80005F01200036E046802EF06F06BC404F52A
:100BD80027EF06F06DC404F527EF06F07AC404F594
:100BE80027EF06F07CC404F527EF06F089C404F566
:100BF80027EF06F08BC404F527EF06F00350016ECB
:100C0800026A0250000AD8B40CEF06F027EF06F08B
:100C18000150010AD8B4EAEF05F0030AD8B4EEEFA0
:100C280005F0010AD8B4F2EF05F0070AD8B4F6EFD8
:100C380005F0010AD8B4FAEF05F0030AD8B4FEEFBC
:100C480005F027EF06F004501200036E046845EF24
:100C580006F06CC404F56AEF06F06EC404F56AEF9A
:100C680006F07BC404F56AEF06F07DC404F56AEF6C
:100C780006F08AC404F56AEF06F08CC404F56AEF3E
:100C880006F00350016E026A0250000AD8B44FEF12
:100C980006F06AEF06F00150010AD8B42DEF06F00D
:100CA800030AD8B431EF06F0010AD8B435EF06F0DC
:100CB800070AD8B439EF06F0010AD8B43DEF06F0B8
:100CC800030AD8B441EF06F06AEF06F004501200A8
:100CD800FAC460F5FBC461F54CEC0AF00009D8B41D
:100CE80078EF06F07AEF06F092EF06F0275028101A
:100CF800D8B481EF06F083EF06F0A8EF06F002D82B
:100D080090EF06F00500FA6E2750FD6E2850FE6E33
:100D1800F850FF6EFA501200A8EF06F02550261082
:100D2800D8B499EF06F09BEF06F0A8EF06F002D8CA
:100D3800A8EF06F00500FA6E2550FD6E2650FE6EEF
:100D4800F850FF6EFA501200B89A61C5FBF460C5FE
:100D5800FAF41100000E0001D56F000ED66FD651BF
:100D6800F80B0509D66F000ED76F000ED86F0D0E61
:100D7800DA6F000EDC6FDC8B000EDD6FDD83000E9A
:100D8800DE6F000EDF6FD68F010ED56F000ED66FA7
:100D9800D651F80B0509D66FD689D687000ED76FBE
:100DA800D783000ED86F220ED96F0D0EDA6F000EA2
:100DB800DC6FDC8B000EDD6FDD81DD85000EDE6F04
:100DC800000EDF6FD68FB89AAD8A12000B6E0BC576
:100DD8000CF50CAEF2EF06F0F4EF06F0F9EF06F0C2
:100DE800C08236EC0AF0FCEF06F0C092A2EC0AF0E2
:100DF8000CA401EF07F003EF07F008EF07F0BF8C32
:100E080041EC0AF00BEF07F0BF9CA7EC0AF00CA22C
:100E180010EF07F012EF07F015EF07F0BE8216EF9C
:100E280007F0BE920CA01BEF07F01DEF07F020EFB4
:100E380007F0BE8021EF07F0BE901200FAC416F545
:100E4800FBC417F58AC219F533503410D8B42FEF04
:100E580007F031EF07F051EF07F002D83FEF07F046
:100E68000500FA6E3350FD6E3450FE6EF850FF6E7A
:100E7800FA5019501200E806D8A445EF07F048EFD9
:100E880007F0010E49EF07F0000E186E18B003D0F6
:100E98000201959D02D00201958DBA9017C5FBF409
:100EA80016C5FAF411000D6E6EEF07F0820E0301FD
:100EB800EC6F8BEF07F08D0E0301EC6F8BEF07F0F3
:100EC8003B0E0301EC6F8BEF07F03A0E0301EC6F5A
:100ED8008BEF07F00D500B6E0C6A0C50000AD8B45B
:100EE80078EF07F08BEF07F00B50010AD8B45AEFF0
:100EF80007F0030AD8B45FEF07F0010AD8B464EF2B
:100F080007F0070AD8B469EF07F08BEF07F0120073
:100F1800820E0301EC19D8A494EF07F096EF07F0BE
:100F280099EF07F0010EBEEF07F08D0EEC19D8A46B
:100F3800A0EF07F0A2EF07F0A5EF07F0020EBEEF53
:100F480007F03B0EEC19D8A4ACEF07F0AEEF07F0B2
:100F5800B1EF07F0030EBEEF07F03A0EEC19D8A474
:100F6800B8EF07F0BAEF07F0BDEF07F0040EBEEFD9
:100F780007F0000E1200000E0301F36FF389F3511E
:100F8800F30B0409F36F000EF46F000EF56F000EFB
:100F9800F66F070EF613000EF86F820EEC6F000E58
:100FA800F26F000EF16F000EEF6F020EEE6F000E83
:100FB800F06F190EF96F000ED86F000E396EF00E33
:100FC800391639503F0B8009396E3950D0EC02F090
:100FD800B590AA80120098EC04F009EC0BF008EC2C
:100FE8000BF0160E0501626F130E636F98EC0AF092
:100FF800A80E0501626F150E636F9DEC0AF0760E60
:101008000501626F150E636F93EC0AF0E8EC0AF0C5
:10101800E6EC0AF00009D8B414EF08F016EF08F06F
:101028000CEF08F0C0EC0AF00CEF08F05DEF00F0F0
:10103800FAC41AF5FBC41BF502019AA526EF08F0BD
:1010480028EF08F043EF08F08C69959D99852F509B
:101058003010D8B432EF08F034EF08F041EF08F060
:1010680002D841EF08F00500FA6E2F50FD6E30509F
:10107800FE6EF850FF6EFA50120002019A95BA946B
:101088001BC5FBF41AC5FAF411000C6E0CC537F534
:101098000001A39F37A653EF08F055EF08F05DEF66
:1010A80008F0A387A4978F0EA5173F0EA61770EF19
:1010B80008F0A3973750070B0B6E0B3AA4510B1887
:1010C8008F0B0B18A46FA487A5518F0B1009A56F60
:1010D800A6513F0B8009A66FA38F1200FAC409F529
:1010E800FBC40AF531503210D8B47DEF08F07FEF19
:1010F80008F090EF08F002D88CEF08F00500FA6EBF
:101108003150FD6E3250FE6EF850FF6EFA501200EC
:1011180002018B6F93EF08F0000E02018B6FBA92F9
:101128000AC5FBF409C5FAF411000501626F000E47
:101138000201946FF80E9417000E956F000E9B6FC6
:101148009B85010E9E6F9F0E9D6F8C6905016251F4
:1011580062250201906F000E976F9785978197839C
:10116800BA94BA90BA92BA96AF84AF80AF82AF867B
:10117800948F1200FAC41DF5FBC41EF53A503B10BB
:10118800D8B4C9EF08F0CBEF08F0D8EF08F002D8D0
:10119800D8EF08F00500FA6E3A50FD6E3B50FE6E2F
:1011A800F850FF6EFA501200B9961EC5FBF41DC523
:1011B800FAF41100FAC41FF5FBC420F52B502C10CB
:1011C800D8B4E9EF08F0EBEF08F0F8EF08F002D830
:1011D800F8EF08F00500FA6E2B50FD6E2C50FE6EED
:1011E800F850FF6EFA501200B69620C5FBF41FC5E2
:1011F800FAF41100FAC421F5FBC422F529502A108B
:10120800D8B409EF09F00BEF09F018EF09F002D88C
:1012180018EF09F00500FA6E2950FD6E2A50FE6E8F
:10122800F850FF6EFA501200BD9622C5FBF421C596
:10123800FAF411000C0EF66E160EF76E000EF86E2C
:101248000900F5C43CF50900F5C43DF501EE23F1AC
:10125800170EEE6AE806FDE10401080E5D6F000E48
:101268005E6F000E5F6F000EF86E0001EFEF07F083
:10127800000E0001A36FA387A38B000EA46F070EB7
:10128800A413000EA56FA551F80B0209A56F000E57
:10129800A66F3F0EA617A651E00B0209A66F000E17
:1012A800A76FA38F000E376E378612000501686F8F
:1012B80063C565F53F0E0501651762C566F5060E3F
:1012C800676FD8906637672F65EF09F06841800B24
:1012D8006611651102019C6F64C59FF21200000E31
:1012E800016EC0A202D0018E01D0019EBFAC02D017
:1012F800018401D00194BEA202D0018201D00192E2
:10130800BEA002D0018001D0019001501200156EDC
:101318003D50D8B492EF09F094EF09F09CEF09F032
:10132800000E3D6E155004EC04F0146EA0EF09F0A9
:1013380015505FEC00F0146E14501200000E0301FB
:101348002B6F000E2C6F2C51E00B08092C6F000E30
:101358002D6F0A0E2D6F000E2E6F000E2A6FBD9690
:10136800B2861200000E03011E6F000E1F6F1F5180
:10137800E00B08091F6F000E206F0A0E206F000E89
:10138800216F000E1D6FB696AB861200000E040189
:10139800466F000E476F4751E00B0209476F440E36
:1013A800436F000E446F000E456FB996AE86468FA8
:1013B8001200000E386E39500F0B0009D8A4E7EF61
:1013C80009F0E9EF09F0EDEF09F00301EA51EFEF59
:1013D80009F00301E1511200000E386E39500F0B6D
:1013E8000009D8A4FAEF09F0FCEF09F000EF0AF0C1
:1013F8000301EB5102EF0AF00301E2511200000E63
:101408000001396F3951F80B0409396F3951E70B6D
:101418001009396F040E3A6F398F1200BEA217EF08
:101428000AF01AEF0AF0BE821BEF0AF0BE92010E14
:101438003C6E78C01CF51200000E0001A26FA2518C
:10144800F30B0809A26F000EA06FA28F120005010E
:10145800626F0301D75105016219FC0B6219030180
:10146800D76F120003012A51D8B43DEF0AF03FEFBD
:101478000AF040EF0AF02B8F120003011D51D8B477
:1014880048EF0AF04AEF0AF04BEF0AF01E8F1200FD
:101498000001D4B352EF0AF055EF0AF0010E56EFEF
:1014A8000AF0000E1200000E0301D76FD751F30B9C
:1014B8000409D76FD78F1200000E366E000E246E07
:1014C800000E236EE3EC0AF012000B6E0301D751F5
:0A14D8000B18FC0B0B18D76F120065
:1014E400BE80020199859799979B979DBA961100A2
:1014F40062C529F563C52AF5120062C52BF563C5DB
:101504002CF5120062C53AF563C53BF5120062C5BD
:1015140027F563C528F5120062C525F563C526F5D0
:10152400120062C52FF563C530F5120062C533F5AC
:1015340063C534F5120062C531F563C532F5120096
:1015440003012B9F000E296F120003011E9F000E42
:101554001C6F12000BC581F40CC582F412000BC57C
:1015640072F40CC573F412000BC563F40CC564F477
:101574001200010E3D6E60EC0AF012000400000E31
:101584003C6E12000B6E0BC52AF312000B6E0BC5DA
:101594001DF312000B6E0BC5A0F01200010E386E85
:1015A400B59011009CEC01F0120003012A511200C5
:1015B40003011D511200000E356E12000001A051EE
:1015C4001200070E9C6E12003C501200D68E1200C0
:1015D40035501200815012008250120072501200D5
:1015E40073501200635012006450120037501200FE
:1015F4003850120039501200BF9C1200C0921200E1
:10160400C0921200C08212000101120012001200E6
:021614001100C3
:020000040020DA
:10000000FFFFFFFFFFFFFFFFFFFFFFFFFFFFFFFF00
:10001000FFFFFFFFFFFFFFFFFFFFFFFFFFFFFFFFF0
:10002000FFFFFFFFFFFFFFFFFFFFFFFFFFFFFFFFE0
:10003000FFFFFFFFFFFFFFFFFFFFFFFFFFFFFFFFD0
:020000040030CA
:090000008CFDFFF4EBC6FFFFFFCD
:00000001FF
