:040000005DEF00F0C0
:1000080096089608960896089608960896089608F8
:1000180096089608960896089608960896089608E8
:1000280079082E002E002E00960896089608960845
:1000380096089608960880079608960896089608DF
:1000480096089608960896089608960896089608B8
:100058009608960896082E00960847069608960869
:1000680096089608960870079608960896082E002F
:10007800A2064A071F074A082E00960896089608FF
:1000880096089608960896082E0096082E00960858
:100098009608960896089608960896089608960868
:1000A80096082E002E00900796089608960896083F
:0600B800FF0040EF0FF015
:100D00000000136E010E126E36EF07F0000EBDEFFD
:100D100007F013500CEC0DF0B3EF07F0135079EC23
:100D20000DF0B3EF07F0000E126EB3EF07F01350A3
:100D3000E6EC10F0B3EF07F01350EAEC10F0B3EF6D
:100D400007F013C523F5246AB3EF07F02350246E90
:100D5000236A1350231223C50BF524C50CF5010E8D
:100D60000D6EBCEC0BF0B3EF07F02350246E236A3A
:100D70001350231223C50BF524C50CF5020E0D6E7E
:100D8000BCEC0BF0B3EF07F02350246E236A135032
:100D9000231223C50BF524C50CF5030E0D6EBCEC18
:100DA0000BF0B3EF07F02350246E236A1350231285
:100DB00023C50BF524C50CF5040E0D6EBCEC0BF031
:100DC000B3EF07F02350246E236A1350231223C578
:100DD0000BF524C50CF5050E0D6EBCEC0BF0B3EF56
:100DE00007F02350246E236A1350231223C50BF5FA
:100DF00024C50CF5060E0D6EBCEC0BF0B3EF07F03E
:100E00002350246E236A1350231223C50BF524C5E7
:100E10000CF5D8EC10F0B3EF07F02350246E236AE2
:100E20001350231223C50BF524C50CF5D3EC10F099
:100E3000B3EF07F02350246E236A1350231223C507
:100E40000BF524C50CF5CEEC10F0B3EF07F0135002
:100E500090EC09F0B3EF07F013506BEC0EF0B3EF2A
:100E600007F01350EEEC10F0B3EF07F03650106EB1
:100E7000116A1150000AD8B440EF07F093EF06F062
:100E80001050000AD8B486EF06F0010AD8B489EFF2
:100E900006F0030AD8B48EEF06F0060AD8B493EF32
:100EA00006F0010AD8B493EF06F0030AD8B497EF1E
:100EB00006F0010AD8B49CEF06F0170AD8B4A1EFE7
:100EC00006F0010AD8B4A6EF06F0030AD8B4A1EFE1
:100ED00006F0010AD8B4B5EF06F0070AD8B4A1EFBE
:100EE00006F0010AD8B4C4EF06F0030AD8B4A1EFA3
:100EF00006F0010AD8B4D3EF06F00F0AD8B4A1EF78
:100F000006F0010AD8B4E2EF06F0030AD8B4A1EF64
:100F100006F0010AD8B4F1EF06F03B0AD8B4A1EF0D
:100F200006F0010AD8B400EF07F0030AD8B4A1EF25
:100F300006F0010AD8B40DEF07F0070AD8B4A1EF04
:100F400006F0010AD8B41AEF07F0150AD8B427EF53
:100F500007F0010AD8B42CEF07F0030AD8B431EF38
:100F600007F093EF06F01250D8B4B9EF07F0BBEFDB
:100F700007F0BCEF07F0362A12501200010E076E80
:100F800008686AEF08F0FFEC10F095EC0FF0086EBF
:100F90000CEC11F0056ED890053408121CEC11F021
:100FA0000812E7EF08F095EC0FF0086EE7EF08F095
:100FB000AEEC0DF0086EE7EF08F012EC10F0086EE2
:100FC000E7EF08F0FFEC0FF0086EE7EF08F0F9EC40
:100FD00010F0086EE7EF08F0FCEC10F0086EE7EF99
:100FE00008F0010E4BEC0CF0086EE7EF08F0010E74
:100FF00008EC0CF0086EE7EF08F0020E4BEC0CF07A
:10100000086EE7EF08F0020E08EC0CF0086EE7EF50
:1010100008F0030E4BEC0CF0086EE7EF08F0030E3F
:1010200008EC0CF0086EE7EF08F0040E4BEC0CF047
:10103000086EE7EF08F0040E08EC0CF0086EE7EF1E
:1010400008F0050E4BEC0CF0086EE7EF08F0050E0B
:1010500008EC0CF0086EE7EF08F0060E4BEC0CF015
:10106000086EE7EF08F0060E08EC0CF0086EE7EFEC
:1010700008F018EC11F0086EE7EF08F016EC11F02C
:10108000086EE7EF08F014EC11F0086EE7EF08F0D7
:1010900012EC11F0086EE7EF08F010EC11F0086E9A
:1010A000E7EF08F00EEC11F0086EE7EF08F01EEC29
:1010B00011F0086EE7EF08F01AEC11F0086EE7EF98
:1010C00008F002EC11F0086EE7EF08F0000E076E72
:1010D000E7EF08F03650056E066A0650000AD8B4ED
:1010E00074EF08F066EF08F00550000AD8B4C3EFBB
:1010F00007F0010AD8B4D3EF07F0030AD8B4D8EF49
:1011000007F0060AD8B4DDEF07F0010AD8B4E2EF21
:1011100007F0030AD8B4E7EF07F0010AD8B4ECEF00
:1011200007F0170AD8B4F1EF07F0010AD8B4F7EFC7
:1011300007F0030AD8B4FDEF07F0010AD8B403EFB3
:1011400008F0070AD8B409EF08F0010AD8B40FEF85
:1011500008F0030AD8B415EF08F0010AD8B41BEF61
:1011600008F00F0AD8B421EF08F0010AD8B427EF2D
:1011700008F0030AD8B42DEF08F0010AD8B433EF11
:1011800008F03B0AD8B439EF08F0010AD8B43EEFB2
:1011900008F0030AD8B443EF08F0010AD8B448EFC6
:1011A00008F0070AD8B44DEF08F0010AD8B452EF9E
:1011B00008F0150AD8B457EF08F0010AD8B45CEF6C
:1011C00008F0030AD8B461EF08F066EF08F00750A2
:1011D000D8B4EDEF08F0EFEF08F0F0EF08F0362AA2
:1011E000085012000501656F65C539F50301F39FCD
:1011F00035EF09F0000E0301E76FF80EF51758EF11
:1012000009F0020E0301E76FF551F80B0309F56FC2
:10121000F5518F0B1009F56F58EF09F0040E03011B
:10122000E76FF551F80B0309F56FF5518F0B2009A6
:10123000F56F58EF09F0080E0301E76FF551F80B51
:101240000309F56FF5518F0B3009F56F58EF09F071
:10125000100E0301E76FF551F80B0309F56FF55117
:101260008F0B4009F56F58EF09F039500F0B05014E
:10127000636F646B6451000AD8B441EF09F058EF12
:1012800009F06351000AD8B4FAEF08F0010AD8B4A3
:1012900001EF09F0030AD8B40EEF09F0010AD8B43F
:1012A0001BEF09F0070AD8B428EF09F058EF09F04E
:1012B0003938E832E832030B4DEC10F06CEF09F0EE
:1012C000F00E0301F8178DEF09F00301F851F00B50
:1012D0000309F86F8DEF09F03938E832E832030B73
:1012E0000501636F646B6451000AD8B47AEF09F0AA
:1012F0008DEF09F06351000AD8B460EF09F0010ADC
:10130000D8B465EF09F0030AD8B465EF09F0010A13
:10131000D8B465EF09F08DEF09F00301F38F1200E7
:101320000E6E0EC539F50301F39FCDEF09F0000EE7
:10133000E76FF80EF517EFEF09F0020EE76FF551C2
:10134000F80B0309F56FF5518F0B1009F56FEFEFEF
:1013500009F0040EE76FF551F80B0309F56FF5512D
:101360008F0B2009F56FEFEF09F0080EE76FF551CD
:10137000F80B0309F56FF5518F0B3009F56FEFEF9F
:1013800009F0100EE76FF551F80B0309F56FF551F1
:101390008F0B4009F56FEFEF09F039500F0B0C6E12
:1013A0000D6A0D50000AD8B4D8EF09F0EFEF09F03C
:1013B0000C50000AD8B497EF09F0010AD8B49DEF99
:1013C00009F0030AD8B4A9EF09F0010AD8B4B5EFBF
:1013D00009F0070AD8B4C1EF09F0EFEF09F0393886
:1013E000E832E832030B8BEC10F003EF0AF0F00E5A
:1013F0000301F81723EF0AF00301F851F00B03097A
:10140000F86F23EF0AF03938E832E832030B0C6E3C
:101410000D6A0D50000AD8B410EF0AF023EF0AF05D
:101420000C50000AD8B4F7EF09F0010AD8B4FCEF69
:1014300009F0030AD8B4FCEF09F0010AD8B4FCEFB4
:1014400009F023EF0AF00301F38F12000D6E31EF64
:101450000AF0010E0E6EAEEF0AF0000E0E6EAEEF49
:101460000AF00D500B6E0C6A0C50000AD8B43BEF1A
:101470000AF02DEF0AF00B50000AD8B429EF0AF059
:10148000010AD8B429EF0AF0030AD8B429EF0AF008
:10149000060AD8B429EF0AF0010AD8B429EF0AF0F5
:1014A000030AD8B429EF0AF0010AD8B429EF0AF0E8
:1014B000170AD8B429EF0AF0010AD8B429EF0AF0C4
:1014C000030AD8B429EF0AF0010AD8B429EF0AF0C8
:1014D000070AD8B429EF0AF0010AD8B429EF0AF0B4
:1014E000030AD8B429EF0AF0010AD8B429EF0AF0A8
:1014F0000F0AD8B429EF0AF0010AD8B429EF0AF08C
:10150000030AD8B429EF0AF0010AD8B429EF0AF087
:101510003B0AD8B429EF0AF0010AD8B429EF0AF03F
:10152000030AD8B429EF0AF0010AD8B429EF0AF067
:10153000070AD8B429EF0AF0010AD8B429EF0AF053
:10154000150AD8B429EF0AF0010AD8B429EF0AF035
:10155000030AD8B429EF0AF02DEF0AF00E50D8B4E0
:10156000B4EF0AF0B6EF0AF0B8EF0AF00DC536F5A1
:101570000E5012006FEC0BF025EC10F0400E050140
:101580006A6FCFB8C6EF0AF0CAEF0AF0696B692B31
:10159000CCEF0AF00501696BD89069356A13D0B0B9
:1015A000D4EF0AF0D7EF0AF0010ED8EF0AF0000EE0
:1015B0006A136A51BBEC0EF0010E0501626F050E55
:1015C000636F030E646F010E7CEC0FF029EC11F0D9
:1015D0001EEC0BF0ECEC0FF0680E0501626F200EB4
:1015E000636FA6EC10F079EC10F042EC10F0E1EC37
:1015F0000DF05EEC0FF0D8EC0FF0400E0501626FBD
:10160000220E636FA1EC10F0C4EC0FF0440E050144
:10161000626F220E636F9CEC10F0D0EC0CF0480E61
:101620000501626F220E636FABEC10F04C0E0501EA
:10163000626F220E636FB0EC10F01200000E696E44
:10164000000E786E000E876E000E606E000E6F6EDC
:10165000000E7E6E050E616E050E706E050E7F6EBD
:10166000000E656E000E746E000E836E000E626ECC
:10167000000E716E000E806E270E646E100E636E8B
:10168000270E736E100E726E270E826E100E816E14
:10169000010E6C6E770E6B6E010E6E6E770E6D6EB8
:1016A000010E7B6E770E7A6E010E7D6E770E7C6E6C
:1016B000010E8A6E770E896E010E8C6E770E8B6E20
:1016C000000E686E000E776E000E866E000E6A6E5B
:1016D000000E796E000E886E070E9D6E1200C88097
:1016E000C78804011091089909891181C79CC89283
:1016F000089D1093BF9CC092C690C6920091009323
:10170000BE90BE92C6840085C78A089B098B0D0EC9
:101710000201616F04011085009B0099028B028910
:10172000C69AC698050E0201706F040E716F220EE4
:10173000066F210E056F0401039B0399048B048936
:10174000C79EBF9E0F0E0201106FC89EC09E0E0E58
:10175000186FC89CC09C0D0E176FC896C0960C0ED3
:10176000146FC898C0980B0E156FC89AC09A0A0ECD
:10177000166F040110851200E2EF0BF00BC56BF43D
:101780000CC56CF407EF0CF00BC56DF40CC56EF4D2
:1017900007EF0CF00BC57AF40CC57BF407EF0CF0E7
:1017A0000BC57CF40CC57DF407EF0CF00BC589F478
:1017B0000CC58AF407EF0CF00BC58BF40CC58CF448
:1017C00007EF0CF00D500E6E0F6A0F50000AD8B4E0
:1017D000ECEF0BF007EF0CF00E50010AD8B4BEEF9F
:1017E0000BF0030AD8B4C4EF0BF0010AD8B4CAEF67
:1017F0000BF0070AD8B4D0EF0BF0010AD8B4D6EF3B
:101800000BF0030AD8B4DCEF0BF007EF0CF012007A
:10181000036E046824EF0CF06BC404F549EF0CF080
:101820006DC404F549EF0CF07AC404F549EF0CF0EF
:101830007CC404F549EF0CF089C404F549EF0CF0C1
:101840008BC404F549EF0CF00350016E026A02509C
:10185000000AD8B42EEF0CF049EF0CF00150010A49
:10186000D8B40CEF0CF0030AD8B410EF0CF0010A56
:10187000D8B414EF0CF0070AD8B418EF0CF0010A32
:10188000D8B41CEF0CF0030AD8B420EF0CF049EFE9
:101890000CF004501200036E046867EF0CF06CC487
:1018A00004F58CEF0CF06EC404F58CEF0CF07BC4E7
:1018B00004F58CEF0CF07DC404F58CEF0CF08AC4B9
:1018C00004F58CEF0CF08CC404F58CEF0CF0035095
:1018D000016E026A0250000AD8B471EF0CF08CEF6E
:1018E0000CF00150010AD8B44FEF0CF0030AD8B441
:1018F00053EF0CF0010AD8B457EF0CF0070AD8B434
:101900005BEF0CF0010AD8B45FEF0CF0030AD8B417
:1019100063EF0CF08CEF0CF004501200FAC460F589
:10192000FBC461F56EEC10F00009D8B49AEF0CF02E
:101930009CEF0CF0B4EF0CF027502810D8B4A3EFB4
:101940000CF0A5EF0CF0CAEF0CF002D8B2EF0CF0DF
:101950000500FA6E2750FD6E2850FE6EF850FF6E9F
:10196000FA501200CAEF0CF025502610D8B4BBEF85
:101970000CF0BDEF0CF0CAEF0CF002D8CAEF0CF07F
:101980000500FA6E2550FD6E2650FE6EF850FF6E73
:10199000FA501200B89A61C5FBF460C5FAF4110060
:1019A000000E0001D56F000ED66FD651F80B050959
:1019B000D66F000ED76F000ED86F0D0EDA6F000EC7
:1019C000DC6FDC8B000EDD6FDD83000EDE6F000E42
:1019D000DF6FD68F010ED56F000ED66FD651F80B84
:1019E0000509D66FD689D687000ED76FD783000E2C
:1019F000D86F220ED96F0D0EDA6F000EDC6FDC8B04
:101A0000000EDD6FDD81DD85000EDE6F000EDF6F05
:101A1000D68FB89AAD8A12000B6E0BC50CF50CAEC2
:101A200014EF0DF016EF0DF01BEF0DF0C08258EC27
:101A300010F01EEF0DF0C092C4EC10F00CA423EFD8
:101A40000DF025EF0DF02AEF0DF0BF8C63EC10F0D8
:101A50002DEF0DF0BF9CC9EC10F00CA232EF0DF091
:101A600034EF0DF037EF0DF0BE8238EF0DF0BE927F
:101A70000CA03DEF0DF03FEF0DF042EF0DF0BE80FA
:101A800043EF0DF0BE901200FAC416F5FBC417F533
:101A90008AC219F533503410D8B451EF0DF053EF1A
:101AA0000DF073EF0DF002D861EF0DF00500FA6E46
:101AB0003350FD6E3450FE6EF850FF6EFA501950E0
:101AC0001200E806D8A467EF0DF06AEF0DF0010EE2
:101AD0006BEF0DF0000E186E18B003D00201959D4B
:101AE00002D00201958DBA9017C5FBF416C5FAF421
:101AF00011000D6E90EF0DF0820E0301EC6FADEF53
:101B00000DF08D0E0301EC6FADEF0DF03B0E0301F8
:101B1000EC6FADEF0DF03A0E0301EC6FADEF0DF091
:101B20000D500B6E0C6A0C50000AD8B49AEF0DF0F1
:101B3000ADEF0DF00B50010AD8B47CEF0DF0030AA5
:101B4000D8B481EF0DF0010AD8B486EF0DF0070A82
:101B5000D8B48BEF0DF0ADEF0DF01200820E030143
:101B6000EC19D8A4B6EF0DF0B8EF0DF0BBEF0DF007
:101B7000010EE0EF0DF08D0EEC19D8A4C2EF0DF0C0
:101B8000C4EF0DF0C7EF0DF0020EE0EF0DF03B0ECD
:101B9000EC19D8A4CEEF0DF0D0EF0DF0D3EF0DF08F
:101BA000030EE0EF0DF03A0EEC19D8A4DAEF0DF0C9
:101BB000DCEF0DF0DFEF0DF0040EE0EF0DF0000EA6
:101BC0001200000E0301F36FF389F351F30B0409C4
:101BD000F36F000EF46F000EF56F000EF66F070E38
:101BE000F613000EF86F820EEC6F000EF26F000E0F
:101BF000F16F000EEF6F020EEE6F000EF06F190E18
:101C0000F96F000ED86F000E396EF00E391639508C
:101C10003F0B8009396E3950F2EC08F0B590AA807C
:101C20001200BAEC0AF02BEC11F02AEC11F05A0E6B
:101C30000501626F1F0E636FBAEC10F0EC0E050128
:101C4000626F210E636FBFEC10F0BA0E0501626F78
:101C5000210E636FB5EC10F00AEC11F008EC11F0F6
:101C60000009D8B436EF0EF038EF0EF02EEF0EF07C
:101C7000E2EC10F02EEF0EF05DEF00F0FAC41AF572
:101C8000FBC41BF502019AA548EF0EF04AEF0EF0D7
:101C900065EF0EF08C69959D99852F503010D8B462
:101CA00054EF0EF056EF0EF063EF0EF002D863EF34
:101CB0000EF00500FA6E2F50FD6E3050FE6EF8509B
:101CC000FF6EFA50120002019A95BA941BC5FBF4FC
:101CD0001AC5FAF411000C6E0CC537F50001A39F6C
:101CE00037A675EF0EF077EF0EF07FEF0EF0A387BB
:101CF000A4978F0EA5173F0EA61792EF0EF0A3978D
:101D00003750070B0B6E0B3AA4510B188F0B0B18A7
:101D1000A46FA487A5518F0B1009A56FA6513F0B87
:101D20008009A66FA38F1200FAC409F5FBC40AF557
:101D300031503210D8B49FEF0EF0A1EF0EF0B2EF99
:101D40000EF002D8AEEF0EF00500FA6E3150FD6EC7
:101D50003250FE6EF850FF6EFA50120002018B6F87
:101D6000B5EF0EF0000E02018B6FBA920AC5FBF4BC
:101D700009C5FAF411000501626F000E0201946FAB
:101D8000F80E9417000E956F000E9B6F9B85010E49
:101D90009E6F9F0E9D6F8C69050162516225020145
:101DA000906F000E976F978597819783BA94BA903A
:101DB000BA92BA96AF84AF80AF82AF86948F12008A
:101DC000FAC41DF5FBC41EF53A503B10D8B4EBEF36
:101DD0000EF0EDEF0EF0FAEF0EF002D8FAEF0EF083
:101DE0000500FA6E3A50FD6E3B50FE6EF850FF6EE5
:101DF000FA501200B9961EC5FBF41DC5FAF4110085
:101E0000FAC41FF5FBC420F52B502C10D8B40BEFEF
:101E10000FF00DEF0FF01AEF0FF002D81AEF0FF0DE
:101E20000500FA6E2B50FD6E2C50FE6EF850FF6EC2
:101E3000FA501200B69620C5FBF41FC5FAF4110043
:101E4000FAC421F5FBC422F529502A10D8B42BEF8F
:101E50000FF02DEF0FF03AEF0FF002D83AEF0FF03E
:101E60000500FA6E2950FD6E2A50FE6EF850FF6E86
:101E7000FA501200BD9622C5FBF421C5FAF41100F8
:101E8000500EF66E220EF76E000EF86E0900F5C4C5
:101E90003CF50900F5C43DF501EE23F1170EEE6A9D
:101EA000E806FDE10401080E5D6F000E5E6F000E96
:101EB0005F6F000EF86E000111EF0EF0000E0001D2
:101EC000A36FA387A38B000EA46F070EA413000EAD
:101ED000A56FA551F80B0209A56F000EA66F3F0E66
:101EE000A617A651E00B0209A66F000EA76FA38FDD
:101EF000000E376E378612000501686F63C565F501
:101F00003F0E0501651762C566F5060E676FD8902E
:101F10006637672F87EF0FF06841800B66116511F8
:101F200002019C6F64C59FF21200000E016EC0A2F8
:101F300002D0018E01D0019EBFAC02D0018401D03D
:101F40000194BEA202D0018201D00192BEA002D0B3
:101F5000018001D0019001501200156E3D50D8B49F
:101F6000B4EF0FF0B6EF0FF0BEEF0FF0000E3D6EC6
:101F7000155026EC0AF0146EC2EF0FF0155081ECEC
:101F800006F0146E14501200000E03012B6F000EA9
:101F90002C6F2C51E00B08092C6F000E2D6F0A0ED0
:101FA0002D6F000E2E6F000E2A6FBD96B2861200A6
:101FB000000E03011E6F000E1F6F1F51E00B08097A
:101FC0001F6F000E206F0A0E206F000E216F000E93
:101FD0001D6FB696AB861200000E0401466F000E10
:101FE000476F4751E00B0209476F440E436F000EE5
:101FF000446F000E456FB996AE86468F1200000EF4
:10200000386E39500F0B0009D8A409EF10F00BEF10
:1020100010F00FEF10F00301EA5111EF10F003017F
:10202000E1511200000E386E39500F0B0009D8A490
:102030001CEF10F01EEF10F022EF10F00301EB5137
:1020400024EF10F00301E2511200000E0001396F7D
:102050003951F80B0409396F3951E70B1009396F01
:10206000040E3A6F398F1200BEA239EF10F03CEF28
:1020700010F0BE823DEF10F0BE92010E3C6E78C0B3
:102080001CF51200000E0001A26FA251F30B08090B
:10209000A26F000EA06FA28F12000501626F0301F4
:1020A000D75105016219FC0B62190301D76F1200A9
:1020B00003012A51D8B45FEF10F061EF10F062EF26
:1020C00010F02B8F120003011D51D8B46AEF10F0ED
:1020D0006CEF10F06DEF10F01E8F12000001D4B302
:1020E00074EF10F077EF10F0010E78EF10F0000EA3
:1020F0001200000E0301D76FD751F30B0409D76FFD
:10210000D78F1200000E366E000E246E000E236E66
:1021100005EC11F012000B6E0301D7510B18FC0BEC
:062120000B18D76F12003E
:10212800BE80020199859799979B979DBA96110051
:1021380062C529F563C52AF5120062C52BF563C58A
:102148002CF5120062C53AF563C53BF5120062C56D
:1021580027F563C528F5120062C525F563C526F580
:10216800120062C52FF563C530F5120062C533F55C
:1021780063C534F5120062C531F563C532F5120046
:1021880003012B9F000E296F120003011E9F000EF2
:102198001C6F12000BC581F40CC582F412000BC52C
:1021A80072F40CC573F412000BC563F40CC564F427
:1021B8001200010E3D6E82EC10F012000400000EB9
:1021C8003C6E12000B6E0BC52AF312000B6E0BC58A
:1021D8001DF312000B6E0BC5A0F01200010E386E35
:1021E800B5901100BEEC07F0120003012A5112004D
:1021F80003011D511200000E356E12000001A0519E
:102208001200070E9C6E12003C501200D68E12006F
:102218003550120081501200825012007250120084
:1022280073501200635012006450120037501200AD
:102238003850120039501200BF9C1200C092120090
:10224800C0921200C0821200010112001200120096
:02225800110073
:020000040020DA
:10000000FFFFFFFFFFFFFFFFFFFFFFFFFFFFFFFF00
:10001000FFFFFFFFFFFFFFFFFFFFFFFFFFFFFFFFF0
:10002000FFFFFFFFFFFFFFFFFFFFFFFFFFFFFFFFE0
:10003000FFFFFFFFFFFFFFFFFFFFFFFFFFFFFFFFD0
:020000040030CA
:090000008CFDFFF4EBC6FFFFFFCD
:00000001FF
