:040000005DEF00F0C0
:100008001D051D051D051D051D051D051D051D05D8
:100018001D051D051D051D051D051D051D051D05C8
:1000280002052E002E002E001D051D051D051D05AF
:100038001D051D051D051D041D051D051D051D05A9
:100048001D051D051D051D051D051D051D051D0598
:100058001D051D051D052E001D051D051D051D057C
:100068001D051D051D050D041D051D051D052E007D
:100078004103E803A803D8042E001D051D051D052E
:100088001D051D051D051D052E001D052E001D0540
:100098001D051D051D051D051D051D051D051D0548
:1000A8001D052E002E002D041D051D051D051D0511
:1000B800FF007AEF08F0136E010E126E14EF01F0D4
:1000C800000E9BEF01F0135049EC06F091EF01F0A0
:1000D8001350B7EC06F091EF01F0000E126E91EF9D
:1000E80001F01350F8EC09F091EF01F01350FCEC1B
:1000F80009F091EF01F013C527F5286A91EF01F097
:100108002750286E276A1350271227C50BF528C5D4
:100118000CF5010E0D6E2FEC05F091EF01F0275054
:10012800286E276A1350271227C50BF528C50CF52A
:10013800020E0D6E2FEC05F091EF01F02750286E9E
:10014800276A1350271227C50BF528C50CF5030E8F
:100158000D6E2FEC05F091EF01F02750286E276AFD
:100168001350271227C50BF528C50CF5040E0D6E84
:100178002FEC05F091EF01F02750286E276A1350F5
:10018800271227C50BF528C50CF5050E0D6E2FECAB
:1001980005F091EF01F02750286E276A13502712B7
:1001A80027C50BF528C50CF5060E0D6E2FEC05F0CE
:1001B80091EF01F02750286E276A1350271227C5A0
:1001C8000BF528C50CF5EAEC09F091EF01F0275082
:1001D800286E276A1350271227C50BF528C50CF57A
:1001E800E5EC09F091EF01F02750286E276A1350CB
:1001F800271227C50BF528C50CF5E0EC09F091EF9F
:1002080001F0135066EC03F091EF01F01350A7ECE6
:1002180007F091EF01F0135000EC0AF091EF01F0B4
:100228003650106E116A1150000AD8B41EEF01F052
:1002380071EF00F01050000AD8B464EF00F0010A22
:10024800D8B467EF00F0030AD8B46CEF00F0060AE0
:10025800D8B471EF00F0010AD8B471EF00F0030AC6
:10026800D8B475EF00F0010AD8B47AEF00F0170A95
:10027800D8B47FEF00F0010AD8B484EF00F0030A85
:10028800D8B47FEF00F0010AD8B493EF00F0070A62
:10029800D8B47FEF00F0010AD8B4A2EF00F0030A47
:1002A800D8B47FEF00F0010AD8B4B1EF00F00F0A1C
:1002B800D8B47FEF00F0010AD8B4C0EF00F0030A09
:1002C800D8B47FEF00F0010AD8B4CFEF00F03B0AB2
:1002D800D8B47FEF00F0010AD8B4DEEF00F0030ACB
:1002E800D8B47FEF00F0010AD8B4EBEF00F0070AAA
:1002F800D8B47FEF00F0010AD8B4F8EF00F0150A7F
:10030800D8B405EF01F0010AD8B40AEF01F0030AE6
:10031800D8B40FEF01F071EF00F01250D8B497EF96
:1003280001F099EF01F09AEF01F0362A125012000D
:10033800010E076E086848EF02F011EC0AF0CEECE7
:1003480008F0086E1EEC0AF0056ED8900534081205
:100358002EEC0AF00812C5EF02F0CEEC08F0086E99
:10036800C5EF02F0ECEC06F0086EC5EF02F04BECBE
:1003780009F0086EC5EF02F038EC09F0086EC5EF19
:1003880002F00BEC0AF0086EC5EF02F00EEC0AF072
:10039800086EC5EF02F0010E06EC06F0086EC5EF18
:1003A80002F0010EC3EC05F0086EC5EF02F0020E74
:1003B80006EC06F0086EC5EF02F0020EC3EC05F07D
:1003C800086EC5EF02F0030E06EC06F0086EC5EFE6
:1003D80002F0030EC3EC05F0086EC5EF02F0040E40
:1003E80006EC06F0086EC5EF02F0040EC3EC05F04B
:1003F800086EC5EF02F0050E06EC06F0086EC5EFB4
:1004080002F0050EC3EC05F0086EC5EF02F0060E0B
:1004180006EC06F0086EC5EF02F0060EC3EC05F018
:10042800086EC5EF02F02AEC0AF0086EC5EF02F07C
:1004380028EC0AF0086EC5EF02F026EC0AF0086E08
:10044800C5EF02F024EC0AF0086EC5EF02F022ECCA
:100458000AF0086EC5EF02F020EC0AF0086EC5EF4E
:1004680002F030EC0AF0086EC5EF02F02CEC0AF04E
:10047800086EC5EF02F014EC0AF0086EC5EF02F042
:10048800000E076EC5EF02F03650056E066A06507C
:10049800000AD8B452EF02F044EF02F00550000A07
:1004A800D8B4A1EF01F0010AD8B4B1EF01F0030A02
:1004B800D8B4B6EF01F0060AD8B4BBEF01F0010AD0
:1004C800D8B4C0EF01F0030AD8B4C5EF01F0010AAF
:1004D800D8B4CAEF01F0170AD8B4CFEF01F0010A77
:1004E800D8B4D5EF01F0030AD8B4DBEF01F0010A64
:1004F800D8B4E1EF01F0070AD8B4E7EF01F0010A38
:10050800D8B4EDEF01F0030AD8B4F3EF01F0010A13
:10051800D8B4F9EF01F00F0AD8B4FFEF01F0010ADF
:10052800D8B405EF02F0030AD8B40BEF02F0010AC1
:10053800D8B411EF02F03B0AD8B417EF02F0010A61
:10054800D8B41CEF02F0030AD8B421EF02F0010A74
:10055800D8B426EF02F0070AD8B42BEF02F0010A4C
:10056800D8B430EF02F0150AD8B435EF02F0010A1A
:10057800D8B43AEF02F0030AD8B43FEF02F044EFE0
:1005880002F00750D8B4CBEF02F0CDEF02F0CEEF77
:1005980002F0362A08501200266E26C539F50301E6
:1005A800F39F0DEF03F0000EE76FF80EF5172FEF2E
:1005B80003F0020EE76FF551F80B0309F56FF551DB
:1005C8008F0B1009F56F2FEF03F0040EE76FF5514D
:1005D800F80B0309F56FF5518F0B2009F56F2FEF15
:1005E80003F0080EE76FF551F80B0309F56FF551A5
:1005F8008F0B3009F56F2FEF03F0100EE76FF551F1
:10060800F80B0309F56FF5518F0B4009F56F2FEFC4
:1006180003F039500F0B246E256A2550000AD8B410
:1006280018EF03F02FEF03F02450000AD8B4D7EFE7
:1006380002F0010AD8B4DDEF02F0030AD8B4E9EFFA
:1006480002F0010AD8B4F5EF02F0070AD8B401EFB6
:1006580003F02FEF03F03938E832E832030B9FEC50
:1006680009F043EF03F0F00E0301F81763EF03F00E
:100678000301F851F00B0309F86F63EF03F0393801
:10068800E832E832030B246E256A2550000AD8B4F4
:1006980050EF03F063EF03F02450000AD8B437EFAB
:1006A80003F0010AD8B43CEF03F0030AD8B43CEFD6
:1006B80003F0010AD8B43CEF03F063EF03F0030141
:1006C800F38F12000E6E0EC539F50301F39FA3EFE9
:1006D80003F0000EE76FF80EF517C5EF03F0020EF2
:1006E800E76FF551F80B0309F56FF5518F0B1009FA
:1006F800F56FC5EF03F0040EE76FF551F80B03092A
:10070800F56FF5518F0B2009F56FC5EF03F0080E53
:10071800E76FF551F80B0309F56FF5518F0B3009A9
:10072800F56FC5EF03F0100EE76FF551F80B0309ED
:10073800F56FF5518F0B4009F56FC5EF03F0395090
:100748000F0B0C6E0D6A0D50000AD8B4AEEF03F013
:10075800C5EF03F00C50000AD8B46DEF03F0010A9E
:10076800D8B473EF03F0030AD8B47FEF03F0010A9B
:10077800D8B48BEF03F0070AD8B497EF03F0C5EFAE
:1007880003F03938E832E832030BA7EC09F0D9EF67
:1007980003F0F00E0301F817F9EF03F00301F85125
:1007A800F00B0309F86FF9EF03F03938E832E83253
:1007B800030B0C6E0D6A0D50000AD8B4E6EF03F077
:1007C800F9EF03F00C50000AD8B4CDEF03F0010A9A
:1007D800D8B4D2EF03F0030AD8B4D2EF03F0010A79
:1007E800D8B4D2EF03F0F9EF03F00301F38F12004E
:1007F8000D6E07EF04F0010E0E6E84EF04F0000E8C
:100808000E6E84EF04F00D500B6E0C6A0C50000A4B
:10081800D8B411EF04F003EF04F00B50000AD8B479
:10082800FFEF03F0010AD8B4FFEF03F0030AD8B4CE
:10083800FFEF03F0060AD8B4FFEF03F0010AD8B4BB
:10084800FFEF03F0030AD8B4FFEF03F0010AD8B4AE
:10085800FFEF03F0170AD8B4FFEF03F0010AD8B48A
:10086800FFEF03F0030AD8B4FFEF03F0010AD8B48E
:10087800FFEF03F0070AD8B4FFEF03F0010AD8B47A
:10088800FFEF03F0030AD8B4FFEF03F0010AD8B46E
:10089800FFEF03F00F0AD8B4FFEF03F0010AD8B452
:1008A800FFEF03F0030AD8B4FFEF03F0010AD8B44E
:1008B800FFEF03F03B0AD8B4FFEF03F0010AD8B406
:1008C800FFEF03F0030AD8B4FFEF03F0010AD8B42E
:1008D800FFEF03F0070AD8B4FFEF03F0010AD8B41A
:1008E800FFEF03F0150AD8B4FFEF03F0010AD8B4FC
:1008F800FFEF03F0030AD8B4FFEF03F003EF04F0AF
:100908000E50D8B48AEF04F08CEF04F08EEF04F0A8
:100918000DC536F50E501200000E696E000E786E89
:10092800000E876E000E606E000E6F6E000E7E6EFB
:10093800050E616E050E706E050E7F6E000E656EFB
:10094800000E746E000E836E000E626E000E716EE5
:10095800000E806E270E646E100E636E270E736E87
:10096800100E726E270E826E100E816E000E6C6E67
:10097800FA0E6B6E000E6E6EFA0E6D6E000E7B6ECA
:10098800FA0E7A6E000E7D6EFA0E7C6E000E8A6E7E
:10099800FA0E896E000E8C6EFA0E8B6E000E686E63
:1009A800000E776E000E866E000E6A6E000E796E6F
:1009B800000E886E070E9D6E12007BEC05F0400E4F
:1009C8000501646FCFB8EBEF04F0EFEF04F0636B51
:1009D800632BF1EF04F00501636BD8906335641362
:1009E800D0B0F9EF04F0FCEF04F0010EFDEF04F0D5
:1009F800000E64136451F7EC07F0010E236E050E28
:100A0800246E030E256E010EB6EC08F037EC0AF0E2
:100A180090EC04F025EC09F0BC0E236E120E246E47
:100A2800C2EC09F08DEC09F06CEC09F01FEC07F052
:100A380098EC08F011EC09F0640E236E140E246E85
:100A4800BDEC09F0FDEC08F0680E236E140E246E60
:100A5800B8EC09F0120055EF05F00BC56BF40CC5A6
:100A68006CF47AEF05F00BC56DF40CC56EF47AEFF3
:100A780005F00BC57AF40CC57BF47AEF05F00BC5CD
:100A88007CF40CC57DF47AEF05F00BC589F40CC530
:100A98008AF47AEF05F00BC58BF40CC58CF47AEF69
:100AA80005F00D500E6E0F6A0F50000AD8B45FEFB4
:100AB80005F07AEF05F00E50010AD8B431EF05F0D1
:100AC800030AD8B437EF05F0010AD8B43DEF05F0B2
:100AD800070AD8B443EF05F0010AD8B449EF05F086
:100AE800030AD8B44FEF05F07AEF05F01200C8807A
:100AF800C78804011091089909891181C79CC89277
:100B0800089D1093BF9CC092C690C6920091009316
:100B1800BE90BE92C684C78A0085088B1085009B4C
:100B28000099028B0289C69AC698050E0201706F59
:100B3800040E716F220E066F210E056F0401039BD0
:100B48000399048B0489C79EBF9E0F0E0201106F84
:100B5800C89EC09E0E0E186FC89CC09C0D0E176FC5
:100B6800C896C0960C0E146FC898C0980B0E156FD7
:100B7800C89AC09A0A0E166F040110851200036EF7
:100B88000468DFEF05F06BC404F504EF06F06DC4EC
:100B980004F504EF06F07AC404F504EF06F07CC40B
:100BA80004F504EF06F089C404F504EF06F08BC4DD
:100BB80004F504EF06F00350016E026A0250000AC1
:100BC800D8B4E9EF05F004EF06F00150010AD8B4F3
:100BD800C7EF05F0030AD8B4CBEF05F0010AD8B483
:100BE800CFEF05F0070AD8B4D3EF05F0010AD8B45F
:100BF800D7EF05F0030AD8B4DBEF05F004EF06F0F1
:100C080004501200036E046822EF06F06CC404F569
:100C180047EF06F06EC404F547EF06F07BC404F511
:100C280047EF06F07DC404F547EF06F08AC404F5E3
:100C380047EF06F08CC404F547EF06F00350016E49
:100C4800026A0250000AD8B42CEF06F047EF06F00B
:100C58000150010AD8B40AEF06F0030AD8B40EEF1F
:100C680006F0010AD8B412EF06F0070AD8B416EF56
:100C780006F0010AD8B41AEF06F0030AD8B41EEF3A
:100C880006F047EF06F0045012000B6E0BC50CF58A
:100C98000CAE51EF06F053EF06F058EF06F0C082A5
:100CA80077EC09F05BEF06F0C092D6EC09F00CA4E3
:100CB80060EF06F062EF06F067EF06F0BF8C82EC9B
:100CC80009F06AEF06F0BF9CDBEC09F00CA26FEFAD
:100CD80006F071EF06F074EF06F0BE8275EF06F0CD
:100CE800BE920CA07AEF06F07CEF06F07FEF06F0DC
:0A0CF800BE8080EF06F0BE901200EF
:100D0400FAC416F5FBC417F58AC219F5335034102A
:100D1400D8B48FEF06F091EF06F0B1EF06F002D8E9
:100D24009FEF06F00500FA6E3350FD6E3450FE6EF0
:100D3400F850FF6EFA5019501200E806D8A4A5EF37
:100D440006F0A8EF06F0010EA9EF06F0000E186EEB
:100D540018B003D00201959D02D00201958DBA907E
:100D640017C5FBF416C5FAF411000D6ECEEF06F0AC
:100D7400820E0301EC6FEBEF06F08D0E0301EC6FB6
:100D8400EBEF06F03B0E0301EC6FEBEF06F03A0ECF
:100D94000301EC6FEBEF06F00D500B6E0C6A0C5078
:100DA400000AD8B4D8EF06F0EBEF06F00B50010AB6
:100DB400D8B4BAEF06F0030AD8B4BFEF06F0010ABC
:100DC400D8B4C4EF06F0070AD8B4C9EF06F0EBEFC5
:100DD40006F01200820E0301EC19D8A4F4EF06F019
:100DE400F6EF06F0F9EF06F0010E1EEF07F08D0E98
:100DF400EC19D8A400EF07F002EF07F005EF07F0B5
:100E0400020E1EEF07F03B0EEC19D8A40CEF07F00E
:100E14000EEF07F011EF07F0030E1EEF07F03A0E86
:100E2400EC19D8A418EF07F01AEF07F01DEF07F03C
:100E3400040E1EEF07F0000E1200000E0301F36F04
:100E4400F389F351F30B0409F36F000EF46F000EF2
:100E5400F56F000EF66F070EF613000EF86F820E94
:100E6400EC6F000EF26F000EF16F000EEF6F020ECA
:100E7400EE6F000EF06F190EF96F000ED86F000EB2
:100E8400396EF00E391639503F0B8009396E3950DE
:0A0E9400D0EC02F0B590AA80120025
:100EA000FAC41AF5FBC41BF502019AA55AEF07F024
:100EB0005CEF07F077EF07F08C69959D99852F50CF
:100EC0003010D8B466EF07F068EF07F075EF07F061
:100ED00002D875EF07F00500FA6E2F50FD6E305006
:100EE000FE6EF850FF6EFA50120002019A95BA9405
:100EF0001BC5FBF41AC5FAF41100E1EC04F039EC5F
:100F00000AF038EC0AF0CC0E236E110E246ECCECF5
:100F100009F0100E236E140E246ED1EC09F0DE0ED3
:100F2000236E130E246EC7EC09F01CEC0AF01AECC9
:100F30000AF00009D8B49FEF07F0A1EF07F097EF90
:100F400007F0F4EC09F097EF07F05DEF00F00C6E9E
:100F50000CC537F50001A39F37A6B1EF07F0B3EF3B
:100F600007F0BBEF07F0A387A4978F0EA5173F0EDE
:100F7000A617CEEF07F0A3973750070B0B6E0B3A6F
:100F8000A4510B188F0B0B18A46FA487A5518F0BBE
:100F90001009A56FA6513F0B8009A66FA38F120001
:100FA000FAC409F5FBC40AF531503210D8B4DBEFAE
:100FB00007F0DDEF07F0EEEF07F002D8EAEF07F0F9
:100FC0000500FA6E3150FD6E3250FE6EF850FF6E25
:100FD000FA50120002018B6FF1EF07F0000E0201D0
:100FE0008B6FBA920AC5FBF409C5FAF41100236E9F
:100FF000000E0201946FF80E9417000E956F000E0C
:101000009B6F9B85010E9E6F9F0E9D6F8C69235079
:101010002324906F000E976F978597819783BA94DA
:10102000BA90BA92BA96AF84AF80AF82AF86948FEF
:021030001200AC
:10103400FAC41DF5FBC41EF53A503B10D8B425EF95
:1010440008F027EF08F034EF08F002D834EF08F086
:101054000500FA6E3A50FD6E3B50FE6EF850FF6E7E
:10106400FA501200B9961EC5FBF41DC5FAF411001E
:10107400FAC41FF5FBC420F52B502C10D8B445EF4F
:1010840008F047EF08F054EF08F002D854EF08F0E6
:101094000500FA6E2B50FD6E2C50FE6EF850FF6E5C
:1010A400FA501200B69620C5FBF41FC5FAF41100DD
:1010B400FAC421F5FBC422F529502A10D8B465EFEF
:1010C40008F067EF08F074EF08F002D874EF08F046
:1010D4000500FA6E2950FD6E2A50FE6EF850FF6E20
:1010E400FA501200BD9622C5FBF421C5FAF4110092
:1010F4006C0EF66E140EF76E000EF86E0900F5C451
:101104003CF50900F5C43DF501EE27F1130EEE6A36
:10111400E806FDE10401080E5D6F000E5E6F000E2F
:101124005F6F000EF86E00017DEF07F0000E000106
:10113400A36FA387A38B000EA46F070EA413000E46
:10114400A56FA551F80B0209A56F000EA66F3F0EFF
:10115400A617A651E00B0209A66F000EA76FA38F76
:10116400000E376E37861200266E24C560F53F0EDA
:101174000501601723C561F5060E626FD8906137CB
:10118400622FC0EF08F02640800B6111601102014C
:101194009C6F25C59FF21200000E016EC0A202D002
:1011A400018E01D0019EBFAC02D0018401D0019414
:1011B400BEA202D0018201D00192BEA002D0018061
:1011C40001D0019001501200156E3D50D8B4EDEFDE
:1011D40008F0EFEF08F0F7EF08F0000E3D6E155041
:1011E400FCEC03F0146EFBEF08F015505FEC00F01C
:1011F400146E14501200000E03012B6F000E2C6F9E
:101204002C51E00B08092C6F000E2D6F0A0E2D6F68
:10121400000E2E6F000E2A6FBD96B2861200000ECD
:1012240003011E6F000E1F6F1F51E00B08091F6F93
:10123400000E206F0A0E206F000E216F000E1D6F2E
:10124400B696AB861200000E0401466F000E476F7F
:101254004751E00B0209476F440E436F000E446F81
:10126400000E456FB996AE86468F1200000E386E9A
:1012740039500F0B0009D8A442EF09F044EF09F0EC
:1012840048EF09F00301EA514AEF09F00301E15183
:101294001200000E386E39500F0B0009D8A455EF18
:1012A40009F057EF09F05BEF09F00301EB515DEF33
:1012B40009F00301E2511200BEA263EF09F066EFE8
:1012C40009F0BE8267EF09F0BE92010E3C6E78C051
:1012D4001CF51200000E0001A26FA251F30B0809C5
:1012E400A26F000EA06FA28F120003012A51D8B47E
:1012F4007EEF09F080EF09F081EF09F02B8F1200E7
:1013040003011D51D8B489EF09F08BEF09F08CEF7C
:1013140009F01E8F1200000E0301D76FD751F30B93
:101324000409D76FD78F1200000E366E000E286E98
:10133400000E276E17EC0AF01200236E0301D7513A
:101344002318FC0B2318D76F12000B6E0301D7511F
:0A1354000B18FC0B0B18D76F1200EA
:10136000BE80020199859799979B979DBA96110027
:1013700023C529F524C52AF5120023C52BF524C55C
:101380002CF5120023C53AF524C53BF5120023C500
:101390002FF524C530F5120023C533F524C534F5E7
:1013A000120023C531F524C532F5120003012B9F2D
:1013B000000E296F120003011E9F000E1C6F120009
:1013C0000BC581F40CC582F412000BC572F40CC578
:1013D00073F412000BC563F40CC564F41200010E23
:1013E0003D6E96EC09F012000400000E3C6E1200F7
:1013F0000B6E0BC52AF312000B6E0BC51DF312000A
:101400000B6E0BC5A0F01200010E386EB5901100E6
:101410009CEC01F0120003012A51120003011D513E
:101420001200000E356E12000001A0511200070ECE
:101430009C6E12003C501200D68E120035501200E5
:10144000815012008250120072501200735012002C
:1014500063501200645012003750120038501200CE
:1014600039501200BF9C1200C092120001011200FC
:0614700012001200110041
:020000040020DA
:10000000FFFFFFFFFFFFFFFFFFFFFFFFFFFFFFFF00
:10001000FFFFFFFFFFFFFFFFFFFFFFFFFFFFFFFFF0
:10002000FFFFFFFFFFFFFFFFFFFFFFFFFFFFFFFFE0
:10003000FFFFFFFFFFFFFFFFFFFFFFFFFFFFFFFFD0
:020000040030CA
:090000008CFDFFF4EBC6FFFFFFCD
:00000001FF
