:040000005DEF00F0C0
:10000800EA04EA04EA04EA04EA04EA04EA04EA0478
:10001800EA04EA04EA04EA04EA04EA04EA04EA0468
:10002800D0042E002E002E00EA04EA04EA04EA04B2
:10003800EA04EA04EA04F303EA04EA04EA04EA0440
:10004800EA04EA04EA04EA04EA04EA04EA04EA0438
:10005800EA04EA04EA042E00EA04EA04EA04EA04E8
:10006800EA04EA04EA04E303EA04EA04EA042E00E0
:100078001903BC036603EA042E00EA04EA04EA044E
:10008800EA04EA04EA04EA042E00EA042E00EA0478
:10009800EA04EA04EA04EA04EA04EA04EA04EA04E8
:1000A800EA042E002E000304EA04EA04EA04EA043F
:1000B800FF0026EF08F0136E010E126E0EEF01F02E
:1000C800000E91EF01F0135067EC06F087EF01F096
:1000D8001350F9EC06F087EF01F0000E126E87EF6F
:1000E80001F0135098EC09F087EF01F013509CECE5
:1000F80009F087EF01F013C529F52A6A87EF01F0A7
:1001080029502A6E296A1350291229C50BF52AC5C8
:100118000CF5010E0D6ECAEC04F087EF01F0000E2D
:100128002A6E3F0E296E29C50BF52AC50CF5020E5D
:100138000D6ECAEC04F087EF01F029502A6E296A87
:100148001350291229C50BF52AC50CF5030E0D6E9F
:10015800CAEC04F087EF01F029502A6E296A13507F
:10016800291229C50BF52AC50CF5040E0D6ECAEC2B
:1001780004F087EF01F029502A6E296A13502912DA
:1001880029C50BF52AC50CF5050E0D6ECAEC04F051
:1001980087EF01F029502A6E296A1350291229C5C0
:1001A8000BF52AC50CF5060E0D6ECAEC04F087EFA8
:1001B80001F029502A6E296A1350291229C50BF516
:1001C8002AC50CF58AEC09F087EF01F029502A6E50
:1001D800296A1350291229C50BF52AC50CF585EC97
:1001E80009F087EF01F029502A6E296A1350291265
:1001F80029C50BF52AC50CF580EC09F087EF01F04D
:10020800135053EC03F087EF01F013504FEC07F055
:1002180087EF01F03650106E116A1150000AD8B4F9
:1002280018EF01F071EF00F01050000AD8B464EF35
:1002380000F0010AD8B467EF00F0030AD8B46CEFF5
:1002480000F0060AD8B471EF00F0010AD8B471EFD3
:1002580000F0030AD8B475EF00F0010AD8B47AEFB9
:1002680000F0170AD8B47FEF00F0010AD8B484EF81
:1002780000F0030AD8B47FEF00F0010AD8B493EF76
:1002880000F0070AD8B47FEF00F0010AD8B4A1EF54
:1002980000F0030AD8B47FEF00F0010AD8B4B0EF39
:1002A80000F00F0AD8B47FEF00F0010AD8B4BFEF0E
:1002B80000F0030AD8B47FEF00F0010AD8B4CEEFFB
:1002C80000F03B0AD8B47FEF00F0010AD8B4DDEFA4
:1002D80000F0030AD8B47FEF00F0010AD8B4EAEFBF
:1002E80000F0070AD8B47FEF00F0010AD8B4F7EF9E
:1002F80000F0150AD8B404EF01F0010AD8B409EFE8
:1003080001F071EF00F01250D8B48DEF01F08FEFCB
:1003180001F090EF01F0362A12501200010E076E1C
:10032800086839EF02F0ADEC09F096EC08F0086EB9
:10033800B7EC09F0056ED89005340812C7EC09F03F
:100348000812B2EF02F096EC08F0086EB2EF02F075
:100358009FEC07F0086EB2EF02F013EC09F0086E9C
:10036800B2EF02F000EC09F0086EB2EF02F0A7EC71
:1003780009F0086EB2EF02F0AAEC09F0086EB2EFCD
:1003880002F0010EEFEC05F0086EB2EF02F0010E7C
:10039800ACEC05F0086EB2EF02F0020EEFEC05F0DF
:1003A800086EB2EF02F0020EACEC05F0086EB2EF88
:1003B80002F0030EEFEC05F0086EB2EF02F0030E48
:1003C800ACEC05F0086EB2EF02F0040EEFEC05F0AD
:1003D800086EB2EF02F0040EACEC05F0086EB2EF56
:1003E80002F0050EEFEC05F0086EB2EF02F0050E14
:1003F800ACEC05F0086EB2EF02F0060EEFEC05F07B
:10040800086EB2EF02F0060EACEC05F0086EB2EF23
:1004180002F0C3EC09F0086EB2EF02F0C1EC09F08B
:10042800086EB2EF02F0BFEC09F0086EB2EF02F00E
:10043800BDEC09F0086EB2EF02F0BBEC09F0086EF3
:10044800B2EF02F0B9EC09F0086EB2EF02F0C9ECB5
:1004580009F0086EB2EF02F0C5EC09F0086EB2EFD1
:1004680002F0000E076EB2EF02F03650056E066A13
:100478000650000AD8B443EF02F035EF02F00550F9
:10048800000AD8B497EF01F0010AD8B4A7EF01F039
:10049800030AD8B4ACEF01F0060AD8B4B1EF01F002
:1004A800010AD8B4B6EF01F0030AD8B4BBEF01F0E3
:1004B800010AD8B4C0EF01F0170AD8B4C5EF01F0AB
:1004C800010AD8B4CBEF01F0030AD8B4D1EF01F098
:1004D800010AD8B4D7EF01F0070AD8B4DDEF01F06C
:1004E800010AD8B4E3EF01F0030AD8B4E9EF01F048
:1004F800010AD8B4EFEF01F00F0AD8B4F5EF01F014
:10050800010AD8B4FBEF01F0030AD8B401EF02F0F6
:10051800010AD8B407EF02F03B0AD8B40DEF02F095
:10052800010AD8B412EF02F0030AD8B417EF02F0A8
:10053800010AD8B41CEF02F0070AD8B421EF02F080
:10054800010AD8B426EF02F0150AD8B42BEF02F04E
:10055800010AD8B430EF02F035EF02F00750D8B4F2
:10056800B8EF02F0BAEF02F0BBEF02F0362A0850FB
:100578001200266E26C539F50301F39FFAEF02F043
:10058800000EE76FF80EF5171CEF03F0020EE76F89
:10059800F551F80B0309F56FF5518F0B1009F56F3D
:1005A8001CEF03F0040EE76FF551F80B0309F56F24
:1005B800F5518F0B2009F56F1CEF03F0080EE76F5C
:1005C800F551F80B0309F56FF5518F0B3009F56FED
:1005D8001CEF03F0100EE76FF551F80B0309F56FE8
:1005E800F5518F0B4009F56F1CEF03F039500F0BD5
:1005F800246E256A2550000AD8B405EF03F01CEFD5
:1006080003F02450000AD8B4C4EF02F0010AD8B4A9
:10061800CAEF02F0030AD8B4D6EF02F0010AD8B440
:10062800E2EF02F0070AD8B4EEEF02F01CEF03F095
:100638003938E832E832030B48EC09F030EF03F0C0
:10064800F00E0301F81750EF03F00301F851F00B17
:100658000309F86F50EF03F03938E832E832030B3A
:10066800246E256A2550000AD8B43DEF03F050EFF8
:1006780003F02450000AD8B424EF03F0010AD8B4D8
:1006880029EF03F0030AD8B429EF03F0010AD8B41C
:1006980029EF03F050EF03F00301F38F12000E6E01
:1006A8000EC539F50301F39F90EF03F0000EE76FD5
:1006B800F80EF517B2EF03F0020EE76FF551F80BDD
:1006C8000309F56FF5518F0B1009F56FB2EF03F0C1
:1006D800040EE76FF551F80B0309F56FF5518F0B11
:1006E8002009F56FB2EF03F0080EE76FF551F80B2C
:1006F8000309F56FF5518F0B3009F56FB2EF03F071
:10070800100EE76FF551F80B0309F56FF5518F0BD4
:100718004009F56FB2EF03F039500F0B0C6E0D6AFC
:100728000D50000AD8B49BEF03F0B2EF03F00C5061
:10073800000AD8B45AEF03F0010AD8B460EF03F006
:10074800030AD8B46CEF03F0010AD8B478EF03F0C9
:10075800070AD8B484EF03F0B2EF03F03938E8326F
:10076800E832030B50EC09F0C6EF03F0F00E03017A
:10077800F817E6EF03F00301F851F00B0309F86FDF
:10078800E6EF03F03938E832E832030B0C6E0D6AF5
:100798000D50000AD8B4D3EF03F0E6EF03F00C5085
:1007A800000AD8B4BAEF03F0010AD8B4BFEF03F0D7
:1007B800030AD8B4BFEF03F0010AD8B4BFEF03F0BF
:1007C800E6EF03F00301F38F12000D6EF4EF03F070
:1007D800010E0E6E6DEF04F0000E0E6E6DEF04F05C
:1007E8000D500B6E0C6A0C50000AD8B4FEEF03F0E3
:1007F800F0EF03F00B50000AD8B4ECEF03F0010A55
:10080800D8B4ECEF03F0030AD8B4ECEF03F0060A0F
:10081800D8B4ECEF03F0010AD8B4ECEF03F0030A04
:10082800D8B4ECEF03F0010AD8B4ECEF03F0170AE0
:10083800D8B4ECEF03F0010AD8B4ECEF03F0030AE4
:10084800D8B4ECEF03F0010AD8B4ECEF03F0070AD0
:10085800D8B4ECEF03F0010AD8B4ECEF03F0030AC4
:10086800D8B4ECEF03F0010AD8B4ECEF03F00F0AA8
:10087800D8B4ECEF03F0010AD8B4ECEF03F0030AA4
:10088800D8B4ECEF03F0010AD8B4ECEF03F03B0A5C
:10089800D8B4ECEF03F0010AD8B4ECEF03F0030A84
:1008A800D8B4ECEF03F0010AD8B4ECEF03F0070A70
:1008B800D8B4ECEF03F0010AD8B4ECEF03F0150A52
:1008C800D8B4ECEF03F0010AD8B4ECEF03F0F0EF82
:1008D80003F00E50D8B473EF04F075EF04F077EF1F
:1008E80004F00DC536F50E501200000E696E000EAC
:1008F800786E000E876E000E606E000E6F6E000E32
:100908007E6E040E616E040E706E040E7F6E000E15
:10091800656E000E746E000E836E000E626E000E21
:10092800716E000E806E020E646E6C0E636E020EA7
:10093800736E6C0E726E020E826E6C0E816E000EFD
:100948006C6E1F0E6B6E000E6E6E1F0E6D6E000EBF
:100958007B6E1F0E7A6E000E7D6E1F0E7C6E000E73
:100968008A6E1F0E896E000E8C6E1F0E8B6E000E27
:10097800686E000E776E000E866E000E6A6E000EB0
:10098800796E000E886E070E9D6E1200F0EF04F06F
:100998000BC56BF40CC56CF415EF05F0000E6E6E0C
:1009A8000BC56DF415EF05F00BC57AF40CC57BF497
:1009B80015EF05F00BC57CF40CC57DF415EF05F0BB
:1009C8000BC589F40CC58AF415EF05F00BC58BF43B
:1009D8000CC58CF415EF05F00D500E6E0F6A0F5014
:1009E800000AD8B4FAEF04F015EF05F00E50010A2A
:1009F800D8B4CCEF04F0030AD8B4D2EF04F0010A5B
:100A0800D8B4D8EF04F0070AD8B4DEEF04F0010A2E
:100A1800D8B4E4EF04F0030AD8B4EAEF04F015EF11
:100A280005F0B0EC09F0120064EC05F0400E050189
:100A3800626FCFB822EF05F026EF05F0616B612BEE
:100A480028EF05F00501616BD89061356213D0B0CD
:100A580030EF05F033EF05F0010E34EF05F0000E2E
:100A68006213625162EC08F0010E236E050E246ECB
:100A7800030E256E010E7DEC08F0D0EC09F079EC40
:100A880004F0EDEC08F04C0E236E120E246E62ECAE
:100A980009F067EC09F09BEC06F044EC08F0D9EC9F
:100AA80008F0960E236E130E246E5DEC09F0C5EC6B
:100AB80008F09A0E236E130E246E58EC09F01200FB
:100AC800C880C78804011091089909891181C79CB9
:100AD800C892089D1093BF9CC092C690C692009180
:100AE8000093BE90BE92C684C78A0085088B108585
:100AF800009B0099028B0289C69AC698050E0201CE
:100B0800706F040E716F220E066F210E056F0401BF
:100B1800039B0399048B0489C79EBF9E0A0E02019A
:100B2800106FC89EC09E0B0E186FC89CC09C0C0E00
:100B3800176FC896C0960D0E146FC898C0980E0E01
:100B4800156FC89AC09A0F0E166F0401108512000F
:100B5800036E0468C8EF05F06BC404F5EDEF05F00B
:100B68006DC404F5EDEF05F07AC404F5EDEF05F07A
:100B78007CC404F5EDEF05F089C404F5EDEF05F04C
:100B88008BC404F5EDEF05F00350016E026A0250C4
:100B9800000AD8B4D2EF05F0EDEF05F00150010AD4
:100BA800D8B4B0EF05F0030AD8B4B4EF05F0010AE1
:100BB800D8B4B8EF05F0070AD8B4BCEF05F0010ABD
:100BC800D8B4C0EF05F0030AD8B4C4EF05F0EDEFD0
:100BD80005F004501200036E04680BEF06F06CC4B5
:100BE80004F530EF06F06EC404F530EF06F07BC470
:100BF80004F530EF06F07DC404F530EF06F08AC442
:100C080004F530EF06F08CC404F530EF06F003501D
:100C1800016E026A0250000AD8B415EF06F030EFF0
:100C280006F00150010AD8B4F3EF05F0030AD8B46E
:100C3800F7EF05F0010AD8B4FBEF05F0070AD8B4BE
:100C4800FFEF05F0010AD8B403EF06F0030AD8B4A1
:100C580007EF06F030EF06F004501200FAC416F55C
:100C6800FBC417F58AC219F533503410D8B43FEFD6
:100C780006F041EF06F061EF06F002D84FEF06F0FC
:100C88000500FA6E3350FD6E3450FE6EF850FF6E5C
:100C9800FA5019501200E806D8A455EF06F058EF9C
:100CA80006F0010E59EF06F0000E186E18B003D0CA
:100CB8000201959D02D00201958DBA9017C5FBF4EB
:100CC80016C5FAF411000B6E0BC50CF50CAE6FEFE0
:100CD80006F071EF06F074EF06F0C08275EF06F0CB
:100CE800C0920CA47AEF06F07CEF06F081EF06F0D4
:100CF800BF8C34EC09F084EF06F0BF9C7BEC09F064
:100D08000CA289EF06F08BEF06F08EEF06F0BE829C
:100D18008FEF06F0BE920CA094EF06F096EF06F067
:100D280099EF06F0BE809AEF06F0BE901200000E12
:100D38000301F36FF389F351F30B0409F36F000E0A
:100D4800F46F000EF56F000EF66F070EF613000E27
:100D5800F86F820EEC6F000EF26F000EF16F000E4E
:100D6800EF6F020EEE6F000EF06F190EF96F000EA6
:100D7800D86F000E396EF00E391639503F0B8009C6
:0E0D8800396E3950BDEC02F0B590AA80120011
:100D9800FAC41AF5FBC41BF502019AA5D6EF06F0B2
:100DA800D8EF06F0F3EF06F08C69959D99852F50E2
:100DB8003010D8B4E2EF06F0E4EF06F0F1EF06F0F9
:100DC80002D8F1EF06F00500FA6E2F50FD6E305094
:100DD800FE6EF850FF6EFA50120002019A95BA940E
:100DE8001BC5FBF41AC5FAF411000D6E0BEF07F0E2
:100DF800820E0301EC6F24EF07F08D0E0301EC6FF8
:100E080024EF07F03B0E0301EC6F24EF07F00D50C1
:100E18000B6E0C6A0C50000AD8B415EF07F024EFDB
:100E280007F00B50010AD8B4FCEF06F0030AD8B457
:100E380001EF07F0010AD8B406EF07F024EF07F036
:100E4800120018EC05F0D2EC09F0D1EC09F05C0EB8
:100E5800236E110E246E71EC09F0480E236E130EEA
:100E6800246E76EC09F01E0E236E130E246E6CECC5
:100E780009F0B5EC09F0B3EC09F00009D8B447EF74
:100E880007F049EF07F03FEF07F094EC09F03FEF68
:100E980007F05DEF00F00C6E0CC537F50001A39F5D
:100EA80037A659EF07F05BEF07F063EF07F0A3876A
:100EB800A4978F0EA5173F0EA61776EF07F0A397F6
:100EC8003750070B0B6E0B3AA4510B188F0B0B18EE
:100ED800A46FA487A5518F0B1009A56FA6513F0BCE
:100EE8008009A66FA38F1200FAC409F5FBC40AF59E
:100EF80031503210D8B483EF07F085EF07F096EF42
:100F080007F002D892EF07F00500FA6E3150FD6E37
:100F18003250FE6EF850FF6EFA50120002018B6FCD
:100F280099EF07F0000E02018B6FBA920AC5FBF425
:100F380009C5FAF41100820E0301EC19D8A4A7EF31
:100F480007F0A9EF07F0ACEF07F0010EC5EF07F0C7
:100F58008D0EEC19D8A4B3EF07F0B5EF07F0B8EF92
:100F680007F0020EC5EF07F03B0EEC19D8A4BFEF4F
:100F780007F0C1EF07F0C4EF07F0030EC5EF07F065
:100F8800000E1200FAC41DF5FBC41EF53A503B10C2
:100F9800D8B4D1EF07F0D3EF07F0E0EF07F002D8AD
:100FA800E0EF07F00500FA6E3A50FD6E3B50FE6E1A
:100FB800F850FF6EFA501200B9961EC5FBF41DC515
:100FC800FAF41100FAC41FF5FBC420F52D502E10B9
:100FD800D8B4F1EF07F0F3EF07F000EF08F002D80C
:100FE80000EF08F00500FA6E2D50FD6E2E50FE6ED3
:100FF800F850FF6EFA501200B69620C5FBF41FC5D4
:10100800FAF41100FAC421F5FBC422F52B502C1078
:10101800D8B411EF08F013EF08F020EF08F002D869
:1010280020EF08F00500FA6E2B50FD6E2C50FE6E76
:10103800F850FF6EFA501200BD9622C5FBF421C588
:10104800FAF411009E0EF66E130EF76E000EF86E8F
:101058000900F5C43CF50900F5C43DF501EE29F198
:10106800110EEE6AE806FDE10401080E5D6F000E40
:101078005E6F000E5F6F000EF86E000125EF07F03F
:10108800000E0001A36FA387A38B000EA46F070EA9
:10109800A413000EA56FA551F80B0209A56F000E49
:1010A800A66F3F0EA617A651E00B0209A66F000E09
:1010B800A76FA38F000E376E37861200236E000EBF
:1010C8000201946FF80E9417000E956F000E9B6F37
:1010D8009B85010E9E6F9F0E9D6F8C692350232464
:1010E800906FBA94BA90BA92AF84AF80AF82948F5F
:1010F80012000501606F24C526F53F0E261623C58C
:1011080027F5060E286ED8902736282E87EF08F088
:1011180005016041800B2710261002019C6F25C530
:101128009FF21200000E016EC0A202D0018E01D003
:10113800019EBFAC02D0018401D00194BEA202D0AE
:10114800018201D00192BEA002D0018001D001909D
:1011580001501200156E3D50D8B4B5EF08F0B7EF46
:1011680008F0BFEF08F0000E3D6E1550E9EC03F0F3
:10117800146EC3EF08F015505FEC00F0146E1450B5
:101188001200000E03012B6F000E2C6F2C51E00B88
:1011980008092C6F000E2D6F0A0E2D6F000E2E6F92
:1011A800000E2A6FBD96B2861200000E03011E6F54
:1011B800000E1F6F1F51E00B08091F6F000E206FF4
:1011C8000A0E206F000E216F000E1D6FB696AB86BB
:1011D8001200000E0401466F000E476F4751E00BE6
:1011E8000209476F440E436F000E446F000E456FAF
:1011F800B996AE86468F1200000E386E39500F0B26
:101208000009D8A40AEF09F00CEF09F010EF09F073
:101218000301EA5112EF09F00301E1511200000E37
:10122800386E39500F0B0009D8A41DEF09F01FEFD5
:1012380009F023EF09F00301EB5125EF09F0030151
:10124800E2511200BEA22BEF09F02EEF09F0BE8288
:101258002FEF09F0BE92010E3C6E78C01CF512000B
:1012680003011D51D8B43BEF09F03DEF09F03EEF03
:1012780009F01E8F1200000E366E000E2A6E000E48
:10128800296EB0EC09F01200236E0301D751231820
:10129800FC0B2318D76F12000B6E0301D7510B18E4
:1012A800FC0B0B18D76F120023C52BF524C52CF5A2
:1012B800120023C52DF524C52EF5120023C53AF5D5
:1012C80024C53BF51200000E0301D76FD78F12001B
:1012D80023C52FF524C530F5120023C533F524C5E1
:1012E80034F5120023C531F524C532F51200030187
:1012F8001E9F000E1C6F12000BC581F40CC582F4F2
:1013080012000BC572F40CC573F412000BC563F41C
:101318000CC564F41200010E3D6E3FEC09F012009A
:101328000400000E3C6E12000B6E0BC52AF312006F
:101338000B6E0BC51DF31200010E386EB59011002F
:1013480092EC01F0120003012A51120003011D5111
:101358001200000E356E1200070E9C6E12003C50F3
:101368001200D68E120035501200815012008250A1
:101378001200725012007350120063501200645031
:101388001200375012003850120039501200BF9C1A
:0E1398001200C0921200010112001200120099
:0213A800110032
:020000040020DA
:10000000FFFFFFFFFFFFFFFFFFFFFFFFFFFFFFFF00
:10001000FFFFFFFFFFFFFFFFFFFFFFFFFFFFFFFFF0
:10002000FFFFFFFFFFFFFFFFFFFFFFFFFFFFFFFFE0
:10003000FFFFFFFFFFFFFFFFFFFFFFFFFFFFFFFFD0
:020000040030CA
:090000008CFDFFF4EBC6FFFFFFCD
:00000001FF
