:040000005DEF00F0C0
:100008001403140314031403140314031403140330
:100018001403140314031403140314031403140320
:1000280014032E002E002E001403140314031403CB
:1000380014031403140363021403140314031403B2
:1000480014031403140314031403140314031403F0
:100058001403140314032E001403140314031403C9
:100068001403140314038D021403140314032E0041
:10007800350279024C0214032E00140314031403EE
:1000880014031403140314032E0014032E00140382
:1000980014031403140314031403140314031403A0
:1000A80014032E002E001403140314031403140362
:1000B800FF003AEF05F00768CDEF00F00AEC06F014
:1000C800076E4EEF01F0010E88EC03F0076E4EEF5D
:1000D80001F0010E45EC03F0076E4EEF01F0020E41
:1000E80088EC03F0076E4EEF01F0020E45EC03F0CA
:1000F800076E4EEF01F0030E88EC03F0076E4EEF2B
:1001080001F0030E45EC03F0076E4EEF01F0040E0C
:1001180088EC03F0076E4EEF01F0040E45EC03F097
:10012800076E4EEF01F0050E88EC03F0076E4EEFF8
:1001380001F0050E45EC03F0076E4EEF01F0060ED8
:1001480088EC03F0076E4EEF01F0060E45EC03F065
:10015800076E4EEF01F01EEC06F0076E4EEF01F051
:100168001CEC06F0076E4EEF01F01AEC06F0076E75
:100178004EEF01F018EC06F0076E4EEF01F016ECAA
:1001880006F0076E4EEF01F014EC06F0076E4EEF26
:1001980001F02F50056E066A0650000AD8B4D7EF52
:1001A80000F04EEF01F00550000AD8B44EEF01F010
:1001B800010AD8B44EEF01F0030AD8B44EEF01F0AB
:1001C800010AD8B44EEF01F0070AD8B44EEF01F097
:1001D800020AD8B44EEF01F0010AD8B462EF00F079
:1001E800170AD8B467EF00F0010AD8B46DEF00F031
:1001F800030AD8B473EF00F0010AD8B479EF00F01D
:10020800070AD8B47FEF00F0010AD8B485EF00F0F0
:10021800030AD8B48BEF00F0010AD8B491EF00F0CC
:100228000F0AD8B497EF00F0010AD8B49DEF00F098
:10023800030AD8B4A3EF00F0010AD8B4A9EF00F07C
:100248003B0AD8B4AFEF00F0010AD8B4B4EF00F01D
:10025800030AD8B4B9EF00F0010AD8B4BEEF00F031
:10026800070AD8B4C3EF00F0010AD8B4C8EF00F009
:10027800160AD8B44EEF01F0070AD8B44EEF01F0D1
:10028800010AD8B44EEF01F0030AD8B44EEF01F0DA
:100298004EEF01F0075012000C6E59EF01F0010EFD
:1002A800DAEF01F0000EDAEF01F00C500A6E0B6A7B
:1002B8000B50000AD8B463EF01F056EF01F00A5072
:1002C800000AD8B453EF01F0010AD8B453EF01F093
:1002D800030AD8B453EF01F0010AD8B453EF01F080
:1002E800070AD8B453EF01F0020AD8B453EF01F06B
:1002F800010AD8B453EF01F0170AD8B453EF01F04C
:10030800010AD8B453EF01F0030AD8B453EF01F04F
:10031800010AD8B453EF01F0070AD8B453EF01F03B
:10032800010AD8B453EF01F0030AD8B453EF01F02F
:10033800010AD8B453EF01F00F0AD8B453EF01F013
:10034800010AD8B453EF01F0030AD8B453EF01F00F
:10035800010AD8B453EF01F03B0AD8B453EF01F0C7
:10036800010AD8B453EF01F0030AD8B453EF01F0EF
:10037800010AD8B453EF01F0070AD8B453EF01F0DB
:10038800010AD8B453EF01F0160AD8B453EF01F0BC
:10039800070AD8B453EF01F0010AD8B453EF01F0BB
:1003A800030AD8B453EF01F056EF01F01200E0EF62
:1003B80001F0000E61EF02F02F500A6E0B6A0B502D
:1003C800000AD8B4EAEF01F0DDEF01F00A50000AA4
:1003D800D8B4DDEF01F0010AD8B4DDEF01F0030A6B
:1003E800D8B4DDEF01F0010AD8B4DDEF01F0070A57
:1003F800D8B4DDEF01F0020AD8B4DDEF01F0010A4C
:10040800D8B4DDEF01F0170AD8B4DDEF01F0010A26
:10041800D8B4DDEF01F0030AD8B4DDEF01F0010A2A
:10042800D8B4DDEF01F0070AD8B4DDEF01F0010A16
:10043800D8B4DDEF01F0030AD8B4DDEF01F0010A0A
:10044800D8B4DDEF01F00F0AD8B4DDEF01F0010AEE
:10045800D8B4DDEF01F0030AD8B4DDEF01F0010AEA
:10046800D8B4DDEF01F03B0AD8B4DDEF01F0010AA2
:10047800D8B4DDEF01F0030AD8B4DDEF01F0010ACA
:10048800D8B4DDEF01F0070AD8B4DDEF01F0010AB6
:10049800D8B4DDEF01F0160AD8B4DDEF01F0070A91
:1004A800D8B4DDEF01F0010AD8B4DDEF01F0030A9A
:1004B800D8B4DDEF01F0DDEF01F01200000E696E37
:1004C800000E786E000E876E000E606E000E6F6E66
:1004D800000E7E6E040E616E040E706E040E7F6E4A
:1004E800000E656E000E746E000E836E000E626E56
:1004F800000E716E000E806E020E646E6C0E636EDE
:10050800020E736E6C0E726E020E826E6C0E816E2F
:10051800000E6C6E1F0E6B6E000E6E6E1F0E6D6EF3
:10052800000E7B6E1F0E7A6E000E7D6E1F0E7C6EA7
:10053800000E8A6E1F0E896E000E8C6E1F0E8B6E5B
:10054800000E686E000E776E000E866E000E6A6EE4
:10055800000E796E000E886E070E9D6E1200D9EFA0
:1005680002F01AC56BF41BC56CF4FEEF02F01AC555
:100578006DF41BC56EF4FEEF02F01AC57AF41BC5C4
:100588007BF4FEEF02F01AC57CF41BC57DF4FEEF88
:1005980002F01AC589F41BC58AF4FEEF02F01AC5E9
:1005A8008BF41BC58CF4FEEF02F01C501D6E1E6A06
:1005B8001E50000AD8B4E3EF02F0FEEF02F01D501F
:1005C800010AD8B4B5EF02F0030AD8B4BBEF02F0C1
:1005D800010AD8B4C1EF02F0070AD8B4C7EF02F095
:1005E800010AD8B4CDEF02F0030AD8B4D3EF02F071
:1005F800FEEF02F01200C880C78804011091089924
:10060800C79CC892089D1093BF9CC092C690C69282
:1006180000910093BE90BE92C684C78A0085088B5D
:100628001085009B0099028B0289C69AC698050E10
:100638000201706F040E716F220E066F210E056F96
:100648000401039B0399048B0489C79EBF9E0A0E6D
:100658000201106FC89EC09E0B0E186FC89CC09CEC
:100668000C0E176FC896C0960D0E146FC898C098D8
:100678000E0E156FC89AC09A0F0E166F04011085DA
:100688001200036E046861EF03F06BC404F586EF93
:1006980003F06DC404F586EF03F07AC404F586EF21
:1006A80003F07CC404F586EF03F089C404F586EFF3
:1006B80003F08BC404F586EF03F00350016E026A61
:1006C8000250000AD8B46BEF03F086EF03F0015034
:1006D800010AD8B449EF03F0030AD8B44DEF03F088
:1006E800010AD8B451EF03F0070AD8B455EF03F064
:1006F800010AD8B459EF03F0030AD8B45DEF03F048
:1007080086EF03F004501200036E0468A4EF03F0B0
:100718006CC404F5C9EF03F06EC404F5C9EF03F027
:100728007BC404F5C9EF03F07DC404F5C9EF03F0F9
:100738008AC404F5C9EF03F08CC404F5C9EF03F0CB
:100748000350016E026A0250000AD8B4AEEF03F0FB
:10075800C9EF03F00150010AD8B48CEF03F0030A83
:10076800D8B490EF03F0010AD8B494EF03F0070A65
:10077800D8B498EF03F0010AD8B49CEF03F0030A49
:10078800D8B4A0EF03F0C9EF03F004501200FFEC57
:1007980002F0400E226ECFB8D4EF03F0D8EF03F08A
:1007A800216A212AD9EF03F0216AD8902134221234
:1007B800D0B0E1EF03F0E4EF03F0010EE5EF03F052
:1007C800000E2212225055EC05F0010E1A6E010E91
:1007D8001B6E030E1C6E010E70EC05F023EC06F088
:1007E80062EC02F0B4EC05F08E0E1A6E0B0E1B6E66
:1007F800E1EC05F024EC06F09EEC05F0400E1A6ED4
:100808000C0E1B6EDCEC05F01200000E1B6E1F0EAA
:100818001A6E010E1C6EB3EC02F0000E1B6E2F0E4A
:100828001A6E020E1C6EB3EC02F0000E1B6E3E0E2A
:100838001A6E030E1C6EB3EC02F0000E1B6E1F0E38
:100848001A6E040E1C6EB3EC02F0000E1B6E2F0E17
:100858001A6E050E1C6EB3EC02F0000E1B6E3E0EF7
:100868001A6E060E1C6EB3EC02F001EC06F01200D4
:10087800CBEC03F026EC06F025EC06F00E0E1A6E13
:100888000B0E1B6EEBEC05F00E0E1A6E0C0E1B6EAB
:10089800F0EC05F0EA0E1A6E0B0E1B6EE6EC05F096
:1008A80012EC06F0FEEC05F004EC06F010EC06F095
:1008B8000009D8B462EF04F064EF04F05AEF04F0D2
:1008C800FAEC05F05AEF04F05DEF00F0FAC410F509
:1008D800FBC411F58AC212F52B502C10D8B477EF4F
:1008E80004F079EF04F091EF04F002D887EF04F0F8
:1008F8000500FA6E2B50FD6E2C50FE6EF850FF6E00
:10090800FA50125012000F6E0F3A0F460F460201AE
:1009180095510F18BF0B0F18956FBA9011C5FBF4BE
:0609280010C5FAF41100F5
:10093000FAC413F5FBC414F502019AA5A2EF04F062
:10094000A4EF04F0BFEF04F08C69959D99852750C2
:100950002810D8B4AEEF04F0B0EF04F0BDEF04F00F
:1009600002D8BDEF04F00500FA6E2750FD6E285046
:10097000FE6EF850FF6EFA50120002019A95BA947A
:0A09800014C5FBF413C5FAF41100CE
:10098C00FAC418F5FBC419F523502410D8B4D1EFD0
:10099C0004F0D3EF04F0E0EF04F002D8E0EF04F041
:1009AC000500FA6E2350FD6E2450FE6EF850FF6E5B
:1009BC00FA501200BEA0E5EF04F0E8EF04F0BE80A0
:1009CC00E9EF04F0BE900DEC06F0B69619C5FBF4F9
:0609DC0018C5FAF4110039
:1009E400FAC408F5FBC409F529502A10D8B4FDEF60
:1009F40004F0FFEF04F010EF05F002D80CEF05F05F
:100A04000500FA6E2950FD6E2A50FE6EF850FF6EF6
:100A1400FA50120002018B6F13EF05F0000E020171
:0E0A24008B6FBA9209C5FBF408C5FAF41100F5
:100A3400FAC416F5FBC417F525502610D8B425EFD3
:100A440005F027EF05F034EF05F002D834EF05F098
:100A54000500FA6E2550FD6E2650FE6EF850FF6EAE
:100A6400FA501200B99617C5FBF416C5FAF4110032
:100A7400440EF66E0C0EF76E000EF86E0900F5C407
:100A840030F50900F5C431F52F6A2E6A2D6A040188
:100A9400080E5D6F000E5E6F000E5F6F000EF86E45
:100AA40000013CEF04F01A6E000E0201946FF80E80
:100AB4009417000E956F000E9B6F9B85010E9E6F21
:100AC4009F0E9D6F8C691A501A24906FBA94BA9035
:100AD400BA92AF84AF80AF82948F1200206E1BC590
:100AE4001DF53F0E1D161AC51EF5060E1F6ED89075
:100AF4001E361F2E79EF05F02040800B1E101D10AE
:100B040002019C6F1CC59FF212000E6E3150D8B4C6
:100B14008EEF05F090EF05F098EF05F0000E316EC2
:100B24000E5050EC01F00D6E9CEF05F00E50DBEC16
:100B340001F00D6E0D501200000E03011E6F000E29
:100B44001F6F1F8B1F8F1F51E00B08091F6F000EB3
:100B5400206F040E206F000E216FF20E1D6FB696EB
:100B6400AB861200000E0401466F000E476F47511A
:100B7400E00B0209476F220E436F000E446F000E14
:100B8400456FB996AE86468F1200BEA2CCEF05F033
:100B9400CFEF05F0BE82D0EF05F0BE92010E306EAD
:100BA40078C015F51200000E2F6E000E2E6E000E8A
:100BB4002D6E12001AC523F51BC524F512001AC5A3
:100BC40025F51BC526F512001AC527F51BC528F502
:100BD40012001AC52BF51BC52CF512001AC529F5F0
:100BE4001BC52AF51200010E316ED5EC05F012007A
:100BF4000400000E306E120009EC04F01200070E1F
:100C04009C6E120003011E8F12005FEC00F01200B4
:100C140003011D51120003011E8F120030501200F7
:100C2400D68E1200815012008250120072501200AF
:100C3400735012006350120064501200BF9C1200E3
:0A0C4400010112001200120012005C
:020C5000110091
:020000040020DA
:10000000FFFFFFFFFFFFFFFFFFFFFFFFFFFFFFFF00
:10001000FFFFFFFFFFFFFFFFFFFFFFFFFFFFFFFFF0
:10002000FFFFFFFFFFFFFFFFFFFFFFFFFFFFFFFFE0
:10003000FFFFFFFFFFFFFFFFFFFFFFFFFFFFFFFFD0
:020000040030CA
:090000008CFDFFF48BC6FFFFFF2D
:00000001FF
