:040000005DEF00F0C0
:100008004B054B054B054B054B054B054B054B0568
:100018004B054B054B054B054B054B054B054B0558
:1000280030052E002E002E004B054B054B054B05C9
:100038004B054B054B0559044B054B054B054B052B
:100048004B054B054B054B054B054B054B054B0528
:100058004B054B054B052E004B054B054B054B053A
:100068004B054B054B0549044B054B054B052E002D
:100078003E031104A40300052E004B054B054B0558
:100088004B054B054B054B052E004B052E004B052C
:100098004B054B054B054B054B054B054B054B05D8
:1000A8004B052E002E0069044B054B054B054B05EF
:1000B800FF00F2EF08F0136E010E126E0CEF01F064
:1000C8001350B1EC06F085EF01F01350CDEC07F0BA
:1000D80085EF01F0000E126E85EF01F0135058EC19
:1000E8000AF085EF01F013505CEC0AF085EF01F09F
:1000F80013C527F5286A85EF01F02750286E276A6F
:100108001350271227C50BF528C50CF5010E0D6EE7
:1001180061EC05F085EF01F02750286E276A13502F
:10012800271227C50BF528C50CF5020E0D6E61ECDC
:1001380005F085EF01F02750286E276A1350271223
:1001480027C50BF528C50CF5030E0D6E61EC05F0FF
:1001580085EF01F02750286E276A1350271227C50C
:100168000BF528C50CF5040E0D6E61EC05F085EF56
:1001780001F02750286E276A1350271227C50BF560
:1001880028C50CF5050E0D6E61EC05F085EF01F044
:100198002750286E276A1350271227C50BF528C544
:1001A8000CF5060E0D6E61EC05F085EF01F0275099
:1001B800286E276A1350271227C50BF528C50CF59A
:1001C80046EC0AF085EF01F02750286E276A135095
:1001D800271227C50BF528C50CF541EC0AF085EF69
:1001E80001F02750286E276A1350271227C50BF5F0
:1001F80028C50CF53CEC0AF085EF01F0135051ECE2
:1002080003F085EF01F01350F9EC07F085EF01F0EA
:100218003650106E116A1150000AD8B416EF01F06A
:100228006EEF00F01050000AD8B485EF01F0010A13
:10023800D8B464EF00F0030AD8B469EF00F0060AF6
:10024800D8B46EEF00F0010AD8B46EEF00F0030ADC
:10025800D8B472EF00F0010AD8B477EF00F0170AAB
:10026800D8B47CEF00F0010AD8B481EF00F0030A9B
:10027800D8B47CEF00F0010AD8B490EF00F0070A78
:10028800D8B47CEF00F0010AD8B49FEF00F0030A5D
:10029800D8B47CEF00F0010AD8B4AEEF00F00F0A32
:1002A800D8B47CEF00F0010AD8B4BDEF00F0030A1F
:1002B800D8B47CEF00F0010AD8B4CCEF00F03B0AC8
:1002C800D8B47CEF00F0010AD8B4DBEF00F0030AE1
:1002D800D8B47CEF00F0010AD8B4E8EF00F0070AC0
:1002E800D8B47CEF00F0010AD8B4F5EF00F0150A95
:1002F800D8B402EF01F0010AD8B407EF01F06EEFAD
:1003080000F01250D8B48BEF01F08DEF01F08EEFB2
:1003180001F0362A12501200010E076E086837EFF6
:1003280002F070EC0AF046EC09F0086E7AEC0AF07C
:10033800056ED890053408128AEC0AF00812B0EF5E
:1003480002F046EC09F0086EB0EF02F049EC08F054
:10035800086EB0EF02F0C3EC09F0086EB0EF02F0DF
:10036800B0EC09F0086EB0EF02F06AEC0AF0086E23
:10037800B0EF02F06DEC0AF0086EB0EF02F0010E7B
:1003880038EC06F0086EB0EF02F0010EF5EC05F05F
:10039800086EB0EF02F0020E38EC06F0086EB0EF0F
:1003A80002F0020EF5EC05F0086EB0EF02F0030E55
:1003B80038EC06F0086EB0EF02F0030EF5EC05F02D
:1003C800086EB0EF02F0040E38EC06F0086EB0EFDD
:1003D80002F0040EF5EC05F0086EB0EF02F0050E21
:1003E80038EC06F0086EB0EF02F0050EF5EC05F0FB
:1003F800086EB0EF02F0060E38EC06F0086EB0EFAB
:1004080002F0060EF5EC05F0086EB0EF02F086EC8F
:100418000AF0086EB0EF02F084EC0AF0086EB0EF54
:1004280002F082EC0AF0086EB0EF02F080EC0AF0FD
:10043800086EB0EF02F07EEC0AF0086EB0EF02F042
:100448007CEC0AF0086EB0EF02F08CEC0AF0086E53
:10045800B0EF02F088EC0AF0086EB0EF02F0000E80
:10046800076EB0EF02F03650056E066A0650000AB5
:10047800D8B441EF02F033EF02F00550000AD8B4C7
:1004880095EF01F0010AD8B4A5EF01F0030AD8B43A
:10049800AAEF01F0060AD8B4AFEF01F0010AD8B408
:1004A800B4EF01F0030AD8B4B9EF01F0010AD8B4E7
:1004B800BEEF01F0170AD8B4C3EF01F0010AD8B4AF
:1004C800C9EF01F0030AD8B4CFEF01F0010AD8B49C
:1004D800D5EF01F0070AD8B4DBEF01F0010AD8B470
:1004E800E1EF01F0030AD8B4E7EF01F0010AD8B44C
:1004F800EDEF01F00F0AD8B4F3EF01F0010AD8B418
:10050800F9EF01F0030AD8B4FFEF01F0010AD8B4FB
:1005180005EF02F03B0AD8B40BEF02F0010AD8B499
:1005280010EF02F0030AD8B415EF02F0010AD8B4AC
:100538001AEF02F0070AD8B41FEF02F0010AD8B484
:1005480024EF02F0150AD8B429EF02F0010AD8B452
:100558002EEF02F033EF02F00750D8B4B6EF02F0F6
:10056800B8EF02F0B9EF02F0362A08501200266EF2
:1005780026C539F50301F39FF8EF02F0000EE76F87
:10058800F80EF5171AEF03F0020EE76FF551F80BA6
:100598000309F56FF5518F0B1009F56F1AEF03F08A
:1005A800040EE76FF551F80B0309F56FF5518F0B42
:1005B8002009F56F1AEF03F0080EE76FF551F80BF5
:1005C8000309F56FF5518F0B3009F56F1AEF03F03A
:1005D800100EE76FF551F80B0309F56FF5518F0B06
:1005E8004009F56F1AEF03F039500F0B246E256A96
:1005F8002550000AD8B403EF03F01AEF03F0245093
:10060800000AD8B4C2EF02F0010AD8B4C8EF02F069
:10061800030AD8B4D4EF02F0010AD8B4E0EF02F02C
:10062800070AD8B4ECEF02F01AEF03F03938E832D1
:10063800E832030BEFEC09F02EEF03F0F00E0301A4
:10064800F8174EEF03F00301F851F00B0309F86FA8
:100658004EEF03F03938E832E832030B246E256A8E
:100668002550000AD8B43BEF03F04EEF03F02450B6
:10067800000AD8B422EF03F0010AD8B427EF03F038
:10068800030AD8B427EF03F0010AD8B427EF03F020
:100698004EEF03F00301F38F12000E6E0EC539F50D
:1006A8000301F39F8EEF03F0000EE76FF80EF517C6
:1006B800B0EF03F0020EE76FF551F80B0309F56F81
:1006C800F5518F0B1009F56FB0EF03F0040EE76FCB
:1006D800F551F80B0309F56FF5518F0B2009F56FEC
:1006E800B0EF03F0080EE76FF551F80B0309F56F4B
:1006F800F5518F0B3009F56FB0EF03F0100EE76F6F
:10070800F551F80B0309F56FF5518F0B4009F56F9B
:10071800B0EF03F039500F0B0C6E0D6A0D50000A44
:10072800D8B499EF03F0B0EF03F00C50000AD8B436
:1007380058EF03F0010AD8B45EEF03F0030AD8B407
:100748006AEF03F0010AD8B476EF03F0070AD8B4C9
:1007580082EF03F0B0EF03F03938E832E832030BE8
:10076800F7EC09F0C4EF03F0F00E0301F817E4EF1B
:1007780003F00301F851F00B0309F86FE4EF03F0FD
:100788003938E832E832030B0C6E0D6A0D50000A56
:10079800D8B4D1EF03F0E4EF03F00C50000AD8B45A
:1007A800B8EF03F0010AD8B4BDEF03F0030AD8B4D8
:1007B800BDEF03F0010AD8B4BDEF03F0E4EF03F096
:1007C8000301F38F12000D6EF2EF03F0010E0E6EAF
:1007D8006BEF04F0000E0E6E6BEF04F00D500B6E15
:1007E8000C6A0C50000AD8B4FCEF03F0EEEF03F0EB
:1007F8000B50000AD8B4EAEF03F0010AD8B4EAEFC4
:1008080003F0030AD8B4EAEF03F0060AD8B4EAEF13
:1008180003F0010AD8B4EAEF03F0030AD8B4EAEF08
:1008280003F0010AD8B4EAEF03F0170AD8B4EAEFE4
:1008380003F0010AD8B4EAEF03F0030AD8B4EAEFE8
:1008480003F0010AD8B4EAEF03F0070AD8B4EAEFD4
:1008580003F0010AD8B4EAEF03F0030AD8B4EAEFC8
:1008680003F0010AD8B4EAEF03F00F0AD8B4EAEFAC
:1008780003F0010AD8B4EAEF03F0030AD8B4EAEFA8
:1008880003F0010AD8B4EAEF03F03B0AD8B4EAEF60
:1008980003F0010AD8B4EAEF03F0030AD8B4EAEF88
:1008A80003F0010AD8B4EAEF03F0070AD8B4EAEF74
:1008B80003F0010AD8B4EAEF03F0150AD8B4EAEF56
:1008C80003F0010AD8B4EAEF03F0EEEF03F00E509C
:1008D800D8B471EF04F073EF04F075EF04F00DC5B0
:1008E80036F50E501200000E696E000E786E000E7E
:1008F800876E000E606E000E6F6E000E7E6E050E27
:10090800616E050E706E050E7F6E000E656E000E30
:10091800746E000E836E000E626E000E716E000E15
:10092800806E270E646E100E636E270E736E100EA7
:10093800726E270E826E100E816E000E6C6EFA0EAD
:100948006B6E000E6E6EFA0E6D6E000E7B6EFA0EFA
:100958007A6E000E7D6EFA0E7C6E000E8A6EFA0EAE
:10096800896E000E8C6EFA0E8B6E000E686E000E8D
:10097800776E000E866E000E6A6E000E796E000E9F
:10098800886E070E9D6E1200EEEF04F023C56BF41F
:1009980024C56CF414EF05F023C56DF424C56EF47A
:1009A80014EF05F023C57AF424C57BF414EF05F0A1
:1009B80023C57CF424C57DF414EF05F023C589F420
:1009C80024C58AF414EF05F023C58BF424C58CF4F0
:1009D80014EF05F025500501606F616B6151000A45
:1009E800D8B4F9EF04F014EF05F06051010AD8B457
:1009F800CAEF04F0030AD8B4D0EF04F0010AD8B45F
:100A0800D6EF04F0070AD8B4DCEF04F0010AD8B432
:100A1800E2EF04F0030AD8B4E8EF04F014EF05F0AD
:100A28001200ADEC05F0400E0501646FCFB81FEF62
:100A380005F023EF05F0636B632B25EF05F0050147
:100A4800636BD89063356413D0B02DEF05F030EFA9
:100A580005F0010E31EF05F0000E6413645170ECDF
:100A680008F0010E236E050E246E030E256E010E8E
:100A78002EEC09F093EC0AF077EC04F09DEC09F009
:100A8800AC0E236E130E246E1EEC0AF023EC0AF053
:100A980018EC07F010EC09F089EC09F01C0E236E35
:100AA800150E246E19EC0AF075EC09F0200E236E71
:100AB800150E246E14EC0AF0120087EF05F00BC532
:100AC8006BF40CC56CF4ACEF05F00BC56DF40CC5FC
:100AD8006EF4ACEF05F00BC57AF40CC57BF4ACEF03
:100AE80005F00BC57CF40CC57DF4ACEF05F00BC527
:100AF80089F40CC58AF4ACEF05F00BC58BF40CC572
:100B08008CF4ACEF05F00D500E6E0F6A0F50000A12
:100B1800D8B491EF05F0ACEF05F00E50010AD8B447
:100B280063EF05F0030AD8B469EF05F0010AD8B4F9
:100B38006FEF05F0070AD8B475EF05F0010AD8B4CD
:100B48007BEF05F0030AD8B481EF05F0ACEF05F0B0
:100B58001200C880C7880401109108990989118179
:100B6800C79CC892089D1093BF9CC092C690C6921D
:100B780000910093BE90BE92C684C78A0085088BF8
:100B88001085009B0099028B0289C69AC698050EAB
:100B98000201706F040E716F220E066F210E056F31
:100BA8000401039B0399048B0489C79EBF9E0F0E03
:100BB8000201106FC89EC09E0E0E186FC89CC09C84
:100BC8000D0E176FC896C0960C0E146FC898C09873
:100BD8000B0E156FC89AC09A0A0E166F040110857D
:100BE8001200036E046811EF06F06BC404F536EFCB
:100BF80006F06DC404F536EF06F07AC404F536EF56
:100C080006F07CC404F536EF06F089C404F536EF27
:100C180006F08BC404F536EF06F00350016E026A45
:100C28000250000AD8B41BEF06F036EF06F0015068
:100C3800010AD8B4F9EF05F0030AD8B4FDEF05F0BE
:100C4800010AD8B401EF06F0070AD8B405EF06F098
:100C5800010AD8B409EF06F0030AD8B40DEF06F07C
:100C680036EF06F004501200036E046854EF06F0E5
:100C78006CC404F579EF06F06EC404F579EF06F05C
:100C88007BC404F579EF06F07DC404F579EF06F02E
:100C98008AC404F579EF06F08CC404F579EF06F000
:100CA8000350016E026A0250000AD8B45EEF06F0E3
:100CB80079EF06F00150010AD8B43CEF06F0030AB8
:100CC800D8B440EF06F0010AD8B444EF06F0070A9A
:100CD800D8B448EF06F0010AD8B44CEF06F0030A7E
:0E0CE800D8B450EF06F079EF06F00450120079
:100CF800FAC416F5FBC417F58AC219F53350341037
:100D0800D8B489EF06F08BEF06F0ABEF06F002D807
:100D180099EF06F00500FA6E3350FD6E3450FE6E02
:100D2800F850FF6EFA5019501200E806D8A49FEF49
:100D380006F0A2EF06F0010EA3EF06F0000E186E03
:100D480018B003D00201959D02D00201958DBA908A
:100D580017C5FBF416C5FAF411000B6E0BC50CF59C
:100D68000CAEB9EF06F0BBEF06F0BEEF06F0C0829E
:100D7800BFEF06F0C0920CA4C4EF06F0C6EF06F071
:100D8800CBEF06F0BF8CE4EC09F0CEEF06F0BF9C89
:100D980037EC0AF00CA2D3EF06F0D5EF06F0D8EF47
:100DA80006F0BE82D9EF06F0BE920CA0DEEF06F088
:100DB800E0EF06F0E3EF06F0BE80E4EF06F0BE9049
:100DC8001200000E246EFA0E236E010E256EC8EC7A
:100DD80004F0010E246EF40E236E020E256EC8EC8C
:100DE80004F0020E246EEE0E236E030E256EC8EC80
:100DF80004F0030E246EE80E236E040E256EC8EC74
:100E080004F0040E246EE20E236E050E256EC8EC67
:100E180004F0000E246EFA0E236E060E256EC8EC42
:100E280004F064EC0AF01200000E0301F36FF3897A
:100E3800F351F30B0409F36F000EF46F000EF56F16
:100E4800000EF66F070EF613000EF86F820EEC6FA9
:100E5800000EF26F000EF16F000EEF6F020EEE6FD4
:100E6800000EF06F190EF96F000ED86F000E396E74
:100E7800F00E391639503F0B8009396E3950BBECEA
:100E880002F0B590AA801200FAC41AF5FBC41BF54B
:100E980002019AA552EF07F054EF07F06FEF07F041
:100EA8008C69959D99852F503010D8B45EEF07F066
:100EB80060EF07F06DEF07F002D86DEF07F005005F
:100EC800FA6E2F50FD6E3050FE6EF850FF6EFA50DD
:100ED800120002019A95BA941BC5FBF41AC5FAF4DC
:100EE800110015EC05F095EC0AF094EC0AF0BC0E34
:100EF800236E120E246E2DEC0AF0CE0E236E140E05
:100F0800246E32EC0AF0960E236E140E246E28EC32
:100F18000AF078EC0AF00FEC0AF076EC0AF0000917
:100F2800D8B499EF07F09BEF07F091EF07F054EC76
:100F38000AF091EF07F05DEF00F0256EB3EF07F0D0
:100F4800820E0301EC6FCCEF07F08D0E0301EC6FFE
:100F5800CCEF07F03B0E0301EC6FCCEF07F0255008
:100F6800236E246A2450000AD8B4BDEF07F0CCEFF2
:100F780007F02350010AD8B4A4EF07F0030AD8B445
:100F8800A9EF07F0010AD8B4AEEF07F0CCEF07F0ED
:100F980012000D6EDFEF07F0820E0301EC6FF8EF21
:100FA80007F08D0E0301EC6FF8EF07F03B0E03011D
:100FB800EC6FF8EF07F00D500B6E0C6A0C50000A3E
:100FC800D8B4E9EF07F0F8EF07F00B50010AD8B4EE
:100FD800D0EF07F0030AD8B4D5EF07F0010AD8B468
:100FE800DAEF07F0F8EF07F012000C6E0CC537F5D2
:100FF8000001A39F37A603EF08F005EF08F00DEFF7
:1010080008F0A387A4978F0EA5173F0EA61720EF09
:1010180008F0A3973750070B0B6E0B3AA4510B1827
:101028008F0B0B18A46FA487A5518F0B1009A56F00
:10103800A6513F0B8009A66FA38F1200FAC409F5C9
:10104800FBC40AF531503210D8B42DEF08F02FEF59
:1010580008F040EF08F002D83CEF08F00500FA6EFF
:101068003150FD6E3250FE6EF850FF6EFA5012008D
:1010780002018B6F43EF08F0000E02018B6FBA92EA
:101088000AC5FBF409C5FAF41100820E0301EC1934
:10109800D8A451EF08F053EF08F056EF08F0010E0E
:1010A8006FEF08F08D0EEC19D8A45DEF08F05FEF34
:1010B80008F062EF08F0020E6FEF08F03B0EEC1933
:1010C800D8A469EF08F06BEF08F06EEF08F0030E94
:1010D8006FEF08F0000E1200236E000E0201946FED
:1010E800F80E9417000E956F000E9B6F9B85010EEE
:1010F8009E6F9F0E9D6F8C6923502324906F000E66
:10110800976F978597819783BA94BA90BA92BA964F
:10111800AF84AF80AF82AF86948F1200FAC41DF5FA
:10112800FBC41EF53A503B10D8B49DEF08F09FEF72
:1011380008F0ACEF08F002D8ACEF08F00500FA6E42
:101148003A50FD6E3B50FE6EF850FF6EFA5012009A
:10115800B9961EC5FBF41DC5FAF41100FAC41FF5B3
:10116800FBC420F52B502C10D8B4BDEF08F0BFEF0E
:1011780008F0CCEF08F002D8CCEF08F00500FA6EC2
:101188002B50FD6E2C50FE6EF850FF6EFA50120078
:10119800B69620C5FBF41FC5FAF41100FAC421F570
:1011A800FBC422F529502A10D8B4DDEF08F0DFEF90
:1011B80008F0ECEF08F002D8ECEF08F00500FA6E42
:1011C8002950FD6E2A50FE6EF850FF6EFA5012003C
:1011D800BD9622C5FBF421C5FAF41100240EF66E63
:1011E800150EF76E000EF86E0900F5C43CF50900FF
:1011F800F5C43DF501EE27F1130EEE6AE806FDE1B0
:101208000401080E5D6F000E5E6F000E5F6F000E2A
:10121800F86E000175EF07F0000E0001A36FA387B9
:10122800A38B000EA46F070EA413000EA56FA55183
:10123800F80B0209A56F000EA66F3F0EA617A65160
:10124800E00B0209A66F000EA76FA38F000E376E82
:1012580037861200266E24C560F53F0E050160171B
:1012680023C561F5060E626FD8906137622F38EF9B
:1012780009F02640800B6111601102019C6F25C5A1
:101288009FF21200000E016EC0A202D0018E01D0A2
:10129800019EBFAC02D0018401D00194BEA202D04D
:1012A800018201D00192BEA002D0018001D001903C
:1012B80001501200156E3D50D8B465EF09F067EF84
:1012C80009F06FEF09F0000E3D6E1550E7EC03F0E2
:1012D800146E73EF09F015505FEC00F0146E1450A3
:1012E8001200000E03012B6F000E2C6F2C51E00B27
:1012F80008092C6F000E2D6F0A0E2D6F000E2E6F31
:10130800000E2A6FBD96B2861200000E03011E6FF2
:10131800000E1F6F1F51E00B08091F6F000E206F92
:101328000A0E206F000E216F000E1D6FB696AB8659
:101338001200000E0401466F000E476F4751E00B84
:101348000209476F440E436F000E446F000E456F4D
:10135800B996AE86468F1200000E386E39500F0BC4
:101368000009D8A4BAEF09F0BCEF09F0C0EF09F002
:101378000301EA51C2EF09F00301E1511200000E26
:10138800386E39500F0B0009D8A4CDEF09F0CFEF14
:1013980009F0D3EF09F00301EB51D5EF09F0030190
:1013A800E2511200BEA2DBEF09F0DEEF09F0BE82C7
:1013B800DFEF09F0BE92010E3C6E78C01CF51200FA
:1013C80003011D51D8B4EBEF09F0EDEF09F0EEEF92
:1013D80009F01E8F1200236E0301D7512318FC0B4E
:1013E8002318D76F12000B6E0301D7510B18FC0B93
:0613F8000B18D76F120074
:10140000BE80020199859799979B979DBA96110086
:10141000000E286E000E276E73EC0AF01200E5EC49
:1014200006F050EC0AF0120023C529F524C52AF570
:10143000120023C52BF524C52CF5120023C53AF55F
:1014400024C53BF51200000E0301D76FD78F1200A1
:1014500023C52FF524C530F5120023C533F524C567
:1014600034F5120023C531F524C532F5120003010D
:101470001E9F000E1C6F12000BC581F40CC582F478
:1014800012000BC572F40CC573F412000BC563F4A3
:101490000CC564F41200010E3D6E08EC0AF0120057
:1014A000010EA1EC07F012000400000E3C6E1200C9
:1014B0000B6E0BC52AF312000B6E0BC51DF3120049
:1014C000010E386EB5901100070E9C6E120090EC64
:1014D00001F0120003012A51120003011D511200F4
:1014E000000E356E1200070E9C6E12003C5012006A
:1014F000D68E120035501200815012008250120018
:1015000072501200735012006350120064501200A7
:10151000375012003850120039501200BF9C120090
:0E152000C09212000101120012001200110010
:020000040020DA
:10000000FFFFFFFFFFFFFFFFFFFFFFFFFFFFFFFF00
:10001000FFFFFFFFFFFFFFFFFFFFFFFFFFFFFFFFF0
:10002000FFFFFFFFFFFFFFFFFFFFFFFFFFFFFFFFE0
:10003000FFFFFFFFFFFFFFFFFFFFFFFFFFFFFFFFD0
:020000040030CA
:090000008CFDFFF4EBC6FFFFFFCD
:00000001FF
