:040000005DEF00F0C0
:1000080043054305430543054305430543054305A8
:100018004305430543054305430543054305430598
:1000280028052E002E002E004305430543054305F1
:100038004305430543054704430543054305430575
:100048004305430543054305430543054305430568
:100058004305430543052E00430543054305430572
:1000680043054305430537044305430543052E006F
:100078003D031004A30343052E0043054305430530
:1000880043054305430543052E0043052E0043055C
:100098004305430543054305430543054305430518
:1000A80043052E002E005704430543054305430529
:1000B800FF00CEEF08F0136E010E126E0CEF01F088
:1000C8001350AFEC06F085EF01F01350CBEC07F0BE
:1000D80085EF01F0000E126E85EF01F0135047EC2A
:1000E8000AF085EF01F013504BEC0AF085EF01F0B0
:1000F80013C529F52A6A85EF01F029502A6E296A65
:100108001350291229C50BF52AC50CF5010E0D6EE1
:1001180060EC05F085EF01F029502A6E296A13502A
:10012800291229C50BF52AC50CF5020E0D6E60ECD7
:1001380005F085EF01F029502A6E296A135029121B
:1001480029C50BF52AC50CF5030E0D6E60EC05F0FC
:1001580085EF01F029502A6E296A1350291229C502
:100168000BF52AC50CF5040E0D6E60EC05F085EF55
:1001780001F029502A6E296A1350291229C50BF556
:100188002AC50CF5050E0D6E60EC05F085EF01F043
:1001980029502A6E296A1350291229C50BF52AC538
:1001A8000CF5060E0D6E60EC05F085EF01F0295098
:1001B8002A6E296A1350291229C50BF52AC50CF590
:1001C80035EC0AF085EF01F029502A6E296A1350A0
:1001D800291229C50BF52AC50CF530EC0AF085EF74
:1001E80001F029502A6E296A1350291229C50BF5E6
:1001F8002AC50CF52BEC0AF085EF01F0135051ECF1
:1002080003F085EF01F01350F7EC07F085EF01F0EC
:100218003650106E116A1150000AD8B416EF01F06A
:100228006EEF00F01050000AD8B485EF01F0010A13
:10023800D8B464EF00F0030AD8B469EF00F0060AF6
:10024800D8B46EEF00F0010AD8B46EEF00F0030ADC
:10025800D8B472EF00F0010AD8B477EF00F0170AAB
:10026800D8B47CEF00F0010AD8B481EF00F0030A9B
:10027800D8B47CEF00F0010AD8B490EF00F0070A78
:10028800D8B47CEF00F0010AD8B49FEF00F0030A5D
:10029800D8B47CEF00F0010AD8B4AEEF00F00F0A32
:1002A800D8B47CEF00F0010AD8B4BDEF00F0030A1F
:1002B800D8B47CEF00F0010AD8B4CCEF00F03B0AC8
:1002C800D8B47CEF00F0010AD8B4DBEF00F0030AE1
:1002D800D8B47CEF00F0010AD8B4E8EF00F0070AC0
:1002E800D8B47CEF00F0010AD8B4F5EF00F0150A95
:1002F800D8B402EF01F0010AD8B407EF01F06EEFAD
:1003080000F01250D8B48BEF01F08DEF01F08EEFB2
:1003180001F0362A12501200010E076E086837EFF6
:1003280002F060EC0AF03EEC09F0086E6AEC0AF0A4
:10033800056ED890053408127AEC0AF00812B0EF6E
:1003480002F03EEC09F0086EB0EF02F047EC08F05E
:10035800086EB0EF02F0BBEC09F0086EB0EF02F0E7
:10036800A8EC09F0086EB0EF02F05AEC0AF0086E3B
:10037800B0EF02F05DEC0AF0086EB0EF02F0010E8B
:1003880037EC06F0086EB0EF02F0010EF4EC05F061
:10039800086EB0EF02F0020E37EC06F0086EB0EF10
:1003A80002F0020EF4EC05F0086EB0EF02F0030E56
:1003B80037EC06F0086EB0EF02F0030EF4EC05F02F
:1003C800086EB0EF02F0040E37EC06F0086EB0EFDE
:1003D80002F0040EF4EC05F0086EB0EF02F0050E22
:1003E80037EC06F0086EB0EF02F0050EF4EC05F0FD
:1003F800086EB0EF02F0060E37EC06F0086EB0EFAC
:1004080002F0060EF4EC05F0086EB0EF02F076ECA0
:100418000AF0086EB0EF02F074EC0AF0086EB0EF64
:1004280002F072EC0AF0086EB0EF02F070EC0AF01D
:10043800086EB0EF02F06EEC0AF0086EB0EF02F052
:100448006CEC0AF0086EB0EF02F07CEC0AF0086E73
:10045800B0EF02F078EC0AF0086EB0EF02F0000E90
:10046800076EB0EF02F03650056E066A0650000AB5
:10047800D8B441EF02F033EF02F00550000AD8B4C7
:1004880095EF01F0010AD8B4A5EF01F0030AD8B43A
:10049800AAEF01F0060AD8B4AFEF01F0010AD8B408
:1004A800B4EF01F0030AD8B4B9EF01F0010AD8B4E7
:1004B800BEEF01F0170AD8B4C3EF01F0010AD8B4AF
:1004C800C9EF01F0030AD8B4CFEF01F0010AD8B49C
:1004D800D5EF01F0070AD8B4DBEF01F0010AD8B470
:1004E800E1EF01F0030AD8B4E7EF01F0010AD8B44C
:1004F800EDEF01F00F0AD8B4F3EF01F0010AD8B418
:10050800F9EF01F0030AD8B4FFEF01F0010AD8B4FB
:1005180005EF02F03B0AD8B40BEF02F0010AD8B499
:1005280010EF02F0030AD8B415EF02F0010AD8B4AC
:100538001AEF02F0070AD8B41FEF02F0010AD8B484
:1005480024EF02F0150AD8B429EF02F0010AD8B452
:100558002EEF02F033EF02F00750D8B4B6EF02F0F6
:10056800B8EF02F0B9EF02F0362A08501200266EF2
:1005780026C539F50301F39FF8EF02F0000EE76F87
:10058800F80EF5171AEF03F0020EE76FF551F80BA6
:100598000309F56FF5518F0B1009F56F1AEF03F08A
:1005A800040EE76FF551F80B0309F56FF5518F0B42
:1005B8002009F56F1AEF03F0080EE76FF551F80BF5
:1005C8000309F56FF5518F0B3009F56F1AEF03F03A
:1005D800100EE76FF551F80B0309F56FF5518F0B06
:1005E8004009F56F1AEF03F039500F0B246E256A96
:1005F8002550000AD8B403EF03F01AEF03F0245093
:10060800000AD8B4C2EF02F0010AD8B4C8EF02F069
:10061800030AD8B4D4EF02F0010AD8B4E0EF02F02C
:10062800070AD8B4ECEF02F01AEF03F03938E832D1
:10063800E832030BE7EC09F02EEF03F0F00E0301AC
:10064800F8174EEF03F00301F851F00B0309F86FA8
:100658004EEF03F03938E832E832030B246E256A8E
:100668002550000AD8B43BEF03F04EEF03F02450B6
:10067800000AD8B422EF03F0010AD8B427EF03F038
:10068800030AD8B427EF03F0010AD8B427EF03F020
:100698004EEF03F00301F38F12000E6E0EC539F50D
:1006A8000301F39F8EEF03F0000EE76FF80EF517C6
:1006B800B0EF03F0020EE76FF551F80B0309F56F81
:1006C800F5518F0B1009F56FB0EF03F0040EE76FCB
:1006D800F551F80B0309F56FF5518F0B2009F56FEC
:1006E800B0EF03F0080EE76FF551F80B0309F56F4B
:1006F800F5518F0B3009F56FB0EF03F0100EE76F6F
:10070800F551F80B0309F56FF5518F0B4009F56F9B
:10071800B0EF03F039500F0B0C6E0D6A0D50000A44
:10072800D8B499EF03F0B0EF03F00C50000AD8B436
:1007380058EF03F0010AD8B45EEF03F0030AD8B407
:100748006AEF03F0010AD8B476EF03F0070AD8B4C9
:1007580082EF03F0B0EF03F03938E832E832030BE8
:10076800EFEC09F0C4EF03F0F00E0301F817E4EF23
:1007780003F00301F851F00B0309F86FE4EF03F0FD
:100788003938E832E832030B0C6E0D6A0D50000A56
:10079800D8B4D1EF03F0E4EF03F00C50000AD8B45A
:1007A800B8EF03F0010AD8B4BDEF03F0030AD8B4D8
:1007B800BDEF03F0010AD8B4BDEF03F0E4EF03F096
:1007C8000301F38F12000D6EF2EF03F0010E0E6EAF
:1007D8006BEF04F0000E0E6E6BEF04F00D500B6E15
:1007E8000C6A0C50000AD8B4FCEF03F0EEEF03F0EB
:1007F8000B50000AD8B4EAEF03F0010AD8B4EAEFC4
:1008080003F0030AD8B4EAEF03F0060AD8B4EAEF13
:1008180003F0010AD8B4EAEF03F0030AD8B4EAEF08
:1008280003F0010AD8B4EAEF03F0170AD8B4EAEFE4
:1008380003F0010AD8B4EAEF03F0030AD8B4EAEFE8
:1008480003F0010AD8B4EAEF03F0070AD8B4EAEFD4
:1008580003F0010AD8B4EAEF03F0030AD8B4EAEFC8
:1008680003F0010AD8B4EAEF03F00F0AD8B4EAEFAC
:1008780003F0010AD8B4EAEF03F0030AD8B4EAEFA8
:1008880003F0010AD8B4EAEF03F03B0AD8B4EAEF60
:1008980003F0010AD8B4EAEF03F0030AD8B4EAEF88
:1008A80003F0010AD8B4EAEF03F0070AD8B4EAEF74
:1008B80003F0010AD8B4EAEF03F0150AD8B4EAEF56
:1008C80003F0010AD8B4EAEF03F0EEEF03F00E509C
:1008D800D8B471EF04F073EF04F075EF04F00DC5B0
:1008E80036F50E501200000E696E000E786E000E7E
:1008F800876E000E606E000E6F6E000E7E6E050E27
:10090800616E050E706E050E7F6E000E656E000E30
:10091800746E000E836E000E626E000E716E000E15
:10092800806E270E646E100E636E270E736E100EA7
:10093800726E270E826E100E816E000E6C6EFA0EAD
:100948006B6E000E6E6EFA0E6D6E000E7B6EFA0EFA
:100958007A6E000E7D6EFA0E7C6E000E8A6EFA0EAE
:10096800896E000E8C6EFA0E8B6E000E686E000E8D
:10097800776E000E866E000E6A6E000E796E000E9F
:10098800886E070E9D6E1200EEEF04F023C56BF41F
:1009980024C56CF413EF05F023C56DF424C56EF47B
:1009A80013EF05F023C57AF424C57BF413EF05F0A3
:1009B80023C57CF424C57DF413EF05F023C589F421
:1009C80024C58AF413EF05F023C58BF424C58CF4F1
:1009D80013EF05F02550266E276A2750000AD8B471
:1009E800F8EF04F013EF05F02650010AD8B4CAEF67
:1009F80004F0030AD8B4D0EF04F0010AD8B4D6EF53
:100A080004F0070AD8B4DCEF04F0010AD8B4E2EF26
:100A180004F0030AD8B4E8EF04F013EF05F012006D
:100A2800ACEC05F0400E0501626FCFB81EEF05F083
:100A380022EF05F0616B612B24EF05F00501616B76
:100A4800D89061356213D0B02CEF05F02FEF05F088
:100A5800010E30EF05F0000E621362510AEC09F046
:100A6800010E236E050E246E030E256E010E25EC75
:100A780009F083EC0AF077EC04F095EC09F09C0E91
:100A8800236E130E246E0DEC0AF012EC0AF016EC2D
:100A980007F0ECEC08F081EC09F0FC0E236E140E64
:100AA800246E08EC0AF06DEC09F0000E236E150EAA
:100AB800246E03EC0AF0120086EF05F00BC56BF408
:100AC8000CC56CF4ABEF05F00BC56DF40CC56EF4FA
:100AD800ABEF05F00BC57AF40CC57BF4ABEF05F072
:100AE8000BC57CF40CC57DF4ABEF05F00BC589F4A0
:100AF8000CC58AF4ABEF05F00BC58BF40CC58CF470
:100B0800ABEF05F00D500E6E0F6A0F50000AD8B407
:100B180090EF05F0ABEF05F00E50010AD8B462EF84
:100B280005F0030AD8B468EF05F0010AD8B46EEFEF
:100B380005F0070AD8B474EF05F0010AD8B47AEFC3
:100B480005F0030AD8B480EF05F0ABEF05F012000A
:100B5800C880C78804011091089909891181C79C28
:100B6800C892089D1093BF9CC092C690C6920091EF
:100B78000093BE90BE92C684C78A0085088B1085F4
:100B8800009B0099028B0289C69AC698050E02013D
:100B9800706F040E716F220E066F210E056F04012F
:100BA800039B0399048B0489C79EBF9E0F0E020105
:100BB800106FC89EC09E0E0E186FC89CC09C0D0E6C
:100BC800176FC896C0960C0E146FC898C0980B0E75
:100BD800156FC89AC09A0A0E166F04011085120084
:100BE800036E046810EF06F06BC404F535EF06F0E9
:100BF8006DC404F535EF06F07AC404F535EF06F058
:100C08007CC404F535EF06F089C404F535EF06F029
:100C18008BC404F535EF06F00350016E026A0250EA
:100C2800000AD8B41AEF06F035EF06F00150010AB1
:100C3800D8B4F8EF05F0030AD8B4FCEF05F0010AC0
:100C4800D8B400EF06F0070AD8B404EF06F0010A9A
:100C5800D8B408EF06F0030AD8B40CEF06F035EF65
:100C680006F004501200036E046853EF06F06CC4DB
:100C780004F578EF06F06EC404F578EF06F07BC44F
:100C880004F578EF06F07DC404F578EF06F08AC421
:100C980004F578EF06F08CC404F578EF06F00350FD
:100CA800016E026A0250000AD8B45DEF06F078EFD0
:100CB80006F00150010AD8B43BEF06F0030AD8B495
:100CC8003FEF06F0010AD8B443EF06F0070AD8B49C
:100CD80047EF06F0010AD8B44BEF06F0030AD8B480
:100CE8004FEF06F078EF06F004501200FAC416F53C
:100CF800FBC417F58AC219F533503410D8B487EFFE
:100D080006F089EF06F0A9EF06F002D897EF06F093
:100D18000500FA6E3350FD6E3450FE6EF850FF6ECB
:100D2800FA5019501200E806D8A49DEF06F0A0EF7B
:100D380006F0010EA1EF06F0000E186E18B003D0F1
:100D48000201959D02D00201958DBA9017C5FBF45A
:100D580016C5FAF411000B6E0BC50CF50CAEB7EF07
:100D680006F0B9EF06F0BCEF06F0C082BDEF06F062
:100D7800C0920CA4C2EF06F0C4EF06F0C9EF06F06B
:100D8800BF8CDCEC09F0CCEF06F0BF9C26EC0AF037
:100D98000CA2D1EF06F0D3EF06F0D6EF06F0BE8234
:100DA800D7EF06F0BE920CA0DCEF06F0DEEF06F0FF
:100DB800E1EF06F0BE80E2EF06F0BE901200000EF2
:100DC800246EFA0E236E010E256EC8EC04F0010E97
:100DD800246EF40E236E020E256EC8EC04F0020E8B
:100DE800246EEE0E236E030E256EC8EC04F0030E7F
:100DF800246EE80E236E040E256EC8EC04F0040E73
:100E0800246EE20E236E050E256EC8EC04F0000E6B
:100E1800246EFA0E236E060E256EC8EC04F054EC10
:100E28000AF01200000E0301F36FF389F351F30B7C
:100E38000409F36F000EF46F000EF56F000EF66FE5
:100E4800070EF613000EF86F820EEC6F000EF26FAD
:100E5800000EF16F000EEF6F020EEE6F000EF06FD6
:100E6800190EF96F000ED86F000E396EF00E391694
:100E780039503F0B8009396E3950BBEC02F0B59000
:100E8800AA801200FAC41AF5FBC41BF502019AA540
:100E980050EF07F052EF07F06DEF07F08C69959D62
:100EA80099852F503010D8B45CEF07F05EEF07F04B
:100EB8006BEF07F002D86BEF07F00500FA6E2F50C2
:100EC800FD6E3050FE6EF850FF6EFA5012000201AF
:100ED8009A95BA941BC5FBF41AC5FAF4110014ECE0
:100EE80005F085EC0AF084EC0AF0AC0E236E120EC5
:100EF800246E1CEC0AF0AE0E236E140E246E21EC48
:100F08000AF0740E236E140E246E17EC0AF068ECC7
:100F18000AF0FEEC09F066EC0AF00009D8B497EF85
:100F280007F099EF07F08FEF07F043EC0AF08FEF27
:100F380007F05DEF00F0256EB1EF07F0820E0301B8
:100F4800EC6FCAEF07F08D0E0301EC6FCAEF07F0E4
:100F58003B0E0301EC6FCAEF07F02550236E246A9D
:100F68002450000AD8B4BBEF07F0CAEF07F02350AB
:100F7800010AD8B4A2EF07F0030AD8B4A7EF07F024
:100F8800010AD8B4ACEF07F0CAEF07F012000D6EF3
:100F9800DDEF07F0820E0301EC6FF6EF07F08D0E20
:100FA8000301EC6FF6EF07F03B0E0301EC6FF6EF71
:100FB80007F00D500B6E0C6A0C50000AD8B4E7EF1E
:100FC80007F0F6EF07F00B50010AD8B4CEEF07F0A0
:100FD800030AD8B4D3EF07F0010AD8B4D8EF07F062
:100FE800F6EF07F012000C6E0CC537F50001A39F51
:100FF80037A601EF08F003EF08F00BEF08F0A3871E
:10100800A4978F0EA5173F0EA6171EEF08F0A397FB
:101018003750070B0B6E0B3AA4510B188F0B0B189C
:10102800A46FA487A5518F0B1009A56FA6513F0B7C
:101038008009A66FA38F1200FAC409F5FBC40AF54C
:1010480031503210D8B42BEF08F02DEF08F03EEFF6
:1010580008F002D83AEF08F00500FA6E3150FD6E3C
:101068003250FE6EF850FF6EFA50120002018B6F7C
:1010780041EF08F0000E02018B6FBA920AC5FBF42B
:1010880009C5FAF41100820E0301EC19D8A44FEF38
:1010980008F051EF08F054EF08F0010E6DEF08F07A
:1010A8008D0EEC19D8A45BEF08F05DEF08F060EF47
:1010B80008F0020E6DEF08F03B0EEC19D8A467EFAC
:1010C80008F069EF08F06CEF08F0030E6DEF08F018
:1010D800000E1200FAC41DF5FBC41EF53A503B1071
:1010E800D8B479EF08F07BEF08F088EF08F002D861
:1010F80088EF08F00500FA6E3A50FD6E3B50FE6E20
:10110800F850FF6EFA501200B9961EC5FBF41DC5C3
:10111800FAF41100FAC41FF5FBC420F52D502E1067
:10112800D8B499EF08F09BEF08F0A8EF08F002D8C0
:10113800A8EF08F00500FA6E2D50FD6E2E50FE6ED9
:10114800F850FF6EFA501200B69620C5FBF41FC582
:10115800FAF41100FAC421F5FBC422F52B502C1027
:10116800D8B4B9EF08F0BBEF08F0C8EF08F002D820
:10117800C8EF08F00500FA6E2B50FD6E2C50FE6E7D
:10118800F850FF6EFA501200BD9622C5FBF421C537
:10119800FAF41100040EF66E150EF76E000EF86ED6
:1011A8000900F5C43CF50900F5C43DF501EE29F147
:1011B800110EEE6AE806FDE10401080E5D6F000EEF
:1011C8005E6F000E5F6F000EF86E000173EF07F0A0
:1011D800000E0001A36FA387A38B000EA46F070E58
:1011E800A413000EA56FA551F80B0209A56F000EF8
:1011F800A66F3F0EA617A651E00B0209A66F000EB8
:10120800A76FA38F000E376E37861200236E000E6D
:101218000201946FF80E9417000E956F000E9B6FE5
:101228009B85010E9E6F9F0E9D6F8C692350232412
:10123800906FBA94BA90BA92AF84AF80AF82948F0D
:1012480012000501606F24C526F53F0E261623C53A
:1012580027F5060E286ED8902736282E2FEF09F08E
:1012680005016041800B2710261002019C6F25C5DF
:101278009FF21200000E016EC0A202D0018E01D0B2
:10128800019EBFAC02D0018401D00194BEA202D05D
:10129800018201D00192BEA002D0018001D001904C
:1012A80001501200156E3D50D8B45DEF09F05FEFA4
:1012B80009F067EF09F0000E3D6E1550E7EC03F0FA
:1012C800146E6BEF09F015505FEC00F0146E1450BB
:1012D8001200000E03012B6F000E2C6F2C51E00B37
:1012E80008092C6F000E2D6F0A0E2D6F000E2E6F41
:1012F800000E2A6FBD96B2861200000E03011E6F03
:10130800000E1F6F1F51E00B08091F6F000E206FA2
:101318000A0E206F000E216F000E1D6FB696AB8669
:101328001200000E0401466F000E476F4751E00B94
:101338000209476F440E436F000E446F000E456F5D
:10134800B996AE86468F1200000E386E39500F0BD4
:101358000009D8A4B2EF09F0B4EF09F0B8EF09F02A
:101368000301EA51BAEF09F00301E1511200000E3E
:10137800386E39500F0B0009D8A4C5EF09F0C7EF34
:1013880009F0CBEF09F00301EB51CDEF09F00301B0
:10139800E2511200BEA2D3EF09F0D6EF09F0BE82E7
:1013A800D7EF09F0BE92010E3C6E78C01CF5120012
:1013B80003011D51D8B4E3EF09F0E5EF09F0E6EFBA
:1013C80009F01E8F1200236E0301D7512318FC0B5E
:1013D8002318D76F12000B6E0301D7510B18FC0BA3
:1013E8000B18D76F1200000E2A6E000E296E63ECE0
:1013F8000AF01200E3EC06F03FEC0AF0120023C5F5
:101408002BF524C52CF5120023C52DF524C52EF582
:10141800120023C53AF524C53BF51200000E03015E
:10142800D76FD78F120023C52FF524C530F51200CA
:1014380023C533F524C534F5120023C531F524C579
:1014480032F5120003011E9F000E1C6F12000BC51F
:1014580081F40CC582F412000BC572F40CC573F448
:1014680012000BC563F40CC564F41200010E3D6E46
:10147800F7EC09F01200010E9FEC07F012000400CF
:10148800000E3C6E12000B6E0BC52AF312000B6E99
:061498000BC51DF312005C
:1014A000010E386EB5901100070E9C6E120090EC84
:1014B00001F0120003012A51120003011D51120014
:1014C000000E356E1200070E9C6E12003C5012008A
:1014D000D68E120035501200815012008250120038
:1014E00072501200735012006350120064501200C8
:1014F000375012003850120039501200BF9C1200B1
:0E150000C09212000101120012001200110030
:020000040020DA
:10000000FFFFFFFFFFFFFFFFFFFFFFFFFFFFFFFF00
:10001000FFFFFFFFFFFFFFFFFFFFFFFFFFFFFFFFF0
:10002000FFFFFFFFFFFFFFFFFFFFFFFFFFFFFFFFE0
:10003000FFFFFFFFFFFFFFFFFFFFFFFFFFFFFFFFD0
:020000040030CA
:090000008CFDFFF4EBC6FFFFFFCD
:00000001FF
