:040000005DEF00F0C0
:1000080019051905190519051905190519051905F8
:1000180019051905190519051905190519051905E8
:10002800FC042E002E002E001905190519051905C6
:1000380019051905190512041905190519051905D0
:1000480019051905190519051905190519051905B8
:100058001905190519052E00190519051905190598
:1000680019051905190502041905190519052E00A0
:100078003603DD039C0319052E001905190519051A
:1000880019051905190519052E0019052E00190558
:100098001905190519051905190519051905190568
:1000A80019052E002E002204190519051905190530
:1000B800FF0064EF08F0136E010E126E0CEF01F0F2
:1000C8001350A1EC06F085EF01F01350E1EC07F0B6
:1000D80085EF01F0000E126E85EF01F01350EFEC82
:1000E80009F085EF01F01350F3EC09F085EF01F00A
:1000F80013C52EF52F6A85EF01F02E502F6E2E6A4C
:1001080013502E122EC50BF52FC50CF5010E0D6ED2
:1001180007EC05F085EF01F02E502F6E2E6A135074
:100128002E122EC50BF52FC50CF5020E0D6E07EC21
:1001380005F085EF01F02E502F6E2E6A13502E1207
:100148002EC50BF52FC50CF5030E0D6E07EC05F04B
:1001580085EF01F02E502F6E2E6A13502E122EC5E9
:100168000BF52FC50CF5040E0D6E07EC05F085EFA9
:1001780001F02E502F6E2E6A13502E122EC50BF53D
:100188002FC50CF5050E0D6E07EC05F085EF01F097
:100198002E502F6E2E6A13502E122EC50BF52FC51A
:1001A8000CF5060E0D6E07EC05F085EF01F02E50EC
:1001B8002F6E2E6A13502E122EC50BF52FC50CF577
:1001C800E1EC09F085EF01F02E502F6E2E6A1350E6
:1001D8002E122EC50BF52FC50CF5DCEC09F085EFBA
:1001E80001F02E502F6E2E6A13502E122EC50BF5CD
:1001F8002FC50CF5D7EC09F085EF01F0135051EC41
:1002080003F085EF01F0135091EC07F085EF01F052
:100218003950106E116A1150000AD8B416EF01F067
:100228006EEF00F01050000AD8B485EF01F0010A13
:10023800D8B464EF00F0030AD8B469EF00F0060AF6
:10024800D8B46EEF00F0010AD8B46EEF00F0030ADC
:10025800D8B472EF00F0010AD8B477EF00F0170AAB
:10026800D8B47CEF00F0010AD8B481EF00F0030A9B
:10027800D8B47CEF00F0010AD8B490EF00F0070A78
:10028800D8B47CEF00F0010AD8B49FEF00F0030A5D
:10029800D8B47CEF00F0010AD8B4AEEF00F00F0A32
:1002A800D8B47CEF00F0010AD8B4BDEF00F0030A1F
:1002B800D8B47CEF00F0010AD8B4CCEF00F03B0AC8
:1002C800D8B47CEF00F0010AD8B4DBEF00F0030AE1
:1002D800D8B47CEF00F0010AD8B4E8EF00F0070AC0
:1002E800D8B47CEF00F0010AD8B4F5EF00F0150A95
:1002F800D8B402EF01F0010AD8B407EF01F06EEFAD
:1003080000F01250D8B48BEF01F08DEF01F08EEFB2
:1003180001F0392A12501200010E076E086837EFF3
:1003280002F00BEC0AF0D6EC08F0086E15EC0AF0B7
:10033800056ED8900534081225EC0AF00812B0EFC3
:1003480002F0D6EC08F0086EB0EF02F0BBEC08F053
:10035800086EB0EF02F06AEC09F0086EB0EF02F038
:1003680057EC09F0086EB0EF02F005EC0AF0086EE1
:10037800B0EF02F008EC0AF0086EB0EF02F0010EE0
:1003880028EC06F0086EB0EF02F0010EE5EC05F07F
:10039800086EB0EF02F0020E28EC06F0086EB0EF1F
:1003A80002F0020EE5EC05F0086EB0EF02F0030E65
:1003B80028EC06F0086EB0EF02F0030EE5EC05F04D
:1003C800086EB0EF02F0040E28EC06F0086EB0EFED
:1003D80002F0040EE5EC05F0086EB0EF02F0050E31
:1003E80028EC06F0086EB0EF02F0050EE5EC05F01B
:1003F800086EB0EF02F0060E28EC06F0086EB0EFBB
:1004080002F0060EE5EC05F0086EB0EF02F021EC04
:100418000AF0086EB0EF02F01FEC0AF0086EB0EFB9
:1004280002F01DEC0AF0086EB0EF02F01BEC0AF0C7
:10043800086EB0EF02F019EC0AF0086EB0EF02F0A7
:1004480017EC0AF0086EB0EF02F027EC0AF0086E1D
:10045800B0EF02F023EC0AF0086EB0EF02F0000EE5
:10046800076EB0EF02F03950056E066A0650000AB2
:10047800D8B441EF02F033EF02F00550000AD8B4C7
:1004880095EF01F0010AD8B4A5EF01F0030AD8B43A
:10049800AAEF01F0060AD8B4AFEF01F0010AD8B408
:1004A800B4EF01F0030AD8B4B9EF01F0010AD8B4E7
:1004B800BEEF01F0170AD8B4C3EF01F0010AD8B4AF
:1004C800C9EF01F0030AD8B4CFEF01F0010AD8B49C
:1004D800D5EF01F0070AD8B4DBEF01F0010AD8B470
:1004E800E1EF01F0030AD8B4E7EF01F0010AD8B44C
:1004F800EDEF01F00F0AD8B4F3EF01F0010AD8B418
:10050800F9EF01F0030AD8B4FFEF01F0010AD8B4FB
:1005180005EF02F03B0AD8B40BEF02F0010AD8B499
:1005280010EF02F0030AD8B415EF02F0010AD8B4AC
:100538001AEF02F0070AD8B41FEF02F0010AD8B484
:1005480024EF02F0150AD8B429EF02F0010AD8B452
:100558002EEF02F033EF02F00750D8B4B6EF02F0F6
:10056800B8EF02F0B9EF02F0392A08501200266EEF
:1005780026C53CF50301F39FF8EF02F0000EE76F84
:10058800F80EF5171AEF03F0020EE76FF551F80BA6
:100598000309F56FF5518F0B1009F56F1AEF03F08A
:1005A800040EE76FF551F80B0309F56FF5518F0B42
:1005B8002009F56F1AEF03F0080EE76FF551F80BF5
:1005C8000309F56FF5518F0B3009F56F1AEF03F03A
:1005D800100EE76FF551F80B0309F56FF5518F0B06
:1005E8004009F56F1AEF03F03C500F0B246E256A93
:1005F8002550000AD8B403EF03F01AEF03F0245093
:10060800000AD8B4C2EF02F0010AD8B4C8EF02F069
:10061800030AD8B4D4EF02F0010AD8B4E0EF02F02C
:10062800070AD8B4ECEF02F01AEF03F03C38E832CE
:10063800E832030B9FEC09F02EEF03F0F00E0301F4
:10064800F8174EEF03F00301F851F00B0309F86FA8
:100658004EEF03F03C38E832E832030B246E256A8B
:100668002550000AD8B43BEF03F04EEF03F02450B6
:10067800000AD8B422EF03F0010AD8B427EF03F038
:10068800030AD8B427EF03F0010AD8B427EF03F020
:100698004EEF03F00301F38F12000E6E0EC53CF50A
:1006A8000301F39F8EEF03F0000EE76FF80EF517C6
:1006B800B0EF03F0020EE76FF551F80B0309F56F81
:1006C800F5518F0B1009F56FB0EF03F0040EE76FCB
:1006D800F551F80B0309F56FF5518F0B2009F56FEC
:1006E800B0EF03F0080EE76FF551F80B0309F56F4B
:1006F800F5518F0B3009F56FB0EF03F0100EE76F6F
:10070800F551F80B0309F56FF5518F0B4009F56F9B
:10071800B0EF03F03C500F0B0C6E0D6A0D50000A41
:10072800D8B499EF03F0B0EF03F00C50000AD8B436
:1007380058EF03F0010AD8B45EEF03F0030AD8B407
:100748006AEF03F0010AD8B476EF03F0070AD8B4C9
:1007580082EF03F0B0EF03F03C38E832E832030BE5
:10076800A7EC09F0C4EF03F0F00E0301F817E4EF6B
:1007780003F00301F851F00B0309F86FE4EF03F0FD
:100788003C38E832E832030B0C6E0D6A0D50000A53
:10079800D8B4D1EF03F0E4EF03F00C50000AD8B45A
:1007A800B8EF03F0010AD8B4BDEF03F0030AD8B4D8
:1007B800BDEF03F0010AD8B4BDEF03F0E4EF03F096
:1007C8000301F38F12000D6EF0EF03F0010E69EFD5
:1007D80004F0000E69EF04F00D500B6E0C6A0C501B
:1007E800000AD8B4FAEF03F0EDEF03F00B50000A5B
:1007F800D8B4EAEF03F0010AD8B4EAEF03F0030A29
:10080800D8B4EAEF03F0060AD8B4EAEF03F0010A15
:10081800D8B4EAEF03F0030AD8B4EAEF03F0010A08
:10082800D8B4EAEF03F0170AD8B4EAEF03F0010AE4
:10083800D8B4EAEF03F0030AD8B4EAEF03F0010AE8
:10084800D8B4EAEF03F0070AD8B4EAEF03F0010AD4
:10085800D8B4EAEF03F0030AD8B4EAEF03F0010AC8
:10086800D8B4EAEF03F00F0AD8B4EAEF03F0010AAC
:10087800D8B4EAEF03F0030AD8B4EAEF03F0010AA8
:10088800D8B4EAEF03F03B0AD8B4EAEF03F0010A60
:10089800D8B4EAEF03F0030AD8B4EAEF03F0010A88
:1008A800D8B4EAEF03F0070AD8B4EAEF03F0010A74
:1008B800D8B4EAEF03F0150AD8B4EAEF03F0010A56
:1008C800D8B4EAEF03F0EDEF03F01200000E696E02
:1008D800000E786E000E876E000E606E000E6F6E52
:1008E800000E7E6E040E616E040E706E040E7F6E36
:1008F800000E656E000E746E000E836E000E626E42
:10090800000E716E000E806E020E646E6C0E636EC9
:10091800020E736E6C0E726E020E826E6C0E816E1B
:10092800000E6C6E1F0E6B6E000E6E6E1F0E6D6EDF
:10093800000E7B6E1F0E7A6E000E7D6E1F0E7C6E93
:10094800000E8A6E1F0E896E000E8C6E1F0E8B6E47
:10095800000E686E000E776E000E866E000E6A6ED0
:10096800000E796E000E886E070E9D6E1200E1EF84
:1009780004F023C56BF424C56CF406EF05F023C519
:100988006DF424C56EF406EF05F023C57AF424C58A
:100998007BF406EF05F023C57CF424C57DF406EF4F
:1009A80005F023C589F424C58AF406EF05F023C5AC
:1009B8008BF424C58CF406EF05F02550266E276AC3
:1009C8002750000AD8B4EBEF04F006EF05F02650E4
:1009D800010AD8B4BDEF04F0030AD8B4C3EF04F099
:1009E800010AD8B4C9EF04F0070AD8B4CFEF04F06D
:1009F800010AD8B4D5EF04F0030AD8B4DBEF04F049
:100A080006EF05F012002DEF05F00BC56BF40CC5D1
:100A18006CF452EF05F00BC56DF40CC56EF452EF93
:100A280005F00BC57AF40CC57BF452EF05F00BC545
:100A38007CF40CC57DF452EF05F00BC589F40CC5A8
:100A48008AF452EF05F00BC58BF40CC58CF452EF09
:100A580005F00D500E6E0F6A0F50000AD8B437EF2C
:100A680005F052EF05F00E50010AD8B409EF05F071
:100A7800030AD8B40FEF05F0010AD8B415EF05F052
:100A8800070AD8B41BEF05F0010AD8B421EF05F026
:100A9800030AD8B427EF05F052EF05F012009DECD9
:100AA80005F0400E2B6ECFB85CEF05F060EF05F057
:100AB8002A6A2A2A61EF05F02A6AD8902A342B126A
:100AC800D0B069EF05F06CEF05F0010E6DEF05F0A1
:100AD800000E2B122B50A0EC08F0010E236E010E15
:100AE800246E030E256E010EEEEC08F02EEC0AF0D3
:100AF8006AEC04F044EC09F0FA0E236E120E246E30
:100B0800B9EC09F0BEEC09F008EC07F082EC08F04B
:100B180030EC09F0520E236E140E246EB4EC09F07A
:100B28001CEC09F0560E236E140E246EAFEC09F07F
:100B38001200C880C7880401109108990989118199
:100B4800C79CC892089D1093BF9CC092C690C6923D
:100B580000910093BE90BE92C684C78A0085088B18
:100B68001085009B0099028B0289C69AC698050ECB
:100B78000201706F040E716F220E066F210E056F51
:100B88000401039B0399048B0489C79EBF9E0A0E28
:100B98000201106FC89EC09E0B0E186FC89CC09CA7
:100BA8000C0E176FC896C0960D0E146FC898C09893
:100BB8000E0E156FC89AC09A0F0E166F0401108595
:100BC8001200036E046801EF06F06BC404F526EF0B
:100BD80006F06DC404F526EF06F07AC404F526EF96
:100BE80006F07CC404F526EF06F089C404F526EF68
:100BF80006F08BC404F526EF06F00350016E026A76
:100C08000250000AD8B40BEF06F026EF06F00150A8
:100C1800010AD8B4E9EF05F0030AD8B4EDEF05F0FE
:100C2800010AD8B4F1EF05F0070AD8B4F5EF05F0DA
:100C3800010AD8B4F9EF05F0030AD8B4FDEF05F0BE
:100C480026EF06F004501200036E046844EF06F025
:100C58006CC404F569EF06F06EC404F569EF06F09C
:100C68007BC404F569EF06F07DC404F569EF06F06E
:100C78008AC404F569EF06F08CC404F569EF06F040
:100C88000350016E026A0250000AD8B44EEF06F013
:100C980069EF06F00150010AD8B42CEF06F0030AF8
:100CA800D8B430EF06F0010AD8B434EF06F0070ADA
:100CB800D8B438EF06F0010AD8B43CEF06F0030ABE
:0E0CC800D8B440EF06F069EF06F004501200B9
:100CD800FAC416F5FBC417F58AC219F53650371051
:100CE800D8B479EF06F07BEF06F09BEF06F002D858
:100CF80089EF06F00500FA6E3650FD6E3750FE6E2D
:100D0800F850FF6EFA5019501200E806D8A48FEF79
:100D180006F092EF06F0010E93EF06F0000E186E43
:100D280018B003D00201959D02D00201958DBA90AA
:100D380017C5FBF416C5FAF411000B6E0BC50CF5BC
:100D48000CAEA9EF06F0ABEF06F0AEEF06F0C082EE
:100D5800AFEF06F0C0920CA4B4EF06F0B6EF06F0C1
:100D6800BBEF06F0BF8C8BEC09F0BEEF06F0BF9C22
:100D7800D2EC09F00CA2C3EF06F0C5EF06F0C8EFFD
:100D880006F0BE82C9EF06F0BE920CA0CEEF06F0C8
:100D9800D0EF06F0D3EF06F0BE80D4EF06F0BE9099
:100DA8001200000E246E1F0E236E010E256EBBEC82
:100DB80004F0000E246E2F0E236E020E256EBBEC7F
:100DC80004F0000E246E3E0E236E030E256EBBEC5F
:100DD80004F0000E246E1F0E236E040E256EBBEC6D
:100DE80004F0000E246E2F0E236E050E256EBBEC4C
:100DF80004F0000E246E3E0E236E060E256EBBEC2C
:100E080004F0FFEC09F01200000E0301F36FF38900
:100E1800F351F30B0409F36F000EF46F000EF56F36
:100E2800000EF66F070EF613000EF86F820EEC6FC9
:100E3800000EF26F000EF16F000EEF6F020EEE6FF4
:100E4800000EF06F190EF96F000ED86F000E3C6E91
:100E5800F00E3C163C503F0B80093C6E3C50BBECFE
:100E680002F0B590AA801200FAC41AF5FBC41BF56B
:100E780002019AA542EF07F044EF07F05FEF07F091
:100E88008C69959D998532503310D8B44EEF07F090
:100E980050EF07F05DEF07F002D85DEF07F00500AF
:100EA800FA6E3250FD6E3350FE6EF850FF6EFA50F7
:100EB800120002019A95BA941BC5FBF41AC5FAF4FC
:100EC800110053EC05F030EC0AF02FEC0AF00A0E92
:100ED800236E120E246EC8EC09F0040E236E140E55
:100EE800246ECDEC09F0CC0E236E130E246EC3ECE9
:100EF80009F013EC0AF0FCEC09F011EC0AF0000917
:100F0800D8B489EF07F08BEF07F081EF07F0EBEC2F
:100F180009F081EF07F05DEF00F00C6E0CC53AF5B3
:100F28000001A39F3AA69BEF07F09DEF07F0A5EFFE
:100F380007F0A387A4978F0EA5173F0EA617B8EF43
:100F480007F0A3973A50070B0B6E0B3AA4510B18F6
:100F58008F0B0B18A46FA487A5518F0B1009A56FD1
:100F6800A6513F0B8009A66FA38F1200FAC409F59A
:100F7800FBC40AF534503510D8B4C5EF07F0C7EFF5
:100F880007F0D8EF07F002D8D4EF07F00500FA6EA3
:100F98003450FD6E3550FE6EF850FF6EFA50120058
:100FA80002018B6FDBEF07F0000E02018B6FBA9224
:100FB8000AC5FBF409C5FAF411000D6EEEEF07F04F
:100FC800820E0301EC6F03EF08F08D0E0301EC6F46
:100FD80003EF08F00D500B6E0C6A0C50000AD8B4E1
:100FE800F8EF07F003EF08F00B50010AD8B4E4EF6C
:100FF80007F0030AD8B4E9EF07F003EF08F012008E
:10100800FAC41DF5FBC41EF53D503E10D8B40FEFD1
:1010180008F011EF08F01EEF08F002D81EEF08F0F4
:101028000500FA6E3D50FD6E3E50FE6EF850FF6EA4
:10103800FA501200B9961EC5FBF41DC5FAF411004A
:10104800FAC41FF5FBC420F530503110D8B42FEF87
:1010580008F031EF08F03EEF08F002D83EEF08F054
:101068000500FA6E3050FD6E3150FE6EF850FF6E7E
:10107800FA501200B69620C5FBF41FC5FAF4110009
:10108800FAC421F5FBC422F52C502D10D8B44FEF2B
:1010980008F051EF08F05EEF08F002D85EEF08F0B4
:1010A8000500FA6E2C50FD6E2D50FE6EF850FF6E46
:1010B800FA501200BD9622C5FBF421C5FAF41100BE
:1010C8005A0EF66E140EF76E000EF86E0900F5C48F
:1010D8003FF50900F5C440F501EE2CF1110EEE6A5A
:1010E800E806FDE10401080E5D6F000E5E6F000E5C
:1010F8005F6F000EF86E000165EF07F0000E00014B
:10110800A36FA387A38B000EA46F070EA413000E72
:10111800A56FA551F80B0209A56F000EA66F3F0E2B
:10112800A617A651E00B0209A66F000EA76FA38FA2
:10113800000E3A6E3A861200236E000E0201946F7A
:10114800F80E9417000E956F000E9B6F9B85010E8D
:101158009E6F9F0E9D6F8C6923502324906FBA94C5
:10116800BA90BA92AF84AF80AF82948F1200820E89
:101178000301EC19D8A4C3EF08F0C5EF08F0C8EFD5
:1011880008F0010ED5EF08F08D0EEC19D8A4CFEFBA
:1011980008F0D1EF08F0D4EF08F0020ED5EF08F010
:1011A800000E1200000E016EC0A202D0018E01D006
:1011B800019EBFAC02D0018401D00194BEA202D02E
:1011C800018201D00192BEA002D0018001D001901D
:1011D80001501200296E24C526F53F0E261623C598
:1011E80027F5060E286ED8902736282EF7EF08F038
:1011F8002940800B2710261002019C6F25C59FF2FD
:101208001200156E4050D8B40CEF09F00EEF09F03B
:1012180016EF09F0000E406E1550E7EC03F0146E5F
:101228001AEF09F015505FEC00F0146E145012001C
:10123800000E03012B6F000E2C6F2C51E00B0809D8
:101248002C6F000E2D6F0A0E2D6F000E2E6F000EE4
:101258002A6FBD96B2861200000E03011E6F000EA3
:101268001F6F1F51E00B08091F6F000E206F0A0E39
:10127800206F000E216F000E1D6FB696AB86120010
:10128800000E0401466F000E476F4751E00B02093C
:10129800476F440E436F000E446F000E456FB996BA
:1012A800AE86468F1200000E3B6E3C500F0B0009B5
:1012B800D8A461EF09F063EF09F067EF09F00301C3
:1012C800EA5169EF09F00301E1511200000E3B6E8B
:1012D8003C500F0B0009D8A474EF09F076EF09F021
:1012E8007AEF09F00301EB517CEF09F00301E251B9
:1012F8001200BEA282EF09F085EF09F0BE8286EFE8
:1013080009F0BE92010E3F6E78C01CF51200030171
:101318001D51D8B492EF09F094EF09F095EF09F058
:101328001E8F1200000E396E000E2F6E000E2E6EEC
:101338000EEC0AF01200236E0301D7512318FC0BA0
:101348002318D76F12000B6E0301D7510B18FC0B33
:101358000B18D76F120023C52CF524C52DF51200E4
:1013680023C530F524C531F5120023C53DF524C544
:101378003EF51200000E0301D76FD78F120023C568
:1013880032F524C533F5120023C536F524C537F5E3
:10139800120023C534F524C535F5120003011E9F3C
:1013A800000E1C6F12000BC581F40CC582F41200EC
:1013B8000BC572F40CC573F412000BC563F40CC5AD
:1013C80064F41200010E406E96EC09F0120004005D
:1013D800000E3F6E12000B6E0BC52AF312000B6E47
:0613E8000BC51DF312000D
:1013F000010E3B6EB5901100D5EC06F01200070E01
:101400009C6E120090EC01F0120003012A511200B0
:1014100003011D511200000E386E1200070E9C6E63
:1014200012003F501200D68E120038501200815028
:10143000120082501200725012007350120063505A
:101440001200645012003A5012003B5012003C50FF
:101450001200BF9C1200C092120001011200120083
:02146000120078
:02146400110075
:020000040020DA
:10000000FFFFFFFFFFFFFFFFFFFFFFFFFFFFFFFF00
:10001000FFFFFFFFFFFFFFFFFFFFFFFFFFFFFFFFF0
:10002000FFFFFFFFFFFFFFFFFFFFFFFFFFFFFFFFE0
:10003000FFFFFFFFFFFFFFFFFFFFFFFFFFFFFFFFD0
:020000040030CA
:090000008CFDFFF4EBC6FFFFFFCD
:00000001FF
