:040000005DEF00F0C0
:1000080082038203820382038203820382038203C0
:1000180082038203820382038203820382038203B0
:1000280082032E002E002E008203820382038203A5
:10003800820382038203C102820382038203820352
:100048008203820382038203820382038203820380
:100058008203820382032E008203820382038203C7
:10006800820382038203B1028203820382032E0089
:1000780022029D02700282032E0082038203820301
:1000880082038203820382032E0082032E008203EE
:100098008203820382038203820382038203820330
:1000A80082032E002E00D102820382038203820380
:1000B800FF00C2EF05F0010E076E0868E0EF00F0E0
:1000C800A50E086E61EF01F012EC06F0086E61EF04
:1000D80001F0000E086E61EF01F0E8EC06F0086E22
:1000E80061EF01F0010E01EC04F0086E61EF01F020
:1000F800010EBEEC03F0086E61EF01F0020E01EC98
:1001080004F0086E61EF01F0020EBEEC03F0086E19
:1001180061EF01F0030E01EC04F0086E61EF01F0ED
:10012800030EBEEC03F0086E61EF01F0040E01EC63
:1001380004F0086E61EF01F0040EBEEC03F0086EE7
:1001480061EF01F0050E01EC04F0086E61EF01F0BB
:10015800050EBEEC03F0086E61EF01F0060E01EC2F
:1001680004F0086E61EF01F0060EBEEC03F0086EB5
:1001780061EF01F0F9EC06F0086E61EF01F0F7ECC1
:1001880006F0086E61EF01F0F5EC06F0086E61EF1D
:1001980001F0F3EC06F0086E61EF01F0F1EC06F007
:1001A800086E61EF01F0EFEC06F0086E61EF01F008
:1001B800000E076E61EF01F03750056E066A0650B3
:1001C800000AD8B4EAEF00F0DCEF00F00550000AAE
:1001D800D8B464EF00F0010AD8B468EF00F0030A5D
:1001E800D8B46DEF00F0010AD8B461EF01F0070A46
:1001F800D8B461EF01F0020AD8B461EF01F0010A46
:10020800D8B471EF00F0170AD8B476EF00F0010AFD
:10021800D8B47CEF00F0030AD8B482EF00F0010AEA
:10022800D8B488EF00F0070AD8B48EEF00F0010ABE
:10023800D8B494EF00F0030AD8B49AEF00F0010A9A
:10024800D8B4A0EF00F00F0AD8B4A6EF00F0010A66
:10025800D8B4ACEF00F0030AD8B4B2EF00F0010A4A
:10026800D8B4B8EF00F03B0AD8B4BEEF00F0010AEA
:10027800D8B4C3EF00F0030AD8B4C8EF00F0010AFD
:10028800D8B4CDEF00F0070AD8B4D2EF00F0010AD5
:10029800D8B4D7EF00F0160AD8B461EF01F0070A16
:1002A800D8B461EF01F0010AD8B461EF01F0030A94
:1002B800D8B461EF01F0DCEF00F00750D8B467EF75
:1002C80001F069EF01F06AEF01F0372A08501200D7
:1002D8000F6E010E106E7AEF01F00F5079EC04F0FA
:1002E800FBEF01F0000E106EFBEF01F037500D6EC2
:1002F8000E6A0E50000AD8B484EF01F076EF01F0D0
:100308000D50000AD8B4FBEF01F0010AD8B471EF20
:1003180001F0030AD8B4FBEF01F0010AD8B4FBEFEF
:1003280001F0070AD8B4FBEF01F0020AD8B4FBEFDA
:1003380001F0010AD8B4FBEF01F0170AD8B4FBEFBB
:1003480001F0010AD8B4FBEF01F0030AD8B4FBEFBF
:1003580001F0010AD8B4FBEF01F0070AD8B4FBEFAB
:1003680001F0010AD8B4FBEF01F0030AD8B4FBEF9F
:1003780001F0010AD8B4FBEF01F00F0AD8B4FBEF83
:1003880001F0010AD8B4FBEF01F0030AD8B4FBEF7F
:1003980001F0010AD8B4FBEF01F03B0AD8B4FBEF37
:1003A80001F0010AD8B4FBEF01F0030AD8B4FBEF5F
:1003B80001F0010AD8B4FBEF01F0070AD8B4FBEF4B
:1003C80001F0010AD8B4FBEF01F0160AD8B4FBEF2C
:1003D80001F0070AD8B4FBEF01F0010AD8B4FBEF2B
:1003E80001F0030AD8B4FBEF01F076EF01F01050EA
:1003F800D8B401EF02F003EF02F004EF02F0372A5D
:10040800105012000D6E0FEF02F0010E90EF02F087
:10041800000E90EF02F00D500B6E0C6A0C50000AA3
:10042800D8B419EF02F00CEF02F00B50000AD8B460
:1004380009EF02F0010AD8B409EF02F0030AD8B4B0
:1004480009EF02F0010AD8B409EF02F0070AD8B49C
:1004580009EF02F0020AD8B409EF02F0010AD8B491
:1004680009EF02F0170AD8B409EF02F0010AD8B46C
:1004780009EF02F0030AD8B409EF02F0010AD8B470
:1004880009EF02F0070AD8B409EF02F0010AD8B45C
:1004980009EF02F0030AD8B409EF02F0010AD8B450
:1004A80009EF02F00F0AD8B409EF02F0010AD8B434
:1004B80009EF02F0030AD8B409EF02F0010AD8B430
:1004C80009EF02F03B0AD8B409EF02F0010AD8B4E8
:1004D80009EF02F0030AD8B409EF02F0010AD8B410
:1004E80009EF02F0070AD8B409EF02F0010AD8B4FC
:1004F80009EF02F0160AD8B409EF02F0070AD8B4D7
:1005080009EF02F0010AD8B409EF02F0030AD8B4DF
:1005180009EF02F00CEF02F01200000E696E000EF7
:10052800786E000E876E000E606E000E6F6E000E05
:100538007E6E040E616E040E706E040E7F6E000EE9
:10054800656E000E746E000E836E000E626E000EF5
:10055800716E000E806E020E646E6C0E636E020E7B
:10056800736E6C0E726E020E826E6C0E816E000ED1
:100578006C6E1F0E6B6E000E6E6E1F0E6D6E000E93
:100588007B6E1F0E7A6E000E7D6E1F0E7C6E000E47
:100598008A6E1F0E896E000E8C6E1F0E8B6E000EFB
:1005A800686E000E776E000E866E000E6A6E000E84
:1005B800796E000E886E070E9D6E120008EF03F02C
:1005C80020C56BF421C56CF42DEF03F020C56DF444
:1005D80021C56EF42DEF03F020C57AF421C57BF414
:1005E8002DEF03F020C57CF421C57DF42DEF03F039
:1005F80020C589F421C58AF42DEF03F020C58BF4BA
:1006080021C58CF42DEF03F02250236E246A245068
:10061800000AD8B412EF03F02DEF03F02350010ABB
:10062800D8B4E4EF02F0030AD8B4EAEF02F0010A02
:10063800D8B4F0EF02F0070AD8B4F6EF02F0010AD6
:10064800D8B4FCEF02F0030AD8B402EF03F02DEFA0
:1006580003F0120076EC03F0400E286ECFB837EFA7
:1006680003F03BEF03F0276A272A3CEF03F0276AE1
:10067800D89027342812D0B044EF03F047EF03F0A6
:10068800010E48EF03F0000E28122850DDEC05F0AB
:10069800010E206E010E216E030E226E010E2AEC51
:1006A80006F000EC07F091EC02F080EC06F0260E64
:1006B800206E0D0E216EBDEC06F001EC07F0F8EC93
:1006C80005F06CEC06F0F60E206E0D0E216EB8ECFF
:1006D80006F058EC06F0FA0E206E0D0E216EB3EC03
:1006E80006F01200C880C78804011091089909898A
:1006F8001181C79CC892089D1093BF9CC092C69058
:10070800C69200910093BE90BE92C684C78A0085A7
:10071800088B1085009B0099028B0289C69AC6989F
:10072800050E0201706F040E716F220E066F210E06
:10073800056F0401039B0399048B0489C79EBF9E20
:100748000A0E0201106FC89EC09E0B0E186FC89C3F
:10075800C09C0C0E176FC896C0960D0E146FC898E3
:10076800C0980E0E156FC89AC09A0F0E166F040126
:1007780010851200036E0468DAEF03F06BC404F509
:10078800FFEF03F06DC404F5FFEF03F07AC404F53E
:10079800FFEF03F07CC404F5FFEF03F089C404F510
:1007A800FFEF03F08BC404F5FFEF03F00350016E75
:1007B800026A0250000AD8B4E4EF03F0FFEF03F036
:1007C8000150010AD8B4C2EF03F0030AD8B4C6EF47
:1007D80003F0010AD8B4CAEF03F0070AD8B4CEEF81
:1007E80003F0010AD8B4D2EF03F0030AD8B4D6EF65
:1007F80003F0FFEF03F004501200036E04681DEFCE
:1008080004F06CC404F542EF04F06EC404F542EF42
:1008180004F07BC404F542EF04F07DC404F542EF14
:1008280004F08AC404F542EF04F08CC404F542EFE6
:1008380004F00350016E026A0250000AD8B427EF90
:1008480004F042EF04F00150010AD8B405EF04F0B7
:10085800030AD8B409EF04F0010AD8B40DEF04F084
:10086800070AD8B411EF04F0010AD8B415EF04F060
:10087800030AD8B419EF04F042EF04F00450120050
:10088800FAC413F5FBC414F58AC216F533503410B4
:10089800D8B451EF04F053EF04F073EF04F002D82A
:1008A80061EF04F00500FA6E3350FD6E3450FE6EB1
:1008B800F850FF6EFA5016501200E806D8A467EFF9
:1008C80004F06AEF04F0010E6BEF04F0000E156EF1
:1008D80015B003D00201959D02D00201958DBA9002
:1008E80014C5FBF413C5FAF411000B6E0BC50CF517
:1008F8000CAE81EF04F083EF04F086EF04F0C082C1
:1009080087EF04F0C0920CA48CEF04F08EEF04F093
:1009180093EF04F0BF8CA1EC06F096EF04F0BF9CB7
:10092800D1EC06F00CA29BEF04F09DEF04F0A0EFD1
:1009380004F0BE82A1EF04F0BE920CA0A6EF04F072
:10094800A8EF04F0ABEF04F0BE80ACEF04F0BE906B
:100958001200000E216E1F0E206E010E226EE2ECB8
:1009680002F0000E216E2F0E206E020E226EE2ECB7
:1009780002F0000E216E3E0E206E030E226EE2EC97
:1009880002F0000E216E1F0E206E040E226EE2ECA5
:1009980002F0000E216E2F0E206E050E226EE2EC84
:1009A80002F0000E216E3E0E206E060E226EE2EC64
:1009B80002F0E2EC06F01200FAC417F5FBC418F5D1
:1009C80002019AA5EAEF04F0ECEF04F007EF05F056
:1009D8008C69959D99852F503010D8B4F6EF04F0A6
:1009E800F8EF04F005EF05F002D805EF05F0050073
:1009F800FA6E2F50FD6E3050FE6EF850FF6EFA50B2
:100A0800120002019A95BA9418C5FBF417C5FAF4B6
:100A180011002EEC03F003EC07F002EC07F0820E55
:100A2800206E0C0E216EC7EC06F0CA0E206E0D0E5D
:100A3800216ECCEC06F0AC0E206E0D0E216EC2ECD1
:100A480006F0EDEC06F0DFEC06F0EBEC06F0000942
:100A5800D8B431EF05F033EF05F029EF05F0DBEC02
:0A0A680006F029EF05F05DEF00F045
:100A7400FAC409F5FBC40AF531503210D8B445EF75
:100A840005F047EF05F058EF05F002D854EF05F0F4
:100A94000500FA6E3150FD6E3250FE6EF850FF6E56
:100AA400FA50120002018B6F5BEF05F0000E020199
:0E0AB4008B6FBA920AC5FBF409C5FAF4110063
:100AC400FAC41AF5FBC41BF52D502E10D8B46DEFE3
:100AD40005F06FEF05F07CEF05F002D87CEF05F030
:100AE4000500FA6E2D50FD6E2E50FE6EF850FF6E0E
:100AF400FA501200B9961BC5FBF41AC5FAF411009A
:100B0400FAC41CF5FBC41DF52B502C10D8B48DEF82
:100B140005F08FEF05F09CEF05F002D89CEF05F08F
:100B24000500FA6E2B50FD6E2C50FE6EF850FF6ED1
:100B3400FA501200B6961DC5FBF41CC5FAF4110058
:100B4400FAC41EF5FBC41FF529502A10D8B4ADEF22
:100B540005F0AFEF05F0BCEF05F002D8BCEF05F0EF
:100B64000500FA6E2950FD6E2A50FE6EF850FF6E95
:100B7400FA501200BD961FC5FBF41EC5FAF411000D
:100B8400FE0EF66E0D0EF76E000EF86E0900F5C43B
:100B940038F50900F5C439F5376A366A356A04014F
:100BA400080E5D6F000E5E6F000E5F6F000EF86E34
:100BB40000010DEF05F0206E000E0201946FF80E97
:100BC4009417000E956F000E9B6F9B85010E9E6F10
:100BD4009F0E9D6F8C6920502024906FBA94BA9018
:100BE400BA92AF84AF80AF82948F1200000E0001DE
:100BF400A36FA387000EA46F070EA413000EA56FA6
:100C0400A551F80B0209A56F000EA66F3F0EA6179B
:100C1400A651E00B0209A66F000EA76FA38F120066
:100C2400000E016EC0A202D0018E01D0019EBFACA5
:100C340002D0018401D00194BEA202D0018201D06D
:100C44000192BEA002D0018001D001900150120097
:100C5400266E21C523F53F0E231620C524F5060E66
:100C6400256ED8902436252E33EF06F02640800BCF
:100C74002410231002019C6F22C59FF21200126EF1
:100C84003950D8B448EF06F04AEF06F052EF06F0B8
:100C9400000E396E125006EC02F0116E56EF06F09B
:100CA40012506CEC01F0116E11501200000E030191
:100CB4002B6F000E2C6F2C51E00B08092C6F000ECB
:100CC4002D6F0A0E2D6F000E2E6F000E2A6FBD962B
:100CD400B2861200000E03011E6F000E1F6F1F511B
:100CE400E00B08091F6F000E206F0A0E206F000E24
:100CF400216F010E1D6FB696AB861200000E040123
:100D0400466F000E476F4751E00B0209476F440ED0
:100D1400436F000E446F000E456FB996AE86468F42
:100D24001200BEA298EF06F09BEF06F0BE829CEF85
:100D340006F0BE92010E386E78C019F51200030158
:100D44001D51D8B4A8EF06F0AAEF06F0ABEF06F0F9
:100D54001E8F1200000E376E000E366E000E356EBA
:100D6400120020C529F521C52AF5120020C52BF54E
:100D740021C52CF5120020C52DF521C52EF5120034
:100D840020C52FF521C530F5120020C533F521C546
:100D940034F5120020C531F521C532F512000301E6
:100DA4001E9F000E1C6F1200010E396EACEC06F093
:100DB40012000400000E386E1200ADEC04F01200B4
:100DC400070E9C6E12005FEC00F0120003011D512F
:100DD400120038501200D68E120081501200825038
:100DE40012007250120073501200635012006450CB
:100DF4001200BF9C1200C0921200010112001200E6
:060E0400120012001100B3
:020000040020DA
:10000000FFFFFFFFFFFFFFFFFFFFFFFFFFFFFFFF00
:10001000FFFFFFFFFFFFFFFFFFFFFFFFFFFFFFFFF0
:10002000FFFFFFFFFFFFFFFFFFFFFFFFFFFFFFFFE0
:10003000FFFFFFFFFFFFFFFFFFFFFFFFFFFFFFFFD0
:020000040030CA
:090000008CFDFFF48BC6FFFFFF2D
:00000001FF
