:040000005DEF00F0C0
:10000800E704E704E704E704E704E704E704E70490
:10001800E704E704E704E704E704E704E704E70480
:10002800CD042E002E002E00E704E704E704E704C1
:10003800E704E704E704F103E704E704E704E70457
:10004800E704E704E704E704E704E704E704E70450
:10005800E704E704E7042E00E704E704E704E704FD
:10006800E704E704E704E103E704E704E7042E00F4
:100078001703BA036403E7042E00E704E704E70460
:10008800E704E704E704E7042E00E7042E00E7048A
:10009800E704E704E704E704E704E704E704E70400
:1000A800E7042E002E000104E704E704E704E70450
:1000B800FF0022EF08F0136E010E126E0CEF01F034
:1000C800135063EC06F085EF01F01350F5EC06F0E1
:1000D80085EF01F0000E126E85EF01F0135092ECDF
:1000E80009F085EF01F0135096EC09F085EF01F067
:1000F80013C529F52A6A85EF01F029502A6E296A65
:100108001350291229C50BF52AC50CF5010E0D6EE1
:1001180014EC05F085EF01F029502A6E296A135076
:10012800291229C50BF52AC50CF5020E0D6E14EC23
:1001380005F085EF01F029502A6E296A135029121B
:1001480029C50BF52AC50CF5030E0D6E14EC05F048
:1001580085EF01F029502A6E296A1350291229C502
:100168000BF52AC50CF5040E0D6E14EC05F085EFA1
:1001780001F029502A6E296A1350291229C50BF556
:100188002AC50CF5050E0D6E14EC05F085EF01F08F
:1001980029502A6E296A1350291229C50BF52AC538
:1001A8000CF5060E0D6E14EC05F085EF01F02950E4
:1001B8002A6E296A1350291229C50BF52AC50CF590
:1001C80084EC09F085EF01F029502A6E296A135052
:1001D800291229C50BF52AC50CF57FEC09F085EF26
:1001E80001F029502A6E296A1350291229C50BF5E6
:1001F8002AC50CF57AEC09F085EF01F0135051ECA3
:1002080003F085EF01F013504BEC07F085EF01F098
:100218003650106E116A1150000AD8B416EF01F06A
:100228006EEF00F01050000AD8B485EF01F0010A13
:10023800D8B464EF00F0030AD8B469EF00F0060AF6
:10024800D8B46EEF00F0010AD8B46EEF00F0030ADC
:10025800D8B472EF00F0010AD8B477EF00F0170AAB
:10026800D8B47CEF00F0010AD8B481EF00F0030A9B
:10027800D8B47CEF00F0010AD8B490EF00F0070A78
:10028800D8B47CEF00F0010AD8B49FEF00F0030A5D
:10029800D8B47CEF00F0010AD8B4AEEF00F00F0A32
:1002A800D8B47CEF00F0010AD8B4BDEF00F0030A1F
:1002B800D8B47CEF00F0010AD8B4CCEF00F03B0AC8
:1002C800D8B47CEF00F0010AD8B4DBEF00F0030AE1
:1002D800D8B47CEF00F0010AD8B4E8EF00F0070AC0
:1002E800D8B47CEF00F0010AD8B4F5EF00F0150A95
:1002F800D8B402EF01F0010AD8B407EF01F06EEFAD
:1003080000F01250D8B48BEF01F08DEF01F08EEFB2
:1003180001F0362A12501200010E076E086837EFF6
:1003280002F0A7EC09F092EC08F0086EB1EC09F0C5
:10033800056ED89005340812C1EC09F00812B0EF28
:1003480002F092EC08F0086EB0EF02F09BEC07F0B8
:10035800086EB0EF02F00FEC09F0086EB0EF02F093
:10036800FCEC08F0086EB0EF02F0A1EC09F0086EA2
:10037800B0EF02F0A4EC09F0086EB0EF02F0010E45
:10038800EBEC05F0086EB0EF02F0010EA8EC05F0FA
:10039800086EB0EF02F0020EEBEC05F0086EB0EF5D
:1003A80002F0020EA8EC05F0086EB0EF02F0030EA2
:1003B800EBEC05F0086EB0EF02F0030EA8EC05F0C8
:1003C800086EB0EF02F0040EEBEC05F0086EB0EF2B
:1003D80002F0040EA8EC05F0086EB0EF02F0050E6E
:1003E800EBEC05F0086EB0EF02F0050EA8EC05F096
:1003F800086EB0EF02F0060EEBEC05F0086EB0EFF9
:1004080002F0060EA8EC05F0086EB0EF02F0BDECA5
:1004180009F0086EB0EF02F0BBEC09F0086EB0EF1F
:1004280002F0B9EC09F0086EB0EF02F0B7EC09F091
:10043800086EB0EF02F0B5EC09F0086EB0EF02F00C
:10044800B3EC09F0086EB0EF02F0C3EC09F0086EE7
:10045800B0EF02F0BFEC09F0086EB0EF02F0000E4A
:10046800076EB0EF02F03650056E066A0650000AB5
:10047800D8B441EF02F033EF02F00550000AD8B4C7
:1004880095EF01F0010AD8B4A5EF01F0030AD8B43A
:10049800AAEF01F0060AD8B4AFEF01F0010AD8B408
:1004A800B4EF01F0030AD8B4B9EF01F0010AD8B4E7
:1004B800BEEF01F0170AD8B4C3EF01F0010AD8B4AF
:1004C800C9EF01F0030AD8B4CFEF01F0010AD8B49C
:1004D800D5EF01F0070AD8B4DBEF01F0010AD8B470
:1004E800E1EF01F0030AD8B4E7EF01F0010AD8B44C
:1004F800EDEF01F00F0AD8B4F3EF01F0010AD8B418
:10050800F9EF01F0030AD8B4FFEF01F0010AD8B4FB
:1005180005EF02F03B0AD8B40BEF02F0010AD8B499
:1005280010EF02F0030AD8B415EF02F0010AD8B4AC
:100538001AEF02F0070AD8B41FEF02F0010AD8B484
:1005480024EF02F0150AD8B429EF02F0010AD8B452
:100558002EEF02F033EF02F00750D8B4B6EF02F0F6
:10056800B8EF02F0B9EF02F0362A08501200266EF2
:1005780026C539F50301F39FF8EF02F0000EE76F87
:10058800F80EF5171AEF03F0020EE76FF551F80BA6
:100598000309F56FF5518F0B1009F56F1AEF03F08A
:1005A800040EE76FF551F80B0309F56FF5518F0B42
:1005B8002009F56F1AEF03F0080EE76FF551F80BF5
:1005C8000309F56FF5518F0B3009F56F1AEF03F03A
:1005D800100EE76FF551F80B0309F56FF5518F0B06
:1005E8004009F56F1AEF03F039500F0B246E256A96
:1005F8002550000AD8B403EF03F01AEF03F0245093
:10060800000AD8B4C2EF02F0010AD8B4C8EF02F069
:10061800030AD8B4D4EF02F0010AD8B4E0EF02F02C
:10062800070AD8B4ECEF02F01AEF03F03938E832D1
:10063800E832030B3BEC09F02EEF03F0F00E030158
:10064800F8174EEF03F00301F851F00B0309F86FA8
:100658004EEF03F03938E832E832030B246E256A8E
:100668002550000AD8B43BEF03F04EEF03F02450B6
:10067800000AD8B422EF03F0010AD8B427EF03F038
:10068800030AD8B427EF03F0010AD8B427EF03F020
:100698004EEF03F00301F38F12000E6E0EC539F50D
:1006A8000301F39F8EEF03F0000EE76FF80EF517C6
:1006B800B0EF03F0020EE76FF551F80B0309F56F81
:1006C800F5518F0B1009F56FB0EF03F0040EE76FCB
:1006D800F551F80B0309F56FF5518F0B2009F56FEC
:1006E800B0EF03F0080EE76FF551F80B0309F56F4B
:1006F800F5518F0B3009F56FB0EF03F0100EE76F6F
:10070800F551F80B0309F56FF5518F0B4009F56F9B
:10071800B0EF03F039500F0B0C6E0D6A0D50000A44
:10072800D8B499EF03F0B0EF03F00C50000AD8B436
:1007380058EF03F0010AD8B45EEF03F0030AD8B407
:100748006AEF03F0010AD8B476EF03F0070AD8B4C9
:1007580082EF03F0B0EF03F03938E832E832030BE8
:1007680043EC09F0C4EF03F0F00E0301F817E4EFCF
:1007780003F00301F851F00B0309F86FE4EF03F0FD
:100788003938E832E832030B0C6E0D6A0D50000A56
:10079800D8B4D1EF03F0E4EF03F00C50000AD8B45A
:1007A800B8EF03F0010AD8B4BDEF03F0030AD8B4D8
:1007B800BDEF03F0010AD8B4BDEF03F0E4EF03F096
:1007C8000301F38F12000D6EF2EF03F0010E0E6EAF
:1007D8006BEF04F0000E0E6E6BEF04F00D500B6E15
:1007E8000C6A0C50000AD8B4FCEF03F0EEEF03F0EB
:1007F8000B50000AD8B4EAEF03F0010AD8B4EAEFC4
:1008080003F0030AD8B4EAEF03F0060AD8B4EAEF13
:1008180003F0010AD8B4EAEF03F0030AD8B4EAEF08
:1008280003F0010AD8B4EAEF03F0170AD8B4EAEFE4
:1008380003F0010AD8B4EAEF03F0030AD8B4EAEFE8
:1008480003F0010AD8B4EAEF03F0070AD8B4EAEFD4
:1008580003F0010AD8B4EAEF03F0030AD8B4EAEFC8
:1008680003F0010AD8B4EAEF03F00F0AD8B4EAEFAC
:1008780003F0010AD8B4EAEF03F0030AD8B4EAEFA8
:1008880003F0010AD8B4EAEF03F03B0AD8B4EAEF60
:1008980003F0010AD8B4EAEF03F0030AD8B4EAEF88
:1008A80003F0010AD8B4EAEF03F0070AD8B4EAEF74
:1008B80003F0010AD8B4EAEF03F0150AD8B4EAEF56
:1008C80003F0010AD8B4EAEF03F0EEEF03F00E509C
:1008D800D8B471EF04F073EF04F075EF04F00DC5B0
:1008E80036F50E501200000E696E000E786E000E7E
:1008F800876E000E606E000E6F6E000E7E6E050E27
:10090800616E050E706E050E7F6E000E656E000E30
:10091800746E000E836E000E626E000E716E000E15
:10092800806E270E646E100E636E270E736E100EA7
:10093800726E270E826E100E816E000E6C6EFA0EAD
:100948006B6E000E6E6EFA0E6D6E000E7B6EFA0EFA
:100958007A6E000E7D6EFA0E7C6E000E8A6EFA0EAE
:10096800896E000E8C6EFA0E8B6E000E686E000E8D
:10097800776E000E866E000E6A6E000E796E000E9F
:10098800886E070E9D6E120060EC05F0400E0501A2
:10099800626FCFB8D2EF04F0D6EF04F0616B612B31
:1009A800D8EF04F00501616BD89061356213D0B0BF
:1009B800E0EF04F0E3EF04F0010EE4EF04F0000EC2
:1009C800621362515EEC08F0010E236E050E246E70
:1009D800030E256E010E79EC08F0CAEC09F077ECED
:1009E80004F0E9EC08F0440E236E120E246E5CEC61
:1009F80009F061EC09F097EC06F040EC08F0D5EC52
:100A080008F08A0E236E130E246E57EC09F0C1EC21
:100A180008F08E0E236E130E246E52EC09F01200AD
:100A28003AEF05F00BC56BF40CC56CF45FEF05F0FD
:100A38000BC56DF40CC56EF45FEF05F00BC57AF4C9
:100A48000CC57BF45FEF05F00BC57CF40CC57DF499
:100A58005FEF05F00BC589F40CC58AF45FEF05F06C
:100A68000BC58BF40CC58CF45FEF05F00D500E6EC2
:100A78000F6A0F50000AD8B444EF05F05FEF05F095
:100A88000E50010AD8B416EF05F0030AD8B41CEFCB
:100A980005F0010AD8B422EF05F0070AD8B428EF08
:100AA80005F0010AD8B42EEF05F0030AD8B434EFE4
:100AB80005F05FEF05F01200C880C78804011091A7
:100AC800089909891181C79CC892089D1093BF9CF9
:100AD800C092C690C69200910093BE90BE92C68402
:100AE800C78A0085088B1085009B0099028B0289B4
:100AF800C69AC698050E0201706F040E716F220E19
:100B0800066F210E056F0401039B0399048B04896A
:100B1800C79EBF9E0F0E0201106FC89EC09E0E0E8C
:100B2800186FC89CC09C0D0E176FC896C0960C0E07
:100B3800146FC898C0980B0E156FC89AC09A0A0E01
:100B4800166F040110851200036E0468C4EF05F0E7
:100B58006BC404F5E9EF05F06DC404F5E9EF05F0A1
:100B68007AC404F5E9EF05F07CC404F5E9EF05F073
:100B780089C404F5E9EF05F08BC404F5E9EF05F045
:100B88000350016E026A0250000AD8B4CEEF05F095
:100B9800E9EF05F00150010AD8B4ACEF05F0030AFB
:100BA800D8B4B0EF05F0010AD8B4B4EF05F0070ADD
:100BB800D8B4B8EF05F0010AD8B4BCEF05F0030AC1
:100BC800D8B4C0EF05F0E9EF05F004501200036E49
:100BD800046807EF06F06CC404F52CEF06F06EC449
:100BE80004F52CEF06F07BC404F52CEF06F07DC469
:100BF80004F52CEF06F08AC404F52CEF06F08CC43B
:100C080004F52CEF06F00350016E026A0250000A48
:100C1800D8B411EF06F02CEF06F00150010AD8B451
:100C2800EFEF05F0030AD8B4F3EF05F0010AD8B4E2
:100C3800F7EF05F0070AD8B4FBEF05F0010AD8B4BE
:100C4800FFEF05F0030AD8B403EF06F02CEF06F027
:100C580004501200FAC416F5FBC417F58AC219F538
:100C680033503410D8B43BEF06F03DEF06F05DEF9B
:100C780006F002D84BEF06F00500FA6E3350FD6E11
:100C88003450FE6EF850FF6EFA5019501200E80604
:100C9800D8A451EF06F054EF06F0010E55EF06F018
:100CA800000E186E18B003D00201959D02D0020103
:100CB800958DBA9017C5FBF416C5FAF411000B6EA2
:100CC8000BC50CF50CAE6BEF06F06DEF06F070EF90
:100CD80006F0C08271EF06F0C0920CA476EF06F021
:100CE80078EF06F07DEF06F0BF8C30EC09F080EF6E
:100CF80006F0BF9C75EC09F00CA285EF06F087EFB3
:100D080006F08AEF06F0BE828BEF06F0BE920CA0CA
:100D180090EF06F092EF06F095EF06F0BE8096EFA2
:100D280006F0BE901200000E0301F36FF389F35131
:100D3800F30B0409F36F000EF46F000EF56F000E4D
:100D4800F66F070EF613000EF86F820EEC6F000EAA
:100D5800F26F000EF16F000EEF6F020EEE6F000ED5
:100D6800F06F190EF96F000ED86F000E396EF00E85
:100D7800391639503F0B8009396E3950BBEC02F0F7
:060D8800B590AA801200E4
:100D9000FAC41AF5FBC41BF502019AA5D2EF06F0BE
:100DA000D4EF06F0EFEF06F08C69959D99852F50F2
:100DB0003010D8B4DEEF06F0E0EF06F0EDEF06F00D
:100DC00002D8EDEF06F00500FA6E2F50FD6E3050A0
:100DD000FE6EF850FF6EFA50120002019A95BA9416
:100DE0001BC5FBF41AC5FAF411000D6E07EF07F0EE
:100DF000820E0301EC6F20EF07F08D0E0301EC6F04
:100E000020EF07F03B0E0301EC6F20EF07F00D50D1
:100E10000B6E0C6A0C50000AD8B411EF07F020EFEB
:100E200007F00B50010AD8B4F8EF06F0030AD8B463
:100E3000FDEF06F0010AD8B402EF07F020EF07F04B
:100E40001200C8EC04F0CCEC09F0CBEC09F0540E25
:100E5000236E110E246E6BEC09F03C0E236E130E04
:100E6000246E70EC09F0120E236E130E246E66ECE5
:100E700009F0AFEC09F0ADEC09F00009D8B443EF8C
:100E800007F045EF07F03BEF07F08EEC09F03BEF82
:100E900007F05DEF00F00C6E0CC537F50001A39F65
:100EA00037A655EF07F057EF07F05FEF07F0A3877E
:100EB000A4978F0EA5173F0EA61772EF07F0A39702
:100EC0003750070B0B6E0B3AA4510B188F0B0B18F6
:100ED000A46FA487A5518F0B1009A56FA6513F0BD6
:100EE0008009A66FA38F1200FAC409F5FBC40AF5A6
:100EF00031503210D8B47FEF07F081EF07F092EF56
:100F000007F002D88EEF07F00500FA6E3150FD6E43
:100F10003250FE6EF850FF6EFA50120002018B6FD5
:100F200095EF07F0000E02018B6FBA920AC5FBF431
:100F300009C5FAF41100820E0301EC19D8A4A3EF3D
:100F400007F0A5EF07F0A8EF07F0010EC1EF07F0DB
:100F50008D0EEC19D8A4AFEF07F0B1EF07F0B4EFA6
:100F600007F0020EC1EF07F03B0EEC19D8A4BBEF5F
:100F700007F0BDEF07F0C0EF07F0030EC1EF07F079
:100F8000000E1200FAC41DF5FBC41EF53A503B10CA
:100F9000D8B4CDEF07F0CFEF07F0DCEF07F002D8C1
:100FA000DCEF07F00500FA6E3A50FD6E3B50FE6E26
:100FB000F850FF6EFA501200B9961EC5FBF41DC51D
:100FC000FAF41100FAC41FF5FBC420F52D502E10C1
:100FD000D8B4EDEF07F0EFEF07F0FCEF07F002D821
:100FE000FCEF07F00500FA6E2D50FD6E2E50FE6EE0
:100FF000F850FF6EFA501200B69620C5FBF41FC5DC
:10100000FAF41100FAC421F5FBC422F52B502C1080
:10101000D8B40DEF08F00FEF08F01CEF08F002D87D
:101020001CEF08F00500FA6E2B50FD6E2C50FE6E82
:10103000F850FF6EFA501200BD9622C5FBF421C590
:10104000FAF41100920EF66E130EF76E000EF86EA3
:101050000900F5C43CF50900F5C43DF501EE29F1A0
:10106000110EEE6AE806FDE10401080E5D6F000E48
:101070005E6F000E5F6F000EF86E000121EF07F04B
:10108000000E0001A36FA387A38B000EA46F070EB1
:10109000A413000EA56FA551F80B0209A56F000E51
:1010A000A66F3F0EA617A651E00B0209A66F000E11
:1010B000A76FA38F000E376E37861200236E000EC7
:1010C0000201946FF80E9417000E956F000E9B6F3F
:1010D0009B85010E9E6F9F0E9D6F8C69235023246C
:1010E000906FBA94BA90BA92AF84AF80AF82948F67
:1010F00012000501606F24C526F53F0E261623C594
:1011000027F5060E286ED8902736282E83EF08F094
:1011100005016041800B2710261002019C6F25C538
:101120009FF21200000E016EC0A202D0018E01D00B
:10113000019EBFAC02D0018401D00194BEA202D0B6
:10114000018201D00192BEA002D0018001D00190A5
:1011500001501200156E3D50D8B4B1EF08F0B3EF56
:1011600008F0BBEF08F0000E3D6E1550E7EC03F001
:10117000146EBFEF08F015505FEC00F0146E1450C1
:101180001200000E03012B6F000E2C6F2C51E00B90
:1011900008092C6F000E2D6F0A0E2D6F000E2E6F9A
:1011A000000E2A6FBD96B2861200000E03011E6F5C
:1011B000000E1F6F1F51E00B08091F6F000E206FFC
:1011C0000A0E206F000E216F000E1D6FB696AB86C3
:1011D0001200000E0401466F000E476F4751E00BEE
:1011E0000209476F440E436F000E446F000E456FB7
:1011F000B996AE86468F1200000E386E39500F0B2E
:101200000009D8A406EF09F008EF09F00CEF09F087
:101210000301EA510EEF09F00301E1511200000E43
:10122000386E39500F0B0009D8A419EF09F01BEFE5
:1012300009F01FEF09F00301EB5121EF09F0030161
:10124000E2511200BEA227EF09F02AEF09F0BE8298
:101250002BEF09F0BE92010E3C6E78C01CF5120017
:1012600003011D51D8B437EF09F039EF09F03AEF17
:1012700009F01E8F1200236E0301D7512318FC0BB7
:101280002318D76F12000B6E0301D7510B18FC0BFC
:101290000B18D76F1200000E2A6E000E296EAAECF2
:1012A00009F0120023C52BF524C52CF5120023C527
:1012B0002DF524C52EF5120023C53AF524C53BF5BE
:1012C0001200000E0301D76FD78F120023C52FF530
:1012D00024C530F5120023C533F524C534F51200BA
:1012E00023C531F524C532F5120003011E9F000EFF
:1012F0001C6F12000BC581F40CC582F412000BC5E3
:1013000072F40CC573F412000BC563F40CC564F4DD
:101310001200010E3D6E4BEC09F012000400000EAD
:101320003C6E12000B6E0BC52AF312000B6E0BC540
:101330001DF31200010E386EB590110090EC01F013
:10134000120003012A51120003011D511200000E68
:10135000356E1200070E9C6E12003C501200D68EA5
:10136000120035501200815012008250120072504B
:101370001200735012006350120064501200375074
:1013800012003850120039501200BF9C1200C09257
:0A1390001200010112001200120009
:02139C0011003E
:020000040020DA
:10000000FFFFFFFFFFFFFFFFFFFFFFFFFFFFFFFF00
:10001000FFFFFFFFFFFFFFFFFFFFFFFFFFFFFFFFF0
:10002000FFFFFFFFFFFFFFFFFFFFFFFFFFFFFFFFE0
:10003000FFFFFFFFFFFFFFFFFFFFFFFFFFFFFFFFD0
:020000040030CA
:090000008CFDFFF4EBC6FFFFFFCD
:00000001FF
