:040000005DEF00F0C0
:100008007205720572057205720572057205720530
:100018007205720572057205720572057205720520
:1000280055052E002E002E00720572057205720508
:1000380072057205720574047205720572057205FF
:1000480072057205720572057205720572057205F0
:100058007205720572052E00720572057205720529
:1000680072057205720564047205720572052E0028
:1000780064033F04FE0325052E0072057205720510
:1000880072057205720572052E0072052E00720542
:1000980072057205720572057205720572057205A0
:1000A80072052E002E008404720572057205720511
:1000B800FF0028EF09F0136E010E126E11EF01F028
:1000C800135032EC07F08EEF01F01350FDEC06F000
:1000D8008EEF01F0000E126E8EEF01F013509DECC2
:1000E8000AF08EEF01F01350A1EC0AF08EEF01F048
:1000F80013C527F5286A8EEF01F02750286E276A66
:100108001350271227C50BF528C50CF5010E0D6EE7
:1001180079EC05F08EEF01F02750286E276A13500E
:10012800271227C50BF528C50CF5020E0D6E79ECC4
:1001380005F08EEF01F02750286E276A135027121A
:1001480027C50BF528C50CF5030E0D6E79EC05F0E7
:100158008EEF01F02750286E276A1350271227C503
:100168000BF528C50CF5040E0D6E79EC05F08EEF35
:1001780001F02750286E276A1350271227C50BF560
:1001880028C50CF5050E0D6E79EC05F08EEF01F023
:100198002750286E276A1350271227C50BF528C544
:1001A8000CF5060E0D6E79EC05F08EEF01F0275078
:1001B800286E276A1350271227C50BF528C50CF59A
:1001C8008BEC0AF08EEF01F02750286E276A135047
:1001D800271227C50BF528C50CF586EC0AF08EEF1B
:1001E80001F02750286E276A1350271227C50BF5F0
:1001F80028C50CF581EC0AF08EEF01F0135063EC82
:1002080003F08EEF01F0135055EC08F08EEF01F07B
:100218001350A5EC0AF08EEF01F03650106E116AFB
:100228001150000AD8B41BEF01F06EEF00F0105027
:10023800000AD8B48EEF01F0010AD8B464EF00F0D8
:10024800030AD8B469EF00F0060AD8B46EEF00F0DC
:10025800010AD8B46EEF00F0030AD8B472EF00F0C8
:10026800010AD8B477EF00F0170AD8B47CEF00F091
:10027800010AD8B481EF00F0030AD8B47CEF00F08B
:10028800010AD8B490EF00F0070AD8B47CEF00F068
:10029800010AD8B49FEF00F0030AD8B47CEF00F04D
:1002A800010AD8B4AEEF00F00F0AD8B47CEF00F022
:1002B800010AD8B4BDEF00F0030AD8B47CEF00F00F
:1002C800010AD8B4CCEF00F03B0AD8B47CEF00F0B8
:1002D800010AD8B4DBEF00F0030AD8B47CEF00F0D1
:1002E800010AD8B4E8EF00F0070AD8B47CEF00F0B0
:1002F800010AD8B4F5EF00F0150AD8B402EF01F0FE
:10030800010AD8B407EF01F0030AD8B40CEF01F0E2
:100318006EEF00F01250D8B494EF01F096EF01F0B0
:1003280097EF01F0362A12501200010E076E086886
:1003380045EF02F0BAEC0AF07CEC09F0086EC7EC65
:100348000AF0056ED89005340812D7EC0AF00812A6
:10035800C2EF02F07CEC09F0086EC2EF02F099ECF3
:1003680007F0086EC2EF02F0F9EC09F0086EC2EF70
:1003780002F0E6EC09F0086EC2EF02F0B4EC0AF005
:10038800086EC2EF02F0B7EC0AF0086EC2EF02F096
:10039800010E50EC06F0086EC2EF02F0010E0DECF3
:1003A80006F0086EC2EF02F0020E50EC06F0086E7E
:1003B800C2EF02F0020E0DEC06F0086EC2EF02F07A
:1003C800030E50EC06F0086EC2EF02F0030E0DECBF
:1003D80006F0086EC2EF02F0040E50EC06F0086E4C
:1003E800C2EF02F0040E0DEC06F0086EC2EF02F048
:1003F800050E50EC06F0086EC2EF02F0050E0DEC8B
:1004080006F0086EC2EF02F0060E50EC06F0086E19
:10041800C2EF02F0060E0DEC06F0086EC2EF02F015
:10042800D3EC0AF0086EC2EF02F0D1EC0AF0086EC5
:10043800C2EF02F0CFEC0AF0086EC2EF02F0CDEC8A
:100448000AF0086EC2EF02F0CBEC0AF0086EC2EFB9
:1004580002F0C9EC0AF0086EC2EF02F0D9EC0AF01B
:10046800086EC2EF02F0D5EC0AF0086EC2EF02F097
:10047800BDEC0AF0086EC2EF02F0000E076EC2EF84
:1004880002F03650056E066A0650000AD8B44FEFDF
:1004980002F041EF02F00550000AD8B49EEF01F0D7
:1004A800010AD8B4AEEF01F0030AD8B4B3EF01F0F3
:1004B800060AD8B4B8EF01F0010AD8B4BDEF01F0CC
:1004C800030AD8B4C2EF01F0010AD8B4C7EF01F0AB
:1004D800170AD8B4CCEF01F0010AD8B4D2EF01F072
:1004E800030AD8B4D8EF01F0010AD8B4DEEF01F05E
:1004F800070AD8B4E4EF01F0010AD8B4EAEF01F032
:10050800030AD8B4F0EF01F0010AD8B4F6EF01F00D
:100518000F0AD8B4FCEF01F0010AD8B402EF02F0D8
:10052800030AD8B408EF02F0010AD8B40EEF02F0BB
:100538003B0AD8B414EF02F0010AD8B419EF02F05C
:10054800030AD8B41EEF02F0010AD8B423EF02F070
:10055800070AD8B428EF02F0010AD8B42DEF02F048
:10056800150AD8B432EF02F0010AD8B437EF02F016
:10057800030AD8B43CEF02F041EF02F00750D8B4B8
:10058800C8EF02F0CAEF02F0CBEF02F0362A0850AB
:100598001200266E26C539F50301F39F0AEF03F012
:1005A800000EE76FF80EF5172CEF03F0020EE76F59
:1005B800F551F80B0309F56FF5518F0B1009F56F1D
:1005C8002CEF03F0040EE76FF551F80B0309F56FF4
:1005D800F5518F0B2009F56F2CEF03F0080EE76F2C
:1005E800F551F80B0309F56FF5518F0B3009F56FCD
:1005F8002CEF03F0100EE76FF551F80B0309F56FB8
:10060800F5518F0B4009F56F2CEF03F039500F0BA4
:10061800246E256A2550000AD8B415EF03F02CEF94
:1006280003F02450000AD8B4D4EF02F0010AD8B479
:10063800DAEF02F0030AD8B4E6EF02F0010AD8B400
:10064800F2EF02F0070AD8B4FEEF02F02CEF03F045
:100658003938E832E832030B39EC0AF040EF03F09E
:10066800F00E0301F81760EF03F00301F851F00BE7
:100678000309F86F60EF03F03938E832E832030B0A
:10068800246E256A2550000AD8B44DEF03F060EFB8
:1006980003F02450000AD8B434EF03F0010AD8B4A8
:1006A80039EF03F0030AD8B439EF03F0010AD8B4DC
:1006B80039EF03F060EF03F00301F38F12000E6EC1
:1006C8000EC539F50301F39FA0EF03F0000EE76FA5
:1006D800F80EF517C2EF03F0020EE76FF551F80BAD
:1006E8000309F56FF5518F0B1009F56FC2EF03F091
:1006F800040EE76FF551F80B0309F56FF5518F0BF1
:100708002009F56FC2EF03F0080EE76FF551F80BFB
:100718000309F56FF5518F0B3009F56FC2EF03F040
:10072800100EE76FF551F80B0309F56FF5518F0BB4
:100738004009F56FC2EF03F039500F0B0C6E0D6ACC
:100748000D50000AD8B4ABEF03F0C2EF03F00C5021
:10075800000AD8B46AEF03F0010AD8B470EF03F0C6
:10076800030AD8B47CEF03F0010AD8B488EF03F089
:10077800070AD8B494EF03F0C2EF03F03938E8322F
:10078800E832030B41EC0AF0D6EF03F0F00E030158
:10079800F817F6EF03F00301F851F00B0309F86FAF
:1007A800F6EF03F03938E832E832030B0C6E0D6AC5
:1007B8000D50000AD8B4E3EF03F0F6EF03F00C5045
:1007C800000AD8B4CAEF03F0010AD8B4CFEF03F097
:1007D800030AD8B4CFEF03F0010AD8B4CFEF03F07F
:1007E800F6EF03F00301F38F12000D6E04EF04F02F
:1007F800010E0E6E81EF04F0000E0E6E81EF04F014
:100808000D500B6E0C6A0C50000AD8B40EEF04F0B1
:1008180000EF04F00B50000AD8B4FCEF03F0010A13
:10082800D8B4FCEF03F0030AD8B4FCEF03F0060ACF
:10083800D8B4FCEF03F0010AD8B4FCEF03F0030AC4
:10084800D8B4FCEF03F0010AD8B4FCEF03F0170AA0
:10085800D8B4FCEF03F0010AD8B4FCEF03F0030AA4
:10086800D8B4FCEF03F0010AD8B4FCEF03F0070A90
:10087800D8B4FCEF03F0010AD8B4FCEF03F0030A84
:10088800D8B4FCEF03F0010AD8B4FCEF03F00F0A68
:10089800D8B4FCEF03F0010AD8B4FCEF03F0030A64
:1008A800D8B4FCEF03F0010AD8B4FCEF03F03B0A1C
:1008B800D8B4FCEF03F0010AD8B4FCEF03F0030A44
:1008C800D8B4FCEF03F0010AD8B4FCEF03F0070A30
:1008D800D8B4FCEF03F0010AD8B4FCEF03F0150A12
:1008E800D8B4FCEF03F0010AD8B4FCEF03F0030A14
:1008F800D8B4FCEF03F000EF04F00E50D8B487EF43
:1009080004F089EF04F08BEF04F00DC536F50E50B6
:100918001200000E696E000E786E000E876E000ED3
:10092800606E000E6F6E000E7E6E050E616E050E17
:10093800706E050E7F6E000E656E000E746E000EF2
:10094800836E000E626E000E716E000E806E270EB2
:10095800646E100E636E270E736E100E726E270E85
:10096800826E100E816E000E6C6EFA0E6B6E000EAB
:100978006E6EFA0E6D6E000E7B6EFA0E7A6E000EBB
:100988007D6EFA0E7C6E000E8A6EFA0E896E000E6F
:100998008C6EFA0E8B6E000E686E000E776E000E6F
:1009A800866E000E6A6E000E796E000E886E070E57
:1009B8009D6E1200C5EC05F0400E0501646FCFB8BE
:1009C800E8EF04F0ECEF04F0636B632BEEEF04F058
:1009D8000501636BD89063356413D0B0F6EF04F06B
:1009E800F9EF04F0010EFAEF04F0000E64136451FD
:1009F800A5EC08F0010E236E050E246E030E256E7D
:100A0800010E64EC09F0E0EC0AF08DEC04F0D3EC94
:100A180009F0180E236E140E246E68EC0AF030EC00
:100A28000AF01AEC0AF0CCEC07F046EC09F0BFEC3F
:100A380009F0B60E236E150E246E63EC0AF0ABECCB
:100A480009F0BA0E236E150E246E5EEC0AF0120041
:100A580052EF05F023C56BF424C56CF478EF05F06C
:100A680023C56DF424C56EF478EF05F023C57AF438
:100A780024C57BF478EF05F023C57CF424C57DF408
:100A880078EF05F023C589F424C58AF478EF05F0DA
:100A980023C58BF424C58CF478EF05F025500501A7
:100AA800606F616B6151000AD8B45DEF05F078EFB3
:100AB80005F06051010AD8B42EEF05F0030AD8B446
:100AC80034EF05F0010AD8B43AEF05F0070AD8B4B4
:100AD80040EF05F0010AD8B446EF05F0030AD8B490
:100AE8004CEF05F078EF05F012009FEF05F00BC50D
:100AF8006BF40CC56CF4C4EF05F00BC56DF40CC5B4
:100B08006EF4C4EF05F00BC57AF40CC57BF4C4EFA2
:100B180005F00BC57CF40CC57DF4C4EF05F00BC5DE
:100B280089F40CC58AF4C4EF05F00BC58BF40CC529
:100B38008CF4C4EF05F00D500E6E0F6A0F50000ACA
:100B4800D8B4A9EF05F0C4EF05F00E50010AD8B4E7
:100B58007BEF05F0030AD8B481EF05F0010AD8B499
:100B680087EF05F0070AD8B48DEF05F0010AD8B46D
:100B780093EF05F0030AD8B499EF05F0C4EF05F038
:100B88001200C880C7880401109108990989118149
:100B9800C79CC892089D1093BF9CC092C690C692ED
:100BA80000910093BE90BE92C684C78A0085088BC8
:100BB8001085009B0099028B0289C69AC698050E7B
:100BC8000201706F040E716F220E066F210E056F01
:100BD8000401039B0399048B0489C79EBF9E0F0ED3
:100BE8000201106FC89EC09E0E0E186FC89CC09C54
:100BF8000D0E176FC896C0960C0E146FC898C09843
:100C08000B0E156FC89AC09A0A0E166F040110854C
:100C18001200036E046829EF06F06BC404F54EEF6A
:100C280006F06DC404F54EEF06F07AC404F54EEFF5
:100C380006F07CC404F54EEF06F089C404F54EEFC7
:100C480006F08BC404F54EEF06F00350016E026AFD
:100C58000250000AD8B433EF06F04EEF06F0015008
:100C6800010AD8B411EF06F0030AD8B415EF06F05C
:100C7800010AD8B419EF06F0070AD8B41DEF06F038
:100C8800010AD8B421EF06F0030AD8B425EF06F01C
:100C98004EEF06F004501200036E04686CEF06F085
:100CA8006CC404F591EF06F06EC404F591EF06F0FC
:100CB8007BC404F591EF06F07DC404F591EF06F0CE
:100CC8008AC404F591EF06F08CC404F591EF06F0A0
:100CD8000350016E026A0250000AD8B476EF06F09B
:100CE80091EF06F00150010AD8B454EF06F0030A58
:100CF800D8B458EF06F0010AD8B45CEF06F0070A3A
:100D0800D8B460EF06F0010AD8B464EF06F0030A1D
:100D1800D8B468EF06F091EF06F004501200256E83
:100D2800AAEF06F0820E0301EC6FC7EF06F08D0EF6
:100D38000301EC6FC7EF06F03B0E0301EC6FC7EF42
:100D480006F03A0E0301EC6FC7EF06F02550236E4C
:100D5800246A2450000AD8B4B4EF06F0C7EF06F0AE
:100D68002350010AD8B496EF06F0030AD8B49BEFD3
:100D780006F0010AD8B4A0EF06F0070AD8B4A5EF28
:100D880006F0C7EF06F01200FAC416F5FBC417F513
:100D98008AC219F533503410D8B4D5EF06F0D7EF1E
:100DA80006F0F7EF06F002D8E5EF06F00500FA6E58
:100DB8003350FD6E3450FE6EF850FF6EFA501950E5
:100DC8001200E806D8A4EBEF06F0EEEF06F0010EED
:100DD800EFEF06F0000E186E18B003D00201959DD3
:100DE80002D00201958DBA9017C5FBF416C5FAF426
:100DF80011000D6E14EF07F0820E0301EC6F31EF56
:100E080007F08D0E0301EC6F31EF07F03B0E030185
:100E1800EC6F31EF07F03A0E0301EC6F31EF07F09A
:100E28000D500B6E0C6A0C50000AD8B41EEF07F078
:100E380031EF07F00B50010AD8B400EF07F0030AAE
:100E4800D8B405EF07F0010AD8B40AEF07F0070A8B
:100E5800D8B40FEF07F031EF07F012000B6E0BC597
:100E68000CF50CAE3AEF07F03CEF07F03FEF07F058
:100E7800C08240EF07F0C0920CA445EF07F047EF9F
:100E880007F04CEF07F0BF8C25EC0AF04FEF07F0A6
:100E9800BF9C7CEC0AF00CA254EF07F056EF07F069
:100EA80059EF07F0BE825AEF07F0BE920CA05FEF31
:100EB80007F061EF07F064EF07F0BE8065EF07F019
:100EC800BE901200000E246EFA0E236E010E256EDF
:100ED8002CEC05F0010E246EF40E236E020E256E26
:100EE8002CEC05F0020E246EEE0E236E030E256E1A
:100EF8002CEC05F0030E246EE80E236E040E256E0E
:100F08002CEC05F0040E246EE20E236E050E256E01
:100F18002CEC05F0000E246EFA0E236E060E256EDC
:100F28002CEC05F0AEEC0AF01200820E0301EC196D
:100F3800D8A4A1EF07F0A3EF07F0A6EF07F0010E82
:100F4800CBEF07F08D0EEC19D8A4ADEF07F0AFEF9B
:100F580007F0B2EF07F0020ECBEF07F03B0EEC19EB
:100F6800D8A4B9EF07F0BBEF07F0BEEF07F0030E08
:100F7800CBEF07F03A0EEC19D8A4C5EF07F0C7EF8E
:100F880007F0CAEF07F0040ECBEF07F0000E1200CF
:100F9800000E0301F36FF389F351F30B0409F36FA8
:100FA800000EF46F000EF56F000EF66F070EF613C5
:100FB800000EF86F820EEC6F000EF26F000EF16FEC
:100FC800000EEF6F020EEE6F000EF06F190EF96F44
:100FD800000ED86F000E396EF00E391639503F0BDF
:100FE8008009396E3950CDEC02F0B590AA80120014
:100FF800FAC41AF5FBC41BF502019AA506EF08F01E
:1010080008EF08F023EF08F08C69959D99852F501B
:101018003010D8B412EF08F014EF08F021EF08F000
:1010280002D821EF08F00500FA6E2F50FD6E3050FF
:10103800FE6EF850FF6EFA50120002019A95BA94AB
:101048001BC5FBF41AC5FAF41100DEEC04F0E2EC5F
:101058000AF0E1EC0AF0280E236E130E246E72ECEF
:101068000AF0620E236E150E246E77EC0AF0200E3D
:10107800236E150E246E6DEC0AF0C5EC0AF059ECDF
:101088000AF0C3EC0AF00009D8B44DEF08F04FEFAE
:1010980008F045EF08F099EC0AF045EF08F05DEF2D
:1010A80000F00C6E0CC537F50001A39F37A65FEF63
:1010B80008F061EF08F069EF08F0A387A4978F0E96
:1010C800A5173F0EA6177CEF08F0A3973750070B1C
:1010D8000B6E0B3AA4510B188F0B0B18A46FA48737
:1010E800A5518F0B1009A56FA6513F0B8009A66F5C
:1010F800A38F1200FAC409F5FBC40AF53150321067
:10110800D8B489EF08F08BEF08F09CEF08F002D80C
:1011180098EF08F00500FA6E3150FD6E3250FE6E01
:10112800F850FF6EFA50120002018B6F9FEF08F023
:10113800000E02018B6FBA920AC5FBF409C5FAF4D6
:101148001100236E000E0201946FF80E9417000E22
:10115800956F000E9B6F9B85010E9E6F9F0E9D6F76
:101168008C6923502324906F000E976F9785978181
:101178009783BA94BA90BA92BA96AF84AF80AF8286
:06118800AF86948F1200F7
:10119000FAC41DF5FBC41EF53A503B10D8B4D3EF8A
:1011A00008F0D5EF08F0E2EF08F002D8E2EF08F01F
:1011B0000500FA6E3A50FD6E3B50FE6EF850FF6E21
:1011C000FA501200B9961EC5FBF41DC5FAF41100C1
:1011D000FAC41FF5FBC420F52B502C10D8B4F3EF44
:1011E00008F0F5EF08F002EF09F002D802EF09F07D
:1011F0000500FA6E2B50FD6E2C50FE6EF850FF6EFF
:10120000FA501200B69620C5FBF41FC5FAF411007F
:10121000FAC421F5FBC422F529502A10D8B413EFE3
:1012200009F015EF09F022EF09F002D822EF09F0DA
:101230000500FA6E2950FD6E2A50FE6EF850FF6EC2
:10124000FA501200BD9622C5FBF421C5FAF4110034
:10125000BE0EF66E150EF76E000EF86E0900F5C4A0
:101260003CF50900F5C43DF501EE27F1130EEE6AD9
:10127000E806FDE10401080E5D6F000E5E6F000ED2
:101280005F6F000EF86E000129EF08F0000E0001FC
:10129000A36FA387A38B000EA46F070EA413000EE9
:1012A000A56FA551F80B0209A56F000EA66F3F0EA2
:1012B000A617A651E00B0209A66F000EA76FA38F19
:1012C000000E376E37861200266E24C560F53F0E7D
:1012D0000501601723C561F5060E626FD89061376E
:1012E000622F6EEF09F02640800B61116011020140
:1012F0009C6F25C59FF21200000E016EC0A202D0A5
:10130000018E01D0019EBFAC02D0018401D00194B6
:10131000BEA202D0018201D00192BEA002D0018003
:1013200001D0019001501200156E3D50D8B49BEFD2
:1013300009F09DEF09F0A5EF09F0000E3D6E155084
:10134000F9EC03F0146EA9EF09F015505FEC00F012
:10135000146E14501200000E03012B6F000E2C6F40
:101360002C51E00B08092C6F000E2D6F0A0E2D6F0B
:10137000000E2E6F000E2A6FBD96B2861200000E70
:1013800003011E6F000E1F6F1F51E00B08091F6F36
:10139000000E206F0A0E206F000E216F000E1D6FD1
:1013A000B696AB861200000E0401466F000E476F22
:1013B0004751E00B0209476F440E436F000E446F24
:1013C000000E456FB996AE86468F1200000E386E3D
:1013D00039500F0B0009D8A4F0EF09F0F2EF09F033
:1013E000F6EF09F00301EA51F8EF09F00301E151CA
:1013F0001200000E386E39500F0B0009D8A403EF0D
:101400000AF005EF0AF009EF0AF00301EB510BEFC8
:101410000AF00301E2511200BEA211EF0AF014EF2C
:101420000AF0BE8215EF0AF0BE92010E3C6E78C043
:101430001CF51200000E0001A26FA251F30B080967
:10144000A26F000EA06FA28F120003011D51D8B42D
:101450002CEF0AF02EEF0AF02FEF0AF01E8F120089
:10146000000E0301D76FD751F30B0409D76FD78F45
:101470001200236E0301D7512318FC0B2318D76FDA
:1014800012000B6E0301D7510B18FC0B0B18D76F12
:02149000120048
:10149400BE80020199859799979B979DBA961100F2
:1014A400000E286E000E276EC0EC0AF0120066ECE7
:1014B40007F095EC0AF0120023C529F524C52AF596
:1014C400120023C52BF524C52CF5120023C53AF5CB
:1014D40024C53BF5120023C52FF524C530F51200B1
:1014E40023C533F524C534F5120023C531F524C5CD
:1014F40032F5120003011E9F000E1C6F12000BC573
:1015040081F40CC582F412000BC572F40CC573F49B
:1015140012000BC563F40CC564F41200010E3D6E99
:1015240052EC0AF01200010E93EC06F012000400D3
:10153400000E3C6E12000B6E0BC52AF312000B6EEC
:0E1544000BC51DF312000B6E0BC5A0F01200BC
:10155400010E386EB5901100070E9C6E120099ECC6
:1015640001F0120003012A51120003011D5112005F
:10157400000E356E12000001A0511200070E9C6E81
:1015840012003C501200D68E1200355012008150C9
:1015940012008250120072501200735012006350F5
:1015A40012006450120037501200385012003950A3
:1015B4001200BF9C1200C09212000101120012001E
:0215C400120013
:0215C800110010
:020000040020DA
:10000000FFFFFFFFFFFFFFFFFFFFFFFFFFFFFFFF00
:10001000FFFFFFFFFFFFFFFFFFFFFFFFFFFFFFFFF0
:10002000FFFFFFFFFFFFFFFFFFFFFFFFFFFFFFFFE0
:10003000FFFFFFFFFFFFFFFFFFFFFFFFFFFFFFFFD0
:020000040030CA
:090000008CFDFFF4EBC6FFFFFFCD
:00000001FF
