:040000005DEF00F0C0
:100008004F034F034F034F034F034F034F034F0358
:100018004F034F034F034F034F034F034F034F0348
:100028004F032E002E002E004F034F034F034F03A4
:100038004F034F034F03BC024F034F034F034F03BC
:100048004F034F034F034F034F034F034F034F0318
:100058004F034F034F032E004F034F034F034F032C
:100068004F034F034F03AC024F034F034F032E00C0
:100078001D0298026B024F032E004F034F034F03DC
:100088004F034F034F034F032E004F032E004F0320
:100098004F034F034F034F034F034F034F034F03C8
:1000A8004F032E002E004F034F034F034F034F0300
:1000B800FF0098EF05F0010E076E0868E0EF00F00A
:1000C800A50E086E61EF01F0CEEC05F0086E61EF49
:1000D80001F0000E086E61EF01F080EC06F0086E8A
:1000E80061EF01F0010EB9EC03F0086E61EF01F069
:1000F800010E76EC03F0086E61EF01F0020EB9EC28
:1001080003F0086E61EF01F0020E76EC03F0086E62
:1001180061EF01F0030EB9EC03F0086E61EF01F036
:10012800030E76EC03F0086E61EF01F0040EB9ECF3
:1001380003F0086E61EF01F0040E76EC03F0086E30
:1001480061EF01F0050EB9EC03F0086E61EF01F004
:10015800050E76EC03F0086E61EF01F0060EB9ECBF
:1001680003F0086E61EF01F0060E76EC03F0086EFE
:1001780061EF01F094EC06F0086E61EF01F092EC8B
:1001880006F0086E61EF01F090EC06F0086E61EF82
:1001980001F08EEC06F0086E61EF01F08CEC06F0D1
:1001A800086E61EF01F08AEC06F0086E61EF01F06D
:1001B800000E076E61EF01F03350056E066A0650B7
:1001C800000AD8B4EAEF00F0DCEF00F00550000AAE
:1001D800D8B464EF00F0010AD8B468EF00F0030A5D
:1001E800D8B46DEF00F0010AD8B461EF01F0070A46
:1001F800D8B461EF01F0020AD8B461EF01F0010A46
:10020800D8B471EF00F0170AD8B476EF00F0010AFD
:10021800D8B47CEF00F0030AD8B482EF00F0010AEA
:10022800D8B488EF00F0070AD8B48EEF00F0010ABE
:10023800D8B494EF00F0030AD8B49AEF00F0010A9A
:10024800D8B4A0EF00F00F0AD8B4A6EF00F0010A66
:10025800D8B4ACEF00F0030AD8B4B2EF00F0010A4A
:10026800D8B4B8EF00F03B0AD8B4BEEF00F0010AEA
:10027800D8B4C3EF00F0030AD8B4C8EF00F0010AFD
:10028800D8B4CDEF00F0070AD8B4D2EF00F0010AD5
:10029800D8B4D7EF00F0160AD8B461EF01F0070A16
:1002A800D8B461EF01F0010AD8B461EF01F0030A94
:1002B800D8B461EF01F0DCEF00F00750D8B467EF75
:1002C80001F069EF01F06AEF01F0332A08501200DB
:1002D8000F6E010E106E7AEF01F00F506FEC04F004
:1002E800FBEF01F0000E106EFBEF01F033500D6EC6
:1002F8000E6A0E50000AD8B484EF01F076EF01F0D0
:100308000D50000AD8B4FBEF01F0010AD8B471EF20
:1003180001F0030AD8B4FBEF01F0010AD8B4FBEFEF
:1003280001F0070AD8B4FBEF01F0020AD8B4FBEFDA
:1003380001F0010AD8B4FBEF01F0170AD8B4FBEFBB
:1003480001F0010AD8B4FBEF01F0030AD8B4FBEFBF
:1003580001F0010AD8B4FBEF01F0070AD8B4FBEFAB
:1003680001F0010AD8B4FBEF01F0030AD8B4FBEF9F
:1003780001F0010AD8B4FBEF01F00F0AD8B4FBEF83
:1003880001F0010AD8B4FBEF01F0030AD8B4FBEF7F
:1003980001F0010AD8B4FBEF01F03B0AD8B4FBEF37
:1003A80001F0010AD8B4FBEF01F0030AD8B4FBEF5F
:1003B80001F0010AD8B4FBEF01F0070AD8B4FBEF4B
:1003C80001F0010AD8B4FBEF01F0160AD8B4FBEF2C
:1003D80001F0070AD8B4FBEF01F0010AD8B4FBEF2B
:1003E80001F0030AD8B4FBEF01F076EF01F01050EA
:1003F800D8B401EF02F003EF02F004EF02F0332A61
:10040800105012000D6E0FEF02F0010E90EF02F087
:10041800000E90EF02F00D500B6E0C6A0C50000AA3
:10042800D8B419EF02F00CEF02F00B50000AD8B460
:1004380009EF02F0010AD8B409EF02F0030AD8B4B0
:1004480009EF02F0010AD8B409EF02F0070AD8B49C
:1004580009EF02F0020AD8B409EF02F0010AD8B491
:1004680009EF02F0170AD8B409EF02F0010AD8B46C
:1004780009EF02F0030AD8B409EF02F0010AD8B470
:1004880009EF02F0070AD8B409EF02F0010AD8B45C
:1004980009EF02F0030AD8B409EF02F0010AD8B450
:1004A80009EF02F00F0AD8B409EF02F0010AD8B434
:1004B80009EF02F0030AD8B409EF02F0010AD8B430
:1004C80009EF02F03B0AD8B409EF02F0010AD8B4E8
:1004D80009EF02F0030AD8B409EF02F0010AD8B410
:1004E80009EF02F0070AD8B409EF02F0010AD8B4FC
:1004F80009EF02F0160AD8B409EF02F0070AD8B4D7
:1005080009EF02F0010AD8B409EF02F0030AD8B4DF
:1005180009EF02F00CEF02F01200000E696E000EF7
:10052800786E000E876E000E606E000E6F6E000E05
:100538007E6E040E616E040E706E040E7F6E000EE9
:10054800656E000E746E000E836E000E626E000EF5
:10055800716E000E806E020E646E6C0E636E020E7B
:10056800736E6C0E726E020E826E6C0E816E000ED1
:100578006C6E1F0E6B6E000E6E6E1F0E6D6E000E93
:100588007B6E1F0E7A6E000E7D6E1F0E7C6E000E47
:100598008A6E1F0E896E000E8C6E1F0E8B6E000EFB
:1005A800686E000E776E000E866E000E6A6E000E84
:1005B800796E000E886E070E9D6E120008EF03F02C
:1005C8001EC56BF41FC56CF42DEF03F01EC56DF44A
:1005D8001FC56EF42DEF03F01EC57AF41FC57BF41A
:1005E8002DEF03F01EC57CF41FC57DF42DEF03F03D
:1005F8001EC589F41FC58AF42DEF03F01EC58BF4C0
:100608001FC58CF42DEF03F02050216E226A225072
:10061800000AD8B412EF03F02DEF03F02150010ABD
:10062800D8B4E4EF02F0030AD8B4EAEF02F0010A02
:10063800D8B4F0EF02F0070AD8B4F6EF02F0010AD6
:10064800D8B4FCEF02F0030AD8B402EF03F02DEFA0
:1006580003F01200C880C78804011091089909891D
:100668001181C79CC892089D1093BF9CC092C690E8
:10067800C69200910093BE90BE92C684C78A008538
:10068800088B1085009B0099028B0289C69AC69830
:10069800050E0201706F040E716F220E066F210E97
:1006A800056F0401039B0399048B0489C79EBF9EB1
:1006B8000A0E0201106FC89EC09E0B0E186FC89CD0
:1006C800C09C0C0E176FC896C0960D0E146FC89874
:1006D800C0980E0E156FC89AC09A0F0E166F0401B7
:1006E80010851200036E046892EF03F06BC404F5E2
:1006F800B7EF03F06DC404F5B7EF03F07AC404F55F
:10070800B7EF03F07CC404F5B7EF03F089C404F530
:10071800B7EF03F08BC404F5B7EF03F00350016E95
:10072800026A0250000AD8B49CEF03F0B7EF03F056
:100738000150010AD8B47AEF03F0030AD8B47EEF67
:1007480003F0010AD8B482EF03F0070AD8B486EFA1
:1007580003F0010AD8B48AEF03F0030AD8B48EEF85
:1007680003F0B7EF03F004501200036E0468D5EFEE
:1007780003F06CC404F5FAEF03F06EC404F5FAEF65
:1007880003F07BC404F5FAEF03F07DC404F5FAEF37
:1007980003F08AC404F5FAEF03F08CC404F5FAEF09
:1007A80003F00350016E026A0250000AD8B4DFEF6A
:1007B80003F0FAEF03F00150010AD8B4BDEF03F0DB
:1007C800030AD8B4C1EF03F0010AD8B4C5EF03F0A7
:1007D800070AD8B4C9EF03F0010AD8B4CDEF03F083
:1007E800030AD8B4D1EF03F0FAEF03F00450120073
:1007F8002EEC03F0400E266ECFB805EF04F009EF9B
:1008080004F0256A252A0AEF04F0256AD8902534D1
:100818002612D0B012EF04F015EF04F0010E16EF17
:1008280004F0000E26122650B3EC05F0010E1E6EE1
:10083800010E1F6E030E206E010EE6EC05F099EC1A
:1008480006F091EC02F028EC06F0760E1E6E0C0E07
:100858001F6E55EC06F09AEC06F014EC06F02C0E20
:100868001E6E0D0E1F6E50EC06F01200FAC413F542
:10087800FBC414F58AC216F52F503010D8B447EFD0
:1008880004F049EF04F069EF04F002D857EF04F0E0
:100898000500FA6E2F50FD6E3050FE6EF850FF6E58
:1008A800FA5016501200E806D8A45DEF04F060EF85
:1008B80004F0010E61EF04F0000E156E15B003D0C0
:1008C8000201959D02D00201958DBA9014C5FBF4E2
:1008D80013C5FAF411000B6E0BC50CF50CAE77EFCF
:1008E80004F079EF04F07CEF04F0C0827DEF04F0AF
:1008F800C0920CA482EF04F084EF04F089EF04F0B6
:10090800BF8C83EC06F08CEF04F0BF9C69EC06F01A
:100918000CA291EF04F093EF04F096EF04F0BE827E
:1009280097EF04F0BE920CA09CEF04F09EEF04F049
:10093800A1EF04F0BE80A2EF04F0BE901200000EFA
:100948001F6E1F0E1E6E010E206EE2EC02F0000EEE
:100958001F6E2F0E1E6E020E206EE2EC02F0000ECD
:100968001F6E3E0E1E6E030E206EE2EC02F0000EAD
:100978001F6E1F0E1E6E040E206EE2EC02F0000EBB
:100988001F6E2F0E1E6E050E206EE2EC02F0000E9A
:100998001F6E3E0E1E6E060E206EE2EC02F07AEC22
:1009A80006F01200FAC417F5FBC418F502019AA55F
:1009B800E0EF04F0E2EF04F0FDEF04F08C69959DA0
:1009C80099852B502C10D8B4ECEF04F0EEEF04F01E
:1009D800FBEF04F002D8FBEF04F00500FA6E2B5091
:1009E800FD6E2C50FE6EF850FF6EFA501200020198
:1009F8009A95BA9418C5FBF417C5FAF41100FCECE3
:100A080003F09CEC06F09BEC06F0FA0E1E6E0B0E43
:100A18001F6E5FEC06F0FA0E1E6E0C0E1F6E64EC75
:100A280006F0DC0E1E6E0C0E1F6E5AEC06F088ECFB
:100A380006F077EC06F086EC06F00009D8B427EF4C
:100A480005F029EF05F01FEF05F073EC06F01FEF36
:060A580005F05DEF00F067
:100A6000FAC409F5FBC40AF52D502E10D8B43BEF9B
:100A700005F03DEF05F04EEF05F002D84AEF05F026
:100A80000500FA6E2D50FD6E2E50FE6EF850FF6E72
:100A9000FA50120002018B6F51EF05F0000E0201B7
:0E0AA0008B6FBA920AC5FBF409C5FAF4110077
:100AB000FAC41AF5FBC41BF529502A10D8B463EF09
:100AC00005F065EF05F072EF05F002D872EF05F062
:100AD0000500FA6E2950FD6E2A50FE6EF850FF6E2A
:100AE000FA501200B9961BC5FBF41AC5FAF41100AE
:100AF000FAC41CF5FBC41DF527502810D8B483EFA9
:100B000005F085EF05F092EF05F002D892EF05F0C1
:100B10000500FA6E2750FD6E2850FE6EF850FF6EED
:100B2000FA501200B6961DC5FBF41CC5FAF411006C
:100B3000300EF66E0D0EF76E000EF86E0900F5C45D
:100B400034F50900F5C435F5336A326A316A0401B7
:100B5000080E5D6F000E5E6F000E5F6F000EF86E88
:100B6000000103EF05F01E6E000E0201946FF80EF7
:100B70009417000E956F000E9B6F9B85010E9E6F64
:100B80009F0E9D6F8C691E501E24906FBA94BA9070
:100B9000BA92AF84AF80AF82948F1200000E016EC4
:100BA000C0A202D0018E01D0019EBFAC02D0018450
:100BB00001D00194BEA202D0018201D00192BEA058
:100BC00002D0018001D0019001501200246E1FC597
:100BD00021F53F0E21161EC522F5060E236ED89074
:100BE0002236232EEFEF05F02440800B2210211037
:100BF00002019C6F20C59FF21200126E3550D8B4CE
:100C000004EF06F006EF06F00EEF06F0000E356E6C
:100C1000125006EC02F0116E12EF06F012506CEC5E
:100C200001F0116E11501200000E03011E6F000E34
:100C30001F6F1F51E00B08091F6F000E206F0A0E77
:100C4000206F000E216F3C0E1D6FB696AB86120012
:100C5000000E0401466F000E476F4751E00B02097A
:100C6000476F440E436F000E446F000E456FB996F8
:100C7000AE86468F1200BEA240EF06F043EF06F0AC
:100C8000BE8244EF06F0BE92010E346E78C019F5B4
:100C90001200000E336E000E326E000E316E120026
:100CA0001EC527F51FC528F512001EC529F51FC54D
:100CB0002AF512001EC52BF51FC52CF512001EC506
:100CC0002FF51FC530F512001EC52DF51FC52EF5D9
:100CD000120003011E9F000E1C6F1200010E356EE4
:100CE00049EC06F012000400000E346E1200A3EC72
:100CF00004F01200070E9C6E12005FEC00F0120070
:100D000003011D51120003011E8F12003450120006
:100D1000D68E1200815012008250120072501200C2
:100D2000735012006350120064501200BF9C1200F6
:0A0D3000010112001200120012006F
:020D3C001100A4
:020000040020DA
:10000000FFFFFFFFFFFFFFFFFFFFFFFFFFFFFFFF00
:10001000FFFFFFFFFFFFFFFFFFFFFFFFFFFFFFFFF0
:10002000FFFFFFFFFFFFFFFFFFFFFFFFFFFFFFFFE0
:10003000FFFFFFFFFFFFFFFFFFFFFFFFFFFFFFFFD0
:020000040030CA
:090000008CFDFFF48BC6FFFFFF2D
:00000001FF
